:10000000A8C20000CBC20000C9C20000C7C20000E5
:10001000C5C20000C3C20000C1C20000BFC20000D0
:10002000BDC20000BBC20000B9C20000B7C20000E0
:10003000B5C20000B3C20000B1C20000AFC20000F0
:10004000ADC20000ABC20000A9C20000A7C2000000
:10005000A5C2000000000000003E5B4F5B3E3E6B0F
:100060004F6B3E1C3E7C3E1C183C7E3C181C577D52
:10007000571C1C5E7F5E1C00183C1800FFE7C3E79E
:10008000FF0018241800FFE7DBE7FF30483A060EB0
:100090002629792926407F050507407F05253F5AF7
:1000A0003CE73C5A7F3E1C1C08081C1C3E7F142267
:1000B0007F22145F5F005F5F06097F017F00668912
:1000C000956A606060606094A2FFA29408047E0458
:1000D0000810207E201008082A1C08081C2A08087E
:1000E0001E101010100C1E0C1E0C30383E3830063E
:1000F0000E3E0E06000000000000005F000000073A
:10010000000700147F147F14242A7F2A1223130867
:10011000646236495620500008070300001C224143
:10012000000041221C002A1C7F1C2A08083E0808E7
:100130000080703000080808080800006060002097
:10014000100804023E5149453E00427F400072497A
:100150004949462141494D331814127F102745451E
:1001600045393C4A49493141211109073649494934
:1001700036464949291E00001400000040340000A2
:10018000000814224114141414140041221408020B
:10019000015909063E415D594E7C1211127C7F497E
:1001A0004949363E414141227F4141413E7F4949D3
:1001B00049417F090909013E414151737F080808FF
:1001C0007F00417F41002040413F017F08142241D0
:1001D0007F404040407F021C027F7F0408107F3E2A
:1001E0004141413E7F090909063E4151215E7F0997
:1001F000192946264949493203017F01033F4040FE
:10020000403F1F2040201F3F4038403F63140814E8
:100210006303047804036159494D43007F41414120
:100220000204081020004141417F04020102044001
:1002300040404040000307080020545478407F2885
:100240004444383844444428384444287F3854547B
:10025000541800087E090218A4A49C787F0804049E
:100260007800447D40002040403D007F102844003D
:1002700000417F40007C047804787C0804047838CE
:1002800044444438FC1824241818242418FC7C08FE
:10029000040408485454542404043F44243C40407B
:1002A000207C1C2040201C3C4030403C442810282E
:1002B000444C9090907C4464544C44000836410077
:1002C0000000770000004136080002010204023CF1
:1002D0002623263C1EA1A161123A4040207A3854C0
:1002E0005455592155557941225454784221555439
:1002F000784020545579400C1E527212395555558C
:1003000059395454545939555454580000457C4176
:100310000002457D420001457C407D1211127DF0B6
:10032000282528F07C545545002054547C547C0AE0
:10033000097F4932494949323A4444443A324A48A9
:1003400048303A4141217A3A42402078009DA0A0AD
:100350007D3D4242423D3D4040403D3C24FF2424FF
:10036000487E4943662B2FFC2F2BFF0929F620C01E
:10037000887E090320545479410000447D4130486F
:10038000484A32384040227A007A0A0A727D0D19B2
:10039000317D2629292F28262929292630484D4014
:1003A00020380808080808080808382F10C8ACBA10
:1003B0002F102834FA00007B000008142A1422228F
:1003C000142A1408AA005500AAAA55AA55AA000082
:1003D00000FF00101010FF00141414FF001010FF95
:1003E00000FF1010F010F0141414FC001414F700A7
:1003F000FF0000FF00FF1414F404FC141417101F76
:1004000010101F101F1414141F00101010F0000003
:1004100000001F101010101F10101010F01000001E
:1004200000FF101010101010101010FF100000002E
:10043000FF140000FF00FF00001F10170000FC0465
:10044000F414141710171414F404F40000FF00F748
:1004500014141414141414F700F7141414171410AB
:10046000101F101F141414F4141010F010F00000DA
:100470001F101F0000001F14000000FC140000F0FB
:1004800010F01010FF10FF141414FF141010101FA0
:1004900000000000F010FFFFFFFFFFF0F0F0F0F0B1
:1004A000FFFFFF0000000000FFFF0F0F0F0F0F38CE
:1004B00044443844FC4A4A4A347E02020606027E1C
:1004C000027E0263554941633844443C04407E2027
:1004D0001E2006027E020299A5E7A5991C2A492A38
:1004E0001C4C7201724C304A4D4D303048784830C7
:1004F000BC625A463D3E494949007E0101017E2ABF
:100500002A2A2A2A44445F444440514A44404044F1
:100510004A51400000FF0103E080FF000008086B23
:100520006B083612362436060F090F06000018181D
:100530000000001010003040FF0101001F01011EEB
:1005400000191D1712003C3C3C3C0000000000005C
:10055000DF0211241FBECFE5D8E0DEBFCDBF10E023
:10056000A0E6B0E0E2EBF4E102C005900D92A839FC
:10057000B107D9F710E0A8E9B0E001C01D92A63C90
:10058000B107E1F715E0C2E5D5E003C02297FE010F
:100590008AD7C035D107D1F702D089C731CDD49AD7
:1005A000DC9A90E18BB389278BBB2FE33DE083E09E
:1005B000215030408040E1F700C00000F3CF8FE9C8
:1005C00090E002D341E06FE970E08CE990E006D062
:1005D0006CE271E088E990E006C0FFCFFC01718316
:1005E000608342830895FC01738362832AE030E0D4
:1005F0003183208308952F923F924F925F926F92A2
:100600007F928F929F92AF92BF92CF92DF92EF92A2
:10061000FF920F931F93CF93DF9300D01F92CDB71C
:10062000DEB74C017B836A836A0159011701980187
:10063000241B350B37FF03C0319521953109C501C6
:100640004A815B81841B950B97FF03C0919581952F
:10065000910951E059838217930714F019820BC056
:100660009A2D8B2D5801092F182F9A818B81DB82AF
:10067000CA82C92ED82E8A819B81A816B9065CF43D
:100680009C2D8D2D6801092F182F9A818B81BB829B
:10069000AA82A92EB82E2501AA81BB814A1A5B0A1B
:1006A00038016C187D0877FE03C07194619471085D
:1006B000720157FE03C0BFEFEB1AFB0AF594E794F3
:1006C000C016D1061CF00FEF1FEF1FC001E010E0B5
:1006D0001CC0E981D401EE23F1F0ED91FC91019071
:1006E000F081E02D91014A815B81B601C401099539
:1006F000E618F708F7FE04C0C00ED11EE40CF51C86
:10070000EA81FB813196FB83EA834A815B81A416EF
:10071000B506FCF60AC0ED91FC910190F081E02D48
:100720009101A6016A817B81E1CF0F900F900F901C
:10073000DF91CF911F910F91FF90EF90DF90CF90BD
:10074000BF90AF909F908F907F906F905F904F90F1
:100750003F902F9008956F927F928F929F92AF92C9
:10076000BF92CF92DF92EF92FF920F931F93CF939E
:10077000DF93EC014B015A0169013801E881F981ED
:100780000680F781E02D87010995E881F981A501AF
:10079000460D571D415051090680F781E02D960105
:1007A000B401CE010995E881F9810480F581E02D3D
:1007B0009301A501B401CE010995E881F981C80C26
:1007C000D91CB601615071090480F581E02D9301B7
:1007D000A501CE010995DF91CF911F910F91FF9057
:1007E000EF90DF90CF90BF90AF909F908F907F90D1
:1007F0006F900895EF92FF920F931F937801DC01A1
:10080000ED91FC91240F351F8901015011090280DF
:10081000F381E02D9B0109951F910F91FF90EF90BF
:100820000895EF92FF920F931F93DC01ED91FC91DD
:10083000260F371F215031090280F381E02D780106
:100840008A0109951F910F91FF90EF9008956F9283
:100850007F928F929F92AF92BF92CF92DF92EF9250
:10086000FF920F931F93CF93DF936C015A014801BE
:10087000EB013B01620E731EC615D70574F4D60159
:10088000ED91FC910480F581E02D87019401A50193
:10089000BE01C60109952196EFCFDF91CF911F913F
:1008A0000F91FF90EF90DF90CF90BF90AF909F900F
:1008B0008F907F906F900895EF92FF920F931F9308
:1008C000DC01ED91FC91119718960D911C911997EF
:1008D00016962D913C9117970284F385E02D7B01AC
:1008E00040E050E060E070E009951F910F91FF90AB
:1008F000EF9008950895FC0184E690E09183808351
:1009000073836283558344837783668351874087EB
:10091000138A138612861586148681E0828B2FEF48
:100920003FEF318B208B37872687848B08952F925A
:100930003F924F925F926F927F928F929F92AF926F
:10094000BF92CF92DF92EF92FF920F931F93CF93BC
:10095000DF93CDB7DEB72D970FB6F894DEBF0FBE8D
:10096000CDBFDC011696ED91FC9117976E177F07AE
:100970000CF09EC01896ED91FC9119974E175F07E9
:100980000CF096C08C2C912CFB01B6E0CB9EE00DB8
:10099000F11D11241E161F060CF08AC0F40133E06D
:1009A000EE0FFF1F3A95E1F7E40FF51F1E161F0625
:1009B0000CF07EC0CF82FE82ED821C830B831A0175
:1009C0005C01E5E02E9F900111247D876C873B013F
:1009D0001A82A901461B570B59874887C1010896FF
:1009E0009B878A879A81953049F0E885F985E60DDD
:1009F000F71DEC5AFF4FA491A98301C01982210170
:100A00006101B981B0FF14C0EF81D501E13041F43B
:100A1000ED91FC910190F081E02D2B813C811AC079
:100A2000ED91FC910284F385E02DEB80FC801CC0ED
:100A3000ED81FE812B813C81E217F307E1F03F81DC
:100A4000D501ED91FC91313051F40190F081E02D10
:100A50002D813E81A201B301C50109950CC002841C
:100A6000F385E02DED80FE8084019401A6016C8564
:100A70007D85C5010995B981B695B983EFEF4E1A09
:100A80005E0AC80CD91C2A853B854216530609F01C
:100A9000B8CF3A813F5F3A834FEF641A740A8C856E
:100AA0009D85880D991D9D878C87363009F09ACFDA
:100AB0002D960FB6F894DEBF0FBECDBFDF91CF915C
:100AC0001F910F91FF90EF90DF90CF90BF90AF906C
:100AD0009F908F907F906F905F904F903F902F905E
:100AE0000895CF92EF92FF920F931F93CF93DF93CE
:100AF000EC016A3059F42A898C859D8538E0239F62
:100B0000800D911D11249D878C8734C06D30A1F11B
:100B1000262FE888F9880E851F854C855D856A85B6
:100B20007B85CA8804DF4A89242F30E08A859B852B
:100B300056E0459F800D911D11249B878A874C8923
:100B40004423D1F04AEF4203B001439F700D1124BA
:100B50004E815F81460F571F481759076CF483E099
:100B6000220F331F8A95E1F78C859D85280F391F49
:100B70003D872C871B861A86DF91CF911F910F919D
:100B8000FF90EF90CF900895FC01979A959A949AD0
:100B9000969A939A81B3886F81BB84B38FEF84BB9D
:100BA000138A138612861586148681E0828B8FEF56
:100BB0009FEF9787868780EF90E09783868380E416
:100BC00091E0918780870895CF93DF93EC0140E413
:100BD00051E060EF70E08FDE86E890E099838883D3
:100BE000CE01DF91CF91D0CF65BB9598959A0895AE
:100BF0006F927F928F929F92AF92BF92CF92DF922D
:100C0000EF92FF920F931F93CF93DF931F92CDB775
:100C1000DEB73C01162F072F69017A019798969845
:100C2000FC018589823011F46CE209C0811104C095
:100C300060E0C301D9DF02C08330B1F362E2C301D7
:100C4000D3DF969A602FC301CFDF612FC301CCDFC2
:100C500046015701F1E08F1A9108A108B108D501AA
:100C6000C40126E0B695A795979587952A95D1F763
:100C7000BC010117A1F07C014FC09598959A9598F9
:100C8000959A9598959A9598959A9598959A9598F4
:100C9000959A9598959A9598959A815071F7615083
:100CA000710910F080E1E9CF282D2F73215028F031
:100CB0009598959A9598959AF9CF979A0F90DF9174
:100CC000CF911F910F91FF90EF90DF90CF90BF9049
:100CD000AF909F908F907F906F900895602FC30189
:100CE00083DF612FC30180DF602FC3017DDF612FB0
:100CF000C3017ADF602FC30177DF612FC30174DF87
:100D0000602FC30171DF612FC3016EDFDA94D11050
:100D1000E5CFE1E0EE1AF108E114F10419F080E109
:100D2000D82EDCCF282D2F73215008F4C6CF602F8A
:100D3000C301298359DF612FC30156DF2981F4CF15
:100D40000F931F93CF93DF931F92CDB7DEB78C0124
:100D50009698498349DF969A4981642FC8010F907C
:100D6000DF91CF911F910F913FCFEF92FF921F9391
:100D7000CF93DF9300D0CDB7DEB77C01162F672F5E
:100D800096984A83598330DF612FC7012DDF969AE9
:100D90005981652FC70128DF4A81642FC7010F9051
:100DA0000F90DF91CF911F91FF90EF901DCF0F9388
:100DB0001F93CF93DF9300D01F92CDB7DEB78C0186
:100DC00096982B8339834A830FDF969A3981632F54
:100DD000C8010ADF96984A81642FC80105DF969AF8
:100DE0002B81622FC8010F900F900F90DF91CF9150
:100DF0001F910F91F9CECF93DF93EC0197982E813D
:100E00003F812150310945E064E0D1DF28853985F3
:100E10002150310949E068E0CE01C9DF979ADF919E
:100E2000CF910895CF92DF92EF92FF92CF93DF930D
:100E3000EC0169017A0197989698D6DE969A83E03C
:100E40008A95F1F700006F2D772788279927CE0123
:100E5000CBDE83E08A95F1F70000B7018827992758
:100E6000CE01C2DE83E08A95F1F7000099278F2D2D
:100E70007E2D6D2DCE01B8DE83E08A95F1F700005E
:100E80006C2DCE01B1DE979ADF91CF91FF90EF905C
:100E9000DF90CF9008958F929F92AF92BF92CF92A2
:100EA000DF92EF92FF920F931F93CF93DF93EC01AA
:100EB0007A01690197982D89211158C02B89223018
:100EC00089F0233021F1213081F52FEE30E0A901A6
:100ED000401B510B5B0149018E189F08860164017C
:100EE0007B0113C02FEE30E0A9014C195D096901A7
:100EF000C61AD70A8FE391E09C01201B310B8C01AD
:100F00000E191F09580146017901BA0110C02FE3DB
:100F100031E0A9014C195D095901A61AB70A470128
:100F200068018501B7017A0102C05A014B01AB018A
:100F300060E570E0CE0119DFA60161E570E0CE0149
:100F400014DFA70162E570E0CE010FDFA80163E5C1
:100F500070E0CE010ADFA40160E270E0CE0105DF9F
:100F6000A50161E270E0CE0100DF45C02130A1F4AF
:100F70009B0143E062E01BDF970147E066E0CE01A2
:100F800016DF960145E064E0CE0111DF980149E0EB
:100F900068E0CE010CDF2FC02250223060F5CB017B
:100FA000AA2797FDA095BA2FDC0199278827A601CB
:100FB000662757FD6095762F9A01AB01282B392BB8
:100FC0004A2B5B2B6AE2CE012DDFC701AA2797FDD2
:100FD000A095BA2FDC0199278827A801662757FD1D
:100FE0006095762F9A01AB01282B392B4A2B5B2B6E
:100FF0006BE2CE0117DF979ADF91CF911F910F918E
:10100000FF90EF90DF90CF90BF90AF909F908F9028
:101010000895CF92DF92EF92FF920F931F93CF9399
:10102000DF93EC016801121613060CF04BC057FD5C
:1010300049C088859985481759070CF043C0EE814F
:10104000FF816E177F070CF03DC07B01E20EF31E9F
:10105000C701019797FD36C077FF32C060E070E0AE
:101060008E179F072CF0CF0101977F01E61AF70A30
:101070008A019C01CE010FDF9701442737FD40957F
:10108000542FB601CE01B4DD8D8981110FC00885C2
:101090001985015011092E813F812150310940E00D
:1010A00050E060E070E0CE01F6DE0CC0CE01DF91D2
:1010B000CF911F910F91FF90EF90DF90CF909BCE3B
:1010C0007901CECFDF91CF911F910F91FF90EF90DB
:1010D000DF90CF900895CF92DF92EF92FF920F931F
:1010E0001F93CF93DF93EC016801121613060CF0E7
:1010F0004CC077FD4AC08E819F81681779070CF03C
:1011000044C0E885F9854E175F070CF03EC07A01B0
:10111000E20EF31E87010150110917FD36C057FF7B
:1011200032C040E050E00E171F0734F08F0101502D
:1011300011097F01E41AF50A9B01CE01ACDE97018B
:10114000442737FD4095542FB601CE0151DD8D89DE
:1011500081110FC008851985015011092E813F8129
:101160002150310940E050E060E070E0CE0193DEB4
:101170000CC0CE01DF91CF911F910F91FF90EF90A6
:10118000DF90CF9038CE7901CECFDF91CF911F91F4
:101190000F91FF90EF90DF90CF9008958F929F92E4
:1011A000AF92BF92CF92DF92EF92FF920F931F9375
:1011B000CF93DF93EC014701121613060CF066C0C3
:1011C000101611060CF062C0AE81BF816A177B0752
:1011D0000CF05CC0C884D9844C155D050CF056C079
:1011E0005B01A20EB31EC501019797FD4FC07A01A6
:1011F000E00EF11EF7013197F7FD48C077FF44C0BC
:1012000060E070E057FD02C0780102C040E050E0AD
:101210008A179B072CF0CD0101975D01A61AB70A2A
:10122000EC15FD052CF0F60131977601E41AF50A6C
:101230008F019C01CE012FDE9701D50117D19B01B3
:10124000AC01B401CE01D4DC8D8981110FC00885B9
:101250001985015011092E813F812150310940E04B
:1012600050E060E070E0CE0116DE10C0CE01DF91EC
:10127000CF911F910F91FF90EF90DF90CF90BF9093
:10128000AF909F908F90B7CD5901BCCFDF91CF9198
:101290001F910F91FF90EF90DF90CF90BF90AF9094
:1012A0009F908F900895EF92FF920F931F93CF938B
:1012B000DF937C01EB01FC018589811122C0238928
:1012C0002150233078F430E0F901E158FF4F80815C
:1012D000482F50E0220F331FF901E758FF4F0081DC
:1012E000118104C000E010E040E050E0979860E217
:1012F00070E0C7013ADDA80161E270E0C70135DDA9
:1013000012C08150833078F4F701008511850150B7
:101310001109268137812150310940E050E060E019
:1013200070E0C701B8DD20E03CE241E050E0BE01E2
:10133000C701DF91CF911F910F91FF90EF9058CC93
:10134000AF92BF92CF92DF92EF92FF920F931F93D3
:10135000CF93DF93EC017B016A01B22EA32E77FDC0
:101360007AC057FD78C08E819F81681779070CF08D
:1013700072C088859985481759070CF06CC09798FA
:101380008D89811132C08B89823059F08330B1F060
:101390008130D1F48FEE90E0841B950B6B017C01C2
:1013A00013C08FEE90E09C01261B370B79018FE371
:1013B00091E09C01241B350B690106C08FE391E08D
:1013C000861B970B7A016C01A70160E270E0CE01E9
:1013D000CCDCA60161E270E0CE01C7DC4B2D5A2DBA
:1013E00062E270E0CE01C1DC35C08130D1F4EB891E
:1013F000E150E33028F4F0E0EA58FF4F408101C0AB
:1014000040E066E1CE019CDC970143E062E0CE0162
:10141000CEDC960147E066E0CE01C9DC969862E238
:1014200010C082508230B0F408851985015011092E
:101430002E813F8121503109CE012DDD979896985C
:101440006CE2CE01D1DB969A6A2DCE01CDDB6B2DFD
:10145000CE01CADB979ADF91CF911F910F91FF9038
:10146000EF90DF90CF90BF90AF90089505D03323D9
:1014700012F48A1B9B0B10C0A29FB001B39FC00146
:10148000A39F700D811D1124911DB29F700D811DB0
:101490001124911D0895F0DFB7FF0895821B930B6F
:1014A0000895EE0FFF1F0590F491E02D0994F89434
:0214B000FFCF6C
:1014B20000000000ED02FB02FA031104AB03270453
:1014C2005C047A04710560C0A000003F013F01EF97
:1014D200EF0000000000A009FB026B080908AB0343
:0814E200CE0853097A047105DC
:00000001FF
