:100000000C947E080C94A5080C94A5080C94A508E3
:100010000C94AA0A0C94A5080C94A5080C94A508A5
:100020000C94A5080C94A5080C94A5080C94A5089C
:100030000C94A5080C94A5080C94A5080C94A5088C
:100040000C94A5080C94A5080C94A5080C94A5087C
:100050000C94A50857484353206D61696E206C6F5E
:100060006F70207374617274696E670A00001520E6
:10007000023C6F01212021272F202121272020272A
:10008000650040200A001320022F255703772451D2
:1000900024776D796D77776D6D2E0157025C2E0098
:1000A0003E200A0012200243037939234E00082320
:1000B0004E00042377023C5C003D200A0011200220
:1000C0006A032A2A5344514E000E2365022F01650C
:1000D000003B200A0010200123025503433D3D3D13
:1000E0004330414E000D233E02630165003A200A71
:1000F000000F20017B02793033033D3D30515151D7
:10010000000D234E4202232B003A200A000E20014C
:10011000212002533D30036141234E001023415BF7
:100120000253013D0039200A000E2001277B025EA8
:100130002A0339412340405933334E444E4E402325
:100140004444334E4E4E2323430122230039200AD8
:10015000000F20012F2302593F0122022720017B9B
:100160007B22027E22593330337B7B27014E2020B5
:10017000025E033F5953012F3C0039200A000F2033
:100180000127237B2F3C2F0004207B7B023C03753F
:10019000670265012A2F202721222244023F037B88
:1001A000017B003A200A001020023E012A2020276D
:1001B0002F213C2F2F27026A03484E34022C016561
:1001C0002365022C6F2B2B71032A0165003A200A4C
:1001D000000F2001440225416177032B2C2C2C02B7
:1001E0006D032C026775035523425124776D6D6DA5
:1001F000512323230263003A200A000E2001230228
:1002000065252323032530514E51443D0223033DF0
:100210000005234E4E0006233A003A200A000E2025
:1002200001230372023C4D033D3D405340595E02A1
:1002300052037B304E4E23235140334E484E2323EE
:10024000403A003A200A000E200122023F013022EB
:10025000027B7B37595E013239027E270122025E22
:10026000035E5E0222033F02513733037B7B3D5422
:10027000024D033F003A200A001020017B322A4E33
:10028000022F01234357023E01517B27212F650294
:100290006F23033D024C012202335B4330037C0099
:1002A0003B200A0010200127433039237B7B025E6C
:1002B0007E2701302202275E037E22223F02540164
:1002C0002330022330513A003B200A001120012F35
:1002D000434E023C3D2A2B0165302F4D0230230353
:1002E0006302213E6D032A690279533037003C20B6
:1002F0000A001220013C3951027B32453C01300298
:100300005E037E7E5E3F7E026103764302235332AC
:1003100054003D200A001320013C2A23023C435391
:100320002B01232A433257022A23032A3D3D02533D
:100330007E012F003D200A001320012F2F22023EB4
:100340004303252A00046D7751234453025261036D
:100350003E0265012720026D2E0039200A000E2082
:10036000025C2C2C0165517B2F2F2F22023F033F73
:10037000595953593D405954023361033D0271406C
:10038000332B2B6D033E02650037200A000A200143
:1003900023022B795020022F0123232A322A7B218A
:1003A0003C433D7B3C3944512323023C3023037BB7
:1003B0003F02303C2323037B3D5425303D6E2B020E
:1003C00071032B0030200A0007200121026F324BFD
:1003D000257B7B357B0132392F2F43327B3C21211A
:1003E00027217B442323027B2530037B7B7C025324
:1003F000013D0222425738712357033343243D3DC8
:100400004333002E200A2020200123032C022B330B
:100410004030325B553D3C7B3E01237B7B3C273C9F
:1004200043437B2121213C39022F7B7B25303050F7
:100430002F5C012339026A3053037B3D403D303D40
:10044000432A3D25002E200A20026A403042403CCB
:1004500052537B304B547B3F7B2F013C213C272167
:10046000213D3D3C27212F4344023E3C3D435E2F2E
:100470002F7E3C5C3033612A334E037B0223037BA7
:10048000430223454E002E200A02652F3D37322AB3
:10049000307A2A7A7B2A433D7D2F012A273C213C52
:1004A0003C213C432A7B2F7B4351023C3D545C0161
:1004B0004D025C3D3C2F30307B3D373D4A25037B70
:1004C0000223033D024E525D002E200A0244264BB9
:1004D0002A7B327B3D3D76432A323C7D27013D3DE0
:1004E0002A3C2143433D20272F2F3C4423022F2722
:1004F00027014D023C3E7B7C3C2A417A263C3C0154
:1005000023022F55334E30387B002E200A02307BD9
:100510006A2A724A7B7B2F7B324B3D43014E443229
:1005200030234E2A213D395143656565392A300211
:100530002C2F3C3C3D3C3C3C3052037B02313C7216
:100540003C012351023F3355533F002E200A023312
:100550007A3C4B5C543C726A2544303D3D01232378
:1005600023023C012323307B273C30022F012365EB
:10057000235143324423023C3C0123027B3C437B16
:1005800040522532253C3C013223022530530123C1
:10059000002E200A001420036D022E03223F2002A9
:1005A00022035E20200246200271004D200A001224
:1005B00020022E0354000C20033F0271004B200A3E
:1005C0000010200271460010200246032E00492030
:1005D0000A000F200271037E00122002220049202F
:1005E0000A000E2001230346000420026E77032B2D
:1005F0002B2B2C022B01656500082003630047208C
:100600000A000E20036A272020025C03793044414F
:100610005144446F3D0224650165000620027100CB
:1006200047200A000E2002562020022303323030D9
:100630004441514430402A2A433D022B2E000420DD
:10064000023F03280046200A000E20032720026AEA
:1006500003403040304441444440322A5343430233
:1006600023422E000420033A0046200A000E2002F6
:100670005C20026A03323230304444443930323232
:10068000402A430223237C000420033A0046200A28
:10069000000E20036A20025D032A303044393900FD
:1006A00004302A402A5343022328000420033A003E
:1006B00046200A000E20033F20025D033F3F227EBA
:1006C0007B3D3D3D7B02547E5E3F7E5E037E02426B
:1006D00000042003620046200A001020026A012F55
:1006E0000004207B0271032B026300062001230219
:1006F00041282020016502482E0045200A000F20D5
:100700000363025D6D2C01652020026E0330407290
:10071000022E202020012F022C2C570329202002FA
:10072000236A460045200A000F2003330257033096
:100730002A792A302A304B3D022303432A76257634
:100740003D0223033D02772B6A5D0046200A000F1D
:1007500020025D0330444444404330394B3D022382
:100760004E0343403240433D024E472355037D0034
:1007700046200A000F20036A5340437E026A033D6D
:10078000302A433D023372702F037E0233335152BD
:1007900048037B3D270046200A00102003733D20BC
:1007A0000277033D3D022E7E7E013923026D4724F0
:1007B0002C0122023030033D7E7E0048200A0010CA
:1007C00020025D037B027957035E023F3F27202012
:1007D0000165022E2020026D2443410329004A2096
:1007E0000A001120037302410325430277033D30C1
:1007F000765402450327026F232346434E03290004
:100800004A200A001120022230033D407643373748
:100810007B024777234E403C304E0328004A200A93
:1008200000122002714E0330432A25022323033D88
:100830003D0251524325444E0328004A200A00122B
:1008400020025D0353433240384032434302525347
:100850007B4451334D032C0049200A001020032B08
:1008600059543D3D02334D037E3D3D7E5E012202E3
:100870007930444444302F2246032C0046200A009D
:100880000C20032B2C0257033D02354471033D3DE0
:100890003D2C022E2020017B026F2451334439402D
:1008A00043632020200259035C02770043200A00A2
:1008B0000720036D2C025703463D02232352564066
:1008C0004557033D3D02235231200165027B7B40A9
:1008D000322A4353433D272020012F57023F3555ED
:1008E000037B02710040200A000520025D032A7B81
:1008F000023042033D023056524053567855033D74
:100900000240444426013C2222022F3C3C3C7B3CDA
:10091000437D000420013D570225387953384203B6
:100920002C003D200A202020032B53540233242A7C
:100930003930553351413D40462F30412A537B01D8
:100940002320202A022F0123235139025E2700048D
:1009500020017B2102273C59313D3D59037B592918
:10096000003A200A20200257037B0253334E4140B5
:100970004632303D38552A6F3D0321022F4A4167E8
:100980007C000520012F43437B0005200228200224
:100990005C2F3D7B4B255241614E3A003A200A20A4
:1009A000025D037D02533956405633407B7A253F22
:1009B000594240443C303C035E024D032B0270011F
:1009C000652020273D222020222021213002797C11
:1009D0003C403C437B302542305528003A200A20D9
:1009E0000354027E2F7B2C257E7B3F372A524152B7
:1009F0007B403F785525745C2C22037E02542700EF
:100A000007200123652265022C3D7C53037B024BAA
:100A10003D3F3F4B540321003A200A024A5E260123
:100A20007B023E3F7E3F4426242A2E2F2A282F3D3C
:100A3000014D02547B2C637E2C7D3D27016500080F
:100A4000203C20227B57027E43277E3F25543C28B2
:100A5000003A200A02467B014D65025C3C014302DC
:100A60002C2002376F63323D3C373F7B2F7B253C88
:100A700021015723023E01652A000720025E202043
:100A800001652A652F027B0123022F5E012A2322A2
:100A9000023D28003A200A00000000003E5B4F5B48
:100AA0003E3E6B4F6B3E1C3E7C3E1C183C7E3C1811
:100AB0001C577D571C1C5E7F5E1C00183C1800FFF5
:100AC000E7C3E7FF0018241800FFE7DBE7FF304823
:100AD0003A060E2629792926407F050507407F051D
:100AE000253F5A3CE73C5A7F3E1C1C08081C1C3E14
:100AF0007F14227F22145F5F005F5F06097F017F02
:100B0000006689956A606060606094A2FFA29408A4
:100B1000047E040810207E201008082A1C08081CE7
:100B20002A08081E101010100C1E0C1E0C30383E27
:100B30003830060E3E0E06000000000000005F0088
:100B4000000007000700147F147F14242A7F2A1254
:100B5000231308646236495620500008070300003A
:100B60001C2241000041221C002A1C7F1C2A08086C
:100B70003E0808008070300008080808080000607F
:100B8000600020100804023E5149453E00427F406B
:100B90000072494949462141494D331814127F10CA
:100BA00027454545393C4A49493141211109073614
:100BB00049494936464949291E00001400000040B1
:100BC00034000000081422411414141414004122AB
:100BD000140802015909063E415D594E7C1211125A
:100BE0007C7F494949363E414141227F4141413E56
:100BF0007F494949417F090909013E414151737FBC
:100C00000808087F00417F41002040413F017F08E4
:100C10001422417F404040407F021C027F7F040835
:100C2000107F3E4141413E7F090909063E41512165
:100C30005E7F09192946264949493203017F01038C
:100C40003F4040403F1F2040201F3F4038403F630F
:100C50001408146303047804036159494D43007F69
:100C60004141410204081020004141417F0402013A
:100C700002044040404040000307080020545478DC
:100C8000407F284444383844444428384444287F2A
:100C9000385454541800087E090218A4A49C787F84
:100CA0000804047800447D40002040403D007F104F
:100CB00028440000417F40007C047804787C0804CC
:100CC00004783844444438FC182424181824241880
:100CD000FC7C08040408485454542404043F44246D
:100CE0003C4040207C1C2040201C3C4030403C4488
:100CF000281028444C9090907C4464544C44000844
:100D00003641000000770000004136080002010271
:100D100004023C2623263C1EA1A161123A40402039
:100D20007A385454555921555579412254547842B2
:100D3000215554784020545579400C1E5272123976
:100D4000555555593954545459395554545800002F
:100D5000457C410002457D420001457C407D1211E9
:100D6000127DF0282528F07C545545002054547CF1
:100D7000547C0A097F4932494949323A4444443A49
:100D8000324A4848303A4141217A3A42402078007C
:100D90009DA0A07D3D4242423D3D4040403D3C241F
:100DA000FF2424487E4943662B2FFC2F2BFF092963
:100DB000F620C0887E090320545479410000447D08
:100DC000413048484A32384040227A007A0A0A7252
:100DD0007D0D19317D2629292F28262929292630FC
:100DE000484D4020380808080808080808382F101F
:100DF000C8ACBA2F102834FA00007B000008142A6F
:100E0000142222142A1408AA005500AAAA55AA5589
:100E1000AA000000FF00101010FF00141414FF00BF
:100E20001010FF00FF1010F010F0141414FC001448
:100E300014F700FF0000FF00FF1414F404FC141466
:100E400017101F10101F101F1414141F0010101063
:100E5000F0000000001F101010101F10101010F0F4
:100E600010000000FF101010101010101010FF10D4
:100E7000000000FF140000FF00FF00001F1017001B
:100E800000FC04F414141710171414F404F40000F4
:100E9000FF00F714141414141414F700F7141414A6
:100EA000171410101F101F141414F4141010F01045
:100EB000F000001F101F0000001F14000000FC14B1
:100EC0000000F010F01010FF10FF141414FF1410A5
:100ED00010101F00000000F010FFFFFFFFFFF0F0F8
:100EE000F0F0F0FFFFFF0000000000FFFF0F0F0F0A
:100EF0000F0F3844443844FC4A4A4A347E02020602
:100F000006027E027E0263554941633844443C0434
:100F1000407E201E2006027E020299A5E7A5991CAC
:100F20002A492A1C4C7201724C304A4D4D303048CF
:100F3000784830BC625A463D3E494949007E01012D
:100F4000017E2A2A2A2A2A44445F444440514A44C2
:100F50004040444A51400000FF0103E080FF000090
:100F600008086B6B083612362436060F090F060088
:100F70000018180000001010003040FF0101001F91
:100F800001011E00191D1712003C3C3C3C000000F2
:100F9000000000000100FF0032000100000102001B
:100FA00000070300301004000000080002020900DE
:100FB00000000A0000000C0000000D0000000F00FF
:100FC00000001000000011000700120000001300D4
:100FD0000000FF00C8001000901611002702FF005B
:100FE000320012001A00FF0032001300001829001E
:100FF0002A00FF0032003000000031000000320003
:1010000000003500060236000808370007003800E7
:101010000102390000003C0000003D0000002000FB
:10102000000021000000500000005100EF005200BD
:10103000000053003F01600000A7610003006A0048
:101040000000900010009200000093000300950043
:101050000011970000009800000007003301010014
:10106000B903FF8357FFFAB30400000606B6012553
:10107000B00168CC0105B10600151C1C83AAC0068E
:101080005050013C1E08B4070240002A2A0D783A4D
:1010900001553601C0350100440200021100FF96DF
:1010A0002900FF322E89298F2B02E200E401E5108E
:1010B000E601E710E870F200EA00EB20EC3CEDC836
:1010C000E938F1011B1A1A022461255C183619014E
:1010D0001F88FF051F80FF051F90FF051FD4FF0518
:1010E000170536092838FF28283C020003000400B1
:1010F00005EF060007000801093FB60811241FBECE
:10110000CFE5D8E0DEBFCDBF11E0A0E6B0E0E2E47D
:10111000F1E302C005900D92A436B107D9F711E0B2
:10112000A4E6B1E001C01D92A93DB107E1F710E1CD
:10113000CCEFD0E104C02297FE010E94A215CA3F65
:10114000D107C9F72CD00C949F180C940000CF93B2
:10115000C82F8A3011F48DE0FADF8C2F30D281E075
:1011600090E0CF9108952FD290E0089544E060E0A0
:101170008FEB91E00E947B1488E991E05BD543E01E
:1011800068E971E086E891E093D068E971E084E86D
:1011900091E001D16CE271E080E891E0A3C1FFD160
:1011A0009AD105D287EA98E090937B0180937A01E7
:1011B00010927D0110927C0182E080937501109263
:1011C0007F0110927E0110926D0110926C0183EBF1
:1011D00098E090936F0180936E0181E080936701A6
:1011E000109271011092700182E791E09093D60104
:1011F0008093D50184E691E09093D4018093D3014C
:1012000080E690E00E94C915D49ADC9A8FEB91E0B9
:101210000E94FD1486E891E096D060EF7FE088E9B7
:1012200091E00E943811BA9AC29A84E590E09F93A7
:101230008F930E94A615789486E891E063D00F9072
:101240000F9060E070E088E991E00E943811E12C95
:10125000F12C03E015E024E935E040E050E060E0E7
:1012600070E084E891E09BD02FEF87EA91E621506F
:1012700080409040E1F700C0000060E070E088E945
:1012800091E0F6D707E215E02DE630E040E050E0CF
:1012900060E070E084E891E082D02FEF87EA91E689
:1012A000215080409040E1F700C00000CACFFFCF3E
:1012B000EF92FF920F931F93CF93DF931F92CDB7BF
:1012C000DEB77C018B010296498326D1F701118399
:1012D0000083498146870F90DF91CF911F910F9135
:1012E000FF90EF900895DC018D919C91DC01ED91D0
:1012F000FC910484F585E02D60E070E0099413BE54
:10130000C398089513BEC39A0895FC0187858CBFC6
:1013100089E683BF0895CF93DF93FC0127852F3F94
:1013200079F0EC0181E0818B108A4AE050E060E0C6
:1013300070E0CF010296FED0CE01DF91CF91E5CFD4
:10134000DF91CF910895CF93DF93EC01BB9AD7DF64
:10135000888199817FD42FEF81EE94E021508040E5
:101360009040E1F700C0000061E473E98881998151
:101370000E94B012CE01B7DF6E85888199810E94EC
:101380001C128FE39CE90197F1F700C00000CE0129
:10139000DF91CF91C0CFFC017183608308957F926C
:1013A0008F929F92AF92BF92CF92DF92EF92FF9275
:1013B0000F931F93CF93DF9300D000D0CDB7DEB74C
:1013C0007C015901DC018D919C91D5D360E0F7013E
:1013D00080819181F5D361E0D7018D919C91E4D317
:1013E000C12CD12CC016D10608F05EC0F501EC0D61
:1013F000FD1D649161111DC0F6013196EA0DFB1DC2
:101400009490B2E0CB0ED11CF501EC0DFD1D749053
:10141000812C891409F444C0F70180819181DC0199
:10142000ED91FC910088F189E02D672D0995839459
:10143000F0CF6A30A9F4AE014F5F5F4FBE016D5F20
:101440007F4FF701808191819CD349815A81485F08
:101450005F4F60E070E0D7018D919C918CD320C0EC
:10146000613019F460E675E00DC0623039F460EC6B
:1014700077E0D7018D919C919DD312C0633031F4F8
:1014800060EE77E0F70180819181F6CFD7018D91F1
:101490009C91DC01ED91FC910088F189E02D09958A
:1014A000BFEFCB1ADB0A9ECF61E0F701808191810B
:1014B00087D30F900F900F900F90DF91CF911F91D6
:1014C0000F91FF90EF90DF90CF90BF90AF909F90E3
:1014D0008F907F9008958AB31ABA3E9A86B1876832
:1014E00086B90895FC01738362832AE030E031837A
:1014F0002083089521E0FC012083F8944091CF01DE
:101500005091D0016091D1017091D20178944283C1
:101510005383648375830895FC01108211821282C3
:101520001382148215821682178210861186138602
:1015300012860895FC01108282E081831282138258
:1015400014821582468357836087718713861286BB
:10155000CF01D0CF1F920F920FB60F9211248F930D
:101560009F93AF93BF938091CF019091D001A091B1
:10157000D101B091D2010196A11DB11D8093CF017F
:101580009093D001A093D101B093D201BF91AF91BC
:101590009F918F910F900FBE0F901F9018958AEF1B
:1015A00083BD89B7806889BF8CE085BD089559984F
:1015B0008AB188618AB987E689B910BC08955D9BB4
:1015C000FECF8CB908955F9BFECF8CB10895CF9369
:1015D000DF93EC018991882311F0F1DFFBCFDF91DC
:1015E000CF9108952F923F924F925F926F927F9288
:1015F0008F929F92AF92BF92CF92DF92EF92FF9223
:101600000F931F93CF93DF9300D01F92CDB7DEB718
:101610004C017B836A836A01590117019801241BDD
:10162000350B37FF03C0319521953109C5014A813A
:101630005B81841B950B97FF03C091958195910960
:1016400051E059838217930714F019820BC09A2D29
:101650008B2D5801092F182F9A818B81DB82CA822A
:10166000C92ED82E8A819B81A816B9065CF49C2DC0
:101670008D2D6801092F182F9A818B81BB82AA8238
:10168000A92EB82E2501AA81BB814A1A5B0A38010E
:101690006C187D0877FE03C0719461947108720123
:1016A00057FE03C0BFEFEB1AFB0AF594E794C01690
:1016B000D1061CF00FEF1FEF1FC001E010E01CC0AF
:1016C000E981D401EE23F1F0ED91FC910190F081DC
:1016D000E02D91014A815B81B601C4010995E618AC
:1016E000F708F7FE04C0C00ED11EE40CF51CEA8119
:1016F000FB813196FB83EA834A815B81A416B506A0
:10170000FCF60AC0ED91FC910190F081E02D910171
:10171000A6016A817B81E1CF0F900F900F90DF913E
:10172000CF911F910F91FF90EF90DF90CF90BF90DE
:10173000AF909F908F907F906F905F904F903F9071
:101740002F9008956F927F928F929F92AF92BF9247
:10175000CF92DF92EF92FF920F931F93CF93DF937D
:10176000EC014B015A0169013801E881F9810680D9
:10177000F781E02D87010995E881F981A501460DE2
:10178000571D415051090680F781E02D9601B401A3
:10179000CE010995E881F9810480F581E02D93015E
:1017A000A501B401CE010995E881F981C80CD91CC5
:1017B000B601615071090480F581E02D9301A50106
:1017C000CE010995DF91CF911F910F91FF90EF907E
:1017D000DF90CF90BF90AF909F908F907F906F9051
:1017E0000895EF92FF920F931F937801DC01ED9122
:1017F000FC91240F351F8901015011090280F381EA
:10180000E02D9B0109951F910F91FF90EF90089596
:10181000EF92FF920F931F93DC01ED91FC91260F45
:10182000371F215031090280F381E02D78018A01B0
:1018300009951F910F91FF90EF9008956F927F92FD
:101840008F929F92AF92BF92CF92DF92EF92FF92D0
:101850000F931F93CF93DF936C015A014801EB0163
:101860003B01620E731EC615D70574F4D601ED91C7
:10187000FC910480F581E02D87019401A501BE0152
:10188000C60109952196EFCFDF91CF911F910F915E
:10189000FF90EF90DF90CF90BF90AF909F908F9090
:1018A0007F906F900895EF92FF920F931F93DC014A
:1018B000ED91FC91119718960D911C911997169620
:1018C0002D913C9117970284F385E02D7B0140E038
:1018D00050E060E070E009951F910F91FF90EF904C
:1018E00008950895FC0186E990E0918380837383D5
:1018F0006283558344837783668351874087138A45
:10190000138612861586148681E0828B2FEF3FEFB7
:10191000318B208B37872687848B08952F923F92B7
:101920004F925F926F927F928F929F92AF92BF92EF
:10193000CF92DF92EF92FF920F931F93CF93DF939B
:10194000CDB7DEB72D970FB6F894DEBF0FBECDBF73
:10195000DC011696ED91FC9117976E177F070CF03E
:101960009EC01896ED91FC9119974E175F070CF0E9
:1019700096C08C2C912CFB01B6E0CB9EE00DF11DA6
:1019800011241E161F060CF08AC0F40133E0EE0F7E
:10199000FF1F3A95E1F7E40FF51F1E161F060CF026
:1019A0007EC0CF82FE82ED821C830B831A015C0114
:1019B000E5E02E9F900111247D876C873B011A8200
:1019C000A901461B570B59874887C10108969B8779
:1019D0008A879A81953049F0E885F985E60DF71DEB
:1019E000E956F54FA491A98301C019822101610133
:1019F000B981B0FF14C0EF81D501E13041F4ED9120
:101A0000FC910190F081E02D2B813C811AC0ED9179
:101A1000FC910284F385E02DEB80FC801CC0ED81FD
:101A2000FE812B813C81E217F307E1F03F81D50174
:101A3000ED91FC91313051F40190F081E02D2D8138
:101A40003E81A201B301C50109950CC00284F38552
:101A5000E02DED80FE8084019401A6016C857D85DA
:101A6000C5010995B981B695B983EFEF4E1A5E0AA3
:101A7000C80CD91C2A853B854216530609F0B8CFFD
:101A80003A813F5F3A834FEF641A740A8C859D85D3
:101A9000880D991D9D878C87363009F09ACF2D9639
:101AA0000FB6F894DEBF0FBECDBFDF91CF911F916F
:101AB0000F91FF90EF90DF90CF90BF90AF909F90ED
:101AC0008F907F906F905F904F903F902F900895F0
:101AD000CF92EF92FF920F931F93CF93DF93EC017E
:101AE0006A3059F42A898C859D8538E0239F800DC2
:101AF000911D11249D878C8734C06D30A1F1262F54
:101B0000E888F9880E851F854C855D856A857B850B
:101B1000CA8804DF4A89242F30E08A859B8556E0F5
:101B2000459F800D911D11249B878A874C894423F2
:101B3000D1F04AEF4203B001439F700D11244E8152
:101B40005F81460F571F481759076CF483E0220F37
:101B5000331F8A95E1F78C859D85280F391F3D87B6
:101B60002C871B861A86DF91CF911F910F91FF90D2
:101B7000EF90CF900895FC01738762875587448763
:101B800008956115710531F0FC0122853385FB0153
:101B9000318320834115510531F0FC018485958501
:101BA000FA01918380830895611101C061E0FC0115
:101BB000628B0895FC01718B608B7787668708952F
:101BC000FC01648B0895FC016370638B613049F004
:101BD000633039F0828193819783868384819581F4
:101BE00006C08481958197838683828193819187C2
:101BF00080870895FC01979A959A949A969A939A59
:101C000081B3886F81BB84B38FEF84BB138A138643
:101C100012861586148681E0828B8FEF9FEF97875F
:101C2000868780EF90E09783868380E491E09187B8
:101C300080870895CF93DF93EC0140E451E060EF9B
:101C400070E050DE81EC90E099838883CE01DF91D3
:101C5000CF91D0CF979A959A949A93988FE99FE0D5
:101C60000197F1F700C000008FE99FE00197F1F7BD
:101C700000C00000939A9798969815BA9598959AEF
:101C800083E09598959A8150E1F7979A08950F937C
:101C90001F9397989698FC018589823041F08111B5
:101CA00004C015BA9598959A04C0833011F48CE25B
:101CB00001C082E285BB9598959A969A75BB9598D6
:101CC000959A65BB9598959A89019A0101501109D9
:101CD00021093109D901C80126E0B695A795979544
:101CE00087952A95D1F776133DC00197A0F060E162
:101CF0009598959A9598959A9598959A9598959A74
:101D00009598959A9598959A9598959A9598959A63
:101D1000615071F7EACF202F2F73215028F095984A
:101D2000959A9598959AF9CF979A1F910F91089542
:101D300075BB9598959A65BB9598959A75BB95983E
:101D4000959A65BB9598959A75BB9598959A65BB3C
:101D50009598959A75BB9598959A65BB9598959A1F
:101D6000E15031F7019710F0E0E1E2CF202F2F731F
:101D70002150D0F275BB9598959A65BB9598959A28
:101D8000F7CF969865BB9598959A969A45BB959886
:101D9000959A0895969875BB9598959A65BB959870
:101DA000959A969A55BB9598959A45BB9598959A0C
:101DB0000895969865BB9598959A969A35BB95988F
:101DC000959A969845BB9598959A969A25BB95981D
:101DD000959A0895CF93DF93EC0197982E813F81D8
:101DE0002150310945E064E0E4DF28853985215040
:101DF000310949E068E0CE01DCDF979ADF91CF91AD
:101E000008959798969865BB9598959A969A85E3C4
:101E10008A95F1F70000852F9927AA27BB2785BB54
:101E20009598959A85E38A95F1F70000CA01AA274B
:101E3000BB2785BB9598959A85E38A95F1F70000B5
:101E4000BB27A52F942F832F85BB9598959A85E363
:101E50008A95F1F7000025BB9598959A979A089571
:101E60008F929F92AF92BF92CF92DF92EF92FF92AA
:101E70000F931F93CF93DF93EC017A016901979839
:101E80002D89211158C02B89223089F0233021F16E
:101E9000213081F52FEE30E0A901401B510B5B0191
:101EA00049018E189F08860164017B0113C02FEE43
:101EB00030E0A9014C195D096901C61AD70A8FE300
:101EC00091E09C01201B310B8C010E191F09580158
:101ED00046017901BA0110C02FE331E0A9014C1984
:101EE0005D095901A61AB70A470168018501B701C2
:101EF0007A0102C05A014B01AB0160E570E0CE01EE
:101F000049DFA60161E570E0CE0144DFA70162E58B
:101F100070E0CE013FDFA80163E570E0CE013ADF5B
:101F2000A40160E270E0CE0135DFA50161E270E05E
:101F3000CE0130DF45C02130A1F49B0143E062E0D7
:101F400038DF970147E066E0CE0133DF960145E0D8
:101F500064E0CE012EDF980149E068E0CE0129DF80
:101F60002FC02250223060F5CB01AA2797FDA09503
:101F7000BA2FDC0199278827A601662757FD6095AF
:101F8000762F9A01AB01282B392B4A2B5B2B6AE267
:101F9000CE0137DFC701AA2797FDA095BA2FDC0134
:101FA00099278827A801662757FD6095762F9A0103
:101FB000AB01282B392B4A2B5B2B6BE2CE0121DFA7
:101FC000979ADF91CF911F910F91FF90EF90DF9043
:101FD000CF90BF90AF909F908F900895CF92DF9257
:101FE000EF92FF920F931F93CF93DF93EC01680161
:101FF000121613060CF04BC057FD49C08885998511
:10200000481759070CF043C0EE81FF816E177F0718
:102010000CF03DC07B01E20EF31EC701019797FD56
:1020200036C077FF32C060E070E08E179F072CF05B
:10203000CF0101977F01E61AF70A8A019C01CE01C0
:102040000FDF9701442737FD4095542FB601CE018D
:102050001EDE8D8981110FC0088519850150110977
:102060002E813F812150310940E050E060E070E076
:10207000CE01F6DE0CC0CE01DF91CF911F910F9102
:10208000FF90EF90DF90CF90A5CE7901CECFDF917A
:10209000CF911F910F91FF90EF90DF90CF90089517
:1020A000CF92DF92EF92FF920F931F93CF93DF9324
:1020B000EC016801121613060CF04CC077FD4AC003
:1020C0008E819F81681779070CF044C0E885F985F7
:1020D0004E175F070CF03EC07A01E20EF31E870137
:1020E0000150110917FD36C057FF32C040E050E0E3
:1020F0000E171F0734F08F01015011097F01E41AF8
:10210000F50A9B01CE01ACDE9701442737FD4095CF
:10211000542FB601CE01BBDD8D8981110FC008851A
:102120001985015011092E813F812150310940E06C
:1021300050E060E070E0CE0193DE0CC0CE01DF9194
:10214000CF911F910F91FF90EF90DF90CF9042CEF3
:102150007901CECFDF91CF911F910F91FF90EF903A
:10216000DF90CF9008958F929F92AF92BF92CF92BF
:10217000DF92EF92FF920F931F93CF93DF93EC01C7
:102180004701121613060CF066C0101611060CF06B
:1021900062C0AE81BF816A177B070CF05CC0C88447
:1021A000D9844C155D050CF056C05B01A20EB31E20
:1021B000C501019797FD4FC07A01E00EF11EF701AE
:1021C0003197F7FD48C077FF44C060E070E057FDED
:1021D00002C0780102C040E050E08A179B072CF053
:1021E000CD0101975D01A61AB70AEC15FD052CF08B
:1021F000F60131977601E41AF50A8F019C01CE01B0
:102200002FDE9701D50181D49B01AC01B401CE0131
:102210003EDD8D8981110FC0088519850150110996
:102220002E813F812150310940E050E060E070E0B4
:10223000CE0116DE10C0CE01DF91CF911F910F911C
:10224000FF90EF90DF90CF90BF90AF909F908F90D6
:10225000C1CD5901BCCFDF91CF911F910F91FF905C
:10226000EF90DF90CF90BF90AF909F908F900895A8
:10227000EF92FF920F931F93CF93DF937C01EB01BB
:10228000FC018589811122C023892150233078F4F3
:1022900030E0F901E654FF4F8081482F50E0220FD3
:1022A000331FF901EC54FF4F0081118104C000E09D
:1022B00010E040E050E0979860E270E0C7016ADD0E
:1022C000A80161E270E0C70165DD12C08150833072
:1022D00078F4F701008511850150110926813781B5
:1022E0002150310940E050E060E070E0C701B8DD06
:1022F00020E03CE241E050E0BE01C701DF91CF9118
:102300001F910F91FF90EF90C2CCAF92BF92CF92EE
:10231000DF92EF92FF920F931F93CF93DF93EC0125
:102320007B016A01B22EA32E77FD7BC057FD79C0D9
:102330008E819F81681779070CF073C08885998515
:10234000481759070CF06DC097988D89811132C0DC
:102350008B89823059F08330B1F08130D1F48FEE27
:1023600090E0841B950B6B017C0113C08FEE90E015
:102370009C01261B370B79018FE391E09C01241B04
:10238000350B690106C08FE391E0861B970B7A013C
:102390006C01A70160E270E0CE01FCDCA60161E205
:1023A00070E0CE01F7DC4B2D5A2D62E270E0CE01D9
:1023B000F1DC36C08130D1F4EB89E150E33028F410
:1023C000F0E0EF54FF4F408101C040E066E1CE01F4
:1023D000D8DC970143E062E0CE01EBDC960147E0F8
:1023E00066E0CE01E6DC969882E210C08250823030
:1023F000B8F408851985015011092E813F812150BB
:102400003109CE012DDD979896988CE285BB959881
:10241000959A969AA5BA9598959AB5BA9598959AD7
:10242000979ADF91CF911F910F91FF90EF90DF90DE
:10243000CF90BF90AF900895EF92FF920F931F93AC
:10244000CF93DF93EC01BFDB97988D89811120C07A
:10245000EB89E150E33040F4F0E0EE0FFF1FE5556B
:10246000FF4F4081518102C040E350E163E070E0E2
:10247000CE0190DC08851985015011092E813F811C
:102480002150310940E050E060E070E0CE01E8DC2E
:102490008D89813079F4EB89E150E33028F4F0E064
:1024A000E855FF4F408101C040E066E1CE0169DCA4
:1024B000CE0190DC8D89823029F58B89813071F0D5
:1024C00050F0823029F0833059F458E2E52E08C0EC
:1024D00068E4E62E05C048E8E42E02C038EEE32E9C
:1024E0004E2D66E3CE014DDC08851985015011099A
:1024F0002E813F812150310940E050E060E070E0E2
:10250000CE01AEDC8D89833021F58B89813069F075
:1025100048F0823029F0833051F420E6F22E07C0D3
:10252000F12C05C090ECF92E02C080EAF82E4F2D58
:1025300066E3CE0126DC08851985015011092E813C
:102540003F812150310940E050E060E070E0CE0171
:1025500087DCDF91CF911F910F91FF90EF9008954D
:102560000F931F93CF93DF93EC018B0173DB80E01C
:1025700090E0EFE9FFE03197F1F700C0000001962D
:10258000883C9105B1F70532F3E91F0721F00832C5
:1025900023E9120771F51D8A979802E91FE0F801F7
:1025A00065917491F8013296459154916F3F710590
:1025B000A1F480E090E0DC0160E070E08417950712
:1025C000A607B70760F4EFE9FFE03197F1F700C025
:1025D00000000196A11DB11DF1CFCE01DBDB0C5F28
:1025E0001F4FF0E10E351F07D1F66B89CE0124DFB6
:1025F00061C0013423E9120709F067C082E08D8BC6
:10260000979840E061E0CE01BCDB80E090E0EFE92C
:10261000FFE03197F1F700C0000001968233910589
:10262000B1F740E068E2CE01ACDB43E260ECCE0102
:10263000A8DB40E161ECCE01A4DB4BE25BE265ECA0
:1026400070E0CE01A7DB40EC67ECCE019ADB48E8F6
:1026500066E3CE0196DB45E56AE3CE0192DB4BE112
:1026600050E061EB70E0CE0195DB47E067EBCE0117
:1026700088DB40E061E1CE0184DB80E090E0EFE9BF
:10268000FFE03197F1F700C000000196863991050F
:10269000B1F740E069E2CE0174DB80E090E0EFE961
:1026A000FFE03197F1F700C000000196843FF1E0B0
:1026B0009F07A9F70FE311E02FEE30E040E050E074
:1026C00060E070E0CE01CCDB80C0073523E8120764
:1026D00009F045C083E08D8B979890E0E92FF0E0FA
:1026E000E25AFF4E249132E0390FE1E0E90FF0E0C9
:1026F000E25AFF4E84912F3FB1F440E050E0BA011E
:1027000090E0A0E0B0E0481759076A077B0710F592
:10271000EFE9FFE03197F1F700C000004F5F5F4F36
:102720006F4F7F4FF0CF9798969825BB9598959AC5
:10273000969A980F9E5F232F291751F0E22FF0E011
:10274000E25AFF4EE491E5BB9598959A2F5FF4CF3E
:10275000380F979A363408F038C0932FBFCF05371B
:10276000154789F581E08D8B979804EA10E1F8010F
:102770006491319644916F3FA9F480E090E0DC01D0
:1027800050E060E070E084179507A607B70760F493
:10279000EFE9FFE03197F1F700C000000196A11DBD
:1027A000B11DF1CFCE01EDDA0E5F1F4FF0E10A3F10
:1027B0001F07E9F66B89CE013FDECE01DF91CF9195
:1027C0001F910F9107CB8FEF8D8BDF91CF911F91D1
:1027D0000F91089548B321E030E0662349F0B90134
:1027E00002C0660F771F8A95E2F7CB01842B09C0E0
:1027F000B90102C0660F771F8A95E2F7CB01809579
:10280000842388BB0895FC018181E4CFFC01808191
:10281000E1CF1F93CF93DF93EC01162F60E070E0C0
:10282000F2DF812F8F716CD18FEF6AD1182F61E0A9
:1028300070E0CE01E8DF812FDF91CF911F910895E5
:10284000FF920F931F93CF93DF931F92CDB7DEB705
:102850008C01F62E60E070E04983D5DF8F2D8F71FB
:1028600080624ED1F82E4981842F4AD161E070E018
:10287000C801C9DF8F2D0F90DF91CF911F910F916C
:10288000FF9008951F93CF93DF93EC0160E070E019
:10289000BADF82EE35D1182F61E070E0CE01B3DFF0
:1028A000812FDF91CF911F9108951F93CF93DF93D5
:1028B000EC0160E070E0A7DF81EE22D1182F61E02B
:1028C00070E0CE01A0DF812FDF91CF911F9108959D
:1028D0001F93CF93DF93EC0160E070E094DF8FEF04
:1028E0000FD1182F61E070E0CE018DDF812FDF91D5
:1028F000CF911F910895FC016083418381E0828321
:10290000138280E2848315821682108611861286D5
:10291000138614861586168617860895462F50E06E
:102920004038510514F04FE750E065E089CF0F9330
:102930001F93CF93DF938C01EB0166E06ADF482F92
:10294000497FC330D10561F0C230D10511F4446034
:1029500008C0C130D10511F4426003C0249709F4C6
:10296000466066E0C801DF91CF911F910F9168CF5B
:10297000EF92FF921F93CF93DF93EC017B0166E010
:1029800048DF1A82182F177D82E0E816F10411F44F
:10299000106206C0EA94EF2819F481E08A83186077
:1029A000412F66E0CE014CDF66E0CE0132DF8117B9
:1029B00019F01A8280E001C081E0DF91CF911F9170
:1029C000FF90EF9008950F931F93CF93DF93EC0147
:1029D0008B0160E01EDF482F437F0115110531F0A8
:1029E0000130110511F4486001C04C6060E0CE0177
:1029F000DF91CF911F910F9123CFCF93DF93EC0104
:102A000083ED90E00E94E70A47B381E090E09C01EB
:102A1000088002C0220F331F0A94E2F7242B27BB41
:102A200027B3098002C0880F991F0A94E2F7822B0E
:102A300087BB85EE90E00E94E70A59D082EF90E0D4
:102A40000E94E70A60E070E0CE01E0DE61E070E045
:102A5000CE01D9DE80E091E00E94E70A8FE19EE49A
:102A60000197F1F700C000008FE091E00E94E70AB3
:102A7000CE012EDF8EE191E00E94E70A4FE464E090
:102A8000CE01DEDE8BE291E00E94E70A63E070E0B7
:102A9000CE014DDF86E391E00E94E70A62E070E03C
:102AA000CE0166DF882311F081E08B8360E070E067
:102AB000CE015EDF62E070E0CE0185DF40E06CE1D8
:102AC000CE01BEDE40E767E0CE01BADE6CE4CE01A7
:102AD00025DF83E491E00E94E70ACE01D3DECE0138
:102AE000E4DE81E591E0DF91CF910C94E70ABE9896
:102AF00087B3806B87BB82E58DB98EB18EB908959F
:102B00008FB9779BFECF8FB1089505D0332312F490
:102B10008A1B9B0B10C0A29FB001B39FC001A39F53
:102B2000700D811D1124911DB29F700D811D112406
:102B3000911D0895F0DFB7FF0895821B930B089550
:102B4000EE0FFF1F0590F491E02D0994A0E0B0E096
:102B5000EBEAF5E1CBC2AE01495F5F4FDA016D915F
:102B60007D91AD0103ED11E0F80182819381DC01DB
:102B700013962C911397286013962C933AD0D80172
:102B80001296ED91FC9113972381277F2383E4E034
:102B9000C9C20F931F93CF93DF93E091D501F091BA
:102BA000D601238121FF1BC08C01D0E0C0E0F801D9
:102BB00081918F016091D5017091D601DB0118964A
:102BC000ED91FC911997882331F00995892B79F3C0
:102BD000DFEFCFEFECCF8AE00995892B19F08FEF6B
:102BE0009FEF02C08D2F9C2FDF91CF911F910F91EE
:102BF0000895ACE0B0E0EEEFF5E16AC27C016B0154
:102C00008A01FC0117821682838181FFB0C1CE0147
:102C100001964C01F7019381F60193FD859193FF95
:102C200081916F01882309F49EC1853239F493FDA7
:102C3000859193FF81916F01853221F4B70190E076
:102C4000B1D1E8CF512C312C20E02032A0F48B32CE
:102C500069F030F4803259F0833269F420612CC07D
:102C60008D3239F0803339F4216026C0226024602F
:102C700023C0286021C027FD27C030ED380F3A302F
:102C800078F426FF06C0FAE05F9E300D1124532E23
:102C900013C08AE0389E300D1124332E20620CC000
:102CA0008E3221F426FD5FC1206406C08C3611F4FB
:102CB000206802C0883641F4F60193FD859193FFA8
:102CC00081916F018111C1CF982F9F7D95549330D1
:102CD00028F40C5F1F4FFFE3F9830DC0833631F0FA
:102CE000833771F0833509F057C021C0F801808126
:102CF00089830E5F1F4F44244394512C540114C008
:102D00003801F2E06F0E711CF801A080B18026FF3F
:102D100003C0652D70E002C06FEF7FEFC5012C8707
:102D200036D12C0183012C852F77222E16C0380135
:102D3000F2E06F0E711CF801A080B18026FF03C085
:102D4000652D70E002C06FEF7FEFC5012C8714D1B5
:102D50002C012C852068222E830123FC19C0832D91
:102D600090E048165906A0F4B70180E290E01AD12D
:102D70003A94F5CFF50127FC859127FE81915F01FB
:102D8000B70190E00FD131103A94F1E04F1A510899
:102D90004114510479F7DEC0843611F0893631F5DB
:102DA000F80127FF07C060817181828193810C5FE8
:102DB0001F4F08C060817181882777FD8095982F0B
:102DC0000E5F1F4F2F76722E97FF09C0909580954A
:102DD000709561957F4F8F4F9F4F2068722E2AE02C
:102DE00030E0A40117D1A82EA81843C0853729F4D4
:102DF0002F7EB22E2AE030E025C0F22FF97FBF2EC1
:102E00008F36C1F018F4883579F0ADC0803719F0ED
:102E1000883721F0A8C02F2F2061B22EB4FE0DC03C
:102E20008B2D8460B82E09C024FF0AC09F2F9660A6
:102E3000B92E06C028E030E005C020E130E002C035
:102E400020E132E0F801B7FE07C060817181828124
:102E500093810C5F1F4F06C06081718180E090E01C
:102E60000E5F1F4FA401D6D0A82EA818FB2DFF7708
:102E70007F2E76FE0BC0372D3E7FA51450F474FED6
:102E80000AC072FC08C0372D3E7E05C0BA2C372D13
:102E900003C0BA2C01C0B52C34FF0DC0FE01EA0DF1
:102EA000F11D8081803311F4397E09C032FF06C0E4
:102EB000B394B39404C0832F867809F0B39433FDA0
:102EC00012C030FF06C05A2CB31418F4530C5B1810
:102ED000B32CB31460F4B70180E290E03C8762D079
:102EE000B3943C85F6CFB31410F43B1801C0312CD9
:102EF00034FF11C0B70180E390E03C8753D03C859C
:102F000032FF16C031FD03C088E790E002C088E5BB
:102F100090E0B7010CC0832F867851F031FF02C0DA
:102F20008BE201C080E237FD8DE2B70190E03AD03C
:102F3000A51430F4B70180E390E034D05A94F8CF70
:102F4000AA94F401EA0DF11D8081B70190E02AD026
:102F5000A110F6CF332009F45DCEB70180E290E0F6
:102F600021D03A94F7CFF7018681978102C08FEF85
:102F70009FEF2C96E2E1C8C0FC01059061507040C3
:102F80000110D8F7809590958E0F9F1F0895FC0132
:102F90006150704001900110D8F7809590958E0F88
:102FA0009F1F08950F931F93CF93DF93FB012381FE
:102FB00021FD03C08FEF9FEF28C022FF16C046817E
:102FC0005781248135814217530744F4A081B18190
:102FD0009D012F5F3F4F318320838C932681378162
:102FE0002F5F3F4F3783268310C0EB01092F182F27
:102FF0000084F185E02D0995892BE1F68E819F8172
:1030000001969F838E83812F902FDF91CF911F9107
:103010000F910895FA01AA27283051F1203181F14A
:10302000E8946F936E7F6E5F7F4F8F4F9F4FAF4FD0
:10303000B1E03ED0B4E03CD0670F781F891F9A1FE3
:10304000A11D680F791F8A1F911DA11D6A0F711D97
:10305000811D911DA11D20D009F468943F912AE0A3
:10306000269F11243019305D3193DEF6CF0108958B
:10307000462F4770405D4193B3E00FD0C9F7F6CFBC
:10308000462F4F70405D4A3318F0495D31FD405284
:10309000419302D0A9F7EACFB4E0A695979587951A
:1030A00077956795BA95C9F70097610571050895F9
:1030B0009B01AC010A2E06945795479537952795A5
:1030C000BA95C9F7620F731F841F951FA01D08953D
:1030D0002F923F924F925F926F927F928F929F9228
:1030E000AF92BF92CF92DF92EF92FF920F931F9316
:1030F000CF93DF93CDB7DEB7CA1BDB0B0FB6F894C7
:10310000DEBF0FBECDBF09942A88398848885F8406
:103110006E847D848C849B84AA84B984C884DF8077
:10312000EE80FD800C811B81AA81B981CE0FD11D5B
:103130000FB6F894DEBF0FBECDBFED010895F89431
:02314000FFCFBF
:103142005B575D6972656C657373205B485D6F6D7B
:1031520065205B435D6F6E74726F6C205B535D79AB
:103162007374656D20426173652053746174696F75
:103172006E00000000005709F20AF10B080CA20BC6
:103182001E0C530C710C680D60C0A02810001018A2
:103192001060C0A000003F013F01EFEF00000000FF
:1031A200008511F20A5010EE0FA20BB31038117104
:1031B2000C680D656E746572696E67206265676979
:1031C2006E2E0A0D00536574204F75747075740A63
:1031D2000D00496E6974746564205350490A0D00EC
:1031E200536574204C4F5726484947480A0D0044FE
:1031F200656C617965642035206D730A0D00476F37
:1032020074207374617475730A0D00476F742073B0
:1032120074617475730053657450414C6576656CC6
:103222000A0D00736574206368616E6E656C0A0D29
:1032320000666C7573686564206275666665727394
:043242002E0A0D0043
:00000001FF
