:100000005CC3000081C300007FC300007DC300000B
:100010007BC3000079C3000077C3000075C30000F4
:1000200073C3000071C300006FC300006DC3000004
:100030006BC3000069C3000067C3000065C3000014
:1000400063C3000061C300005FC300005DC3000024
:100050005BC3000000000000003E5B4F5B3E3E6B58
:100060004F6B3E1C3E7C3E1C183C7E3C181C577D52
:10007000571C1C5E7F5E1C00183C1800FFE7C3E79E
:10008000FF0018241800FFE7DBE7FF30483A060EB0
:100090002629792926407F050507407F05253F5AF7
:1000A0003CE73C5A7F3E1C1C08081C1C3E7F142267
:1000B0007F22145F5F005F5F06097F017F00668912
:1000C000956A606060606094A2FFA29408047E0458
:1000D0000810207E201008082A1C08081C2A08087E
:1000E0001E101010100C1E0C1E0C30383E3830063E
:1000F0000E3E0E06000000000000005F000000073A
:10010000000700147F147F14242A7F2A1223130867
:10011000646236495620500008070300001C224143
:10012000000041221C002A1C7F1C2A08083E0808E7
:100130000080703000080808080800006060002097
:10014000100804023E5149453E00427F400072497A
:100150004949462141494D331814127F102745451E
:1001600045393C4A49493141211109073649494934
:1001700036464949291E00001400000040340000A2
:10018000000814224114141414140041221408020B
:10019000015909063E415D594E7C1211127C7F497E
:1001A0004949363E414141227F4141413E7F4949D3
:1001B00049417F090909013E414151737F080808FF
:1001C0007F00417F41002040413F017F08142241D0
:1001D0007F404040407F021C027F7F0408107F3E2A
:1001E0004141413E7F090909063E4151215E7F0997
:1001F000192946264949493203017F01033F4040FE
:10020000403F1F2040201F3F4038403F63140814E8
:100210006303047804036159494D43007F41414120
:100220000204081020004141417F04020102044001
:1002300040404040000307080020545478407F2885
:100240004444383844444428384444287F3854547B
:10025000541800087E090218A4A49C787F0804049E
:100260007800447D40002040403D007F102844003D
:1002700000417F40007C047804787C0804047838CE
:1002800044444438FC1824241818242418FC7C08FE
:10029000040408485454542404043F44243C40407B
:1002A000207C1C2040201C3C4030403C442810282E
:1002B000444C9090907C4464544C44000836410077
:1002C0000000770000004136080002010204023CF1
:1002D0002623263C1EA1A161123A4040207A3854C0
:1002E0005455592155557941225454784221555439
:1002F000784020545579400C1E527212395555558C
:1003000059395454545939555454580000457C4176
:100310000002457D420001457C407D1211127DF0B6
:10032000282528F07C545545002054547C547C0AE0
:10033000097F4932494949323A4444443A324A48A9
:1003400048303A4141217A3A42402078009DA0A0AD
:100350007D3D4242423D3D4040403D3C24FF2424FF
:10036000487E4943662B2FFC2F2BFF0929F620C01E
:10037000887E090320545479410000447D4130486F
:10038000484A32384040227A007A0A0A727D0D19B2
:10039000317D2629292F28262929292630484D4014
:1003A00020380808080808080808382F10C8ACBA10
:1003B0002F102834FA00007B000008142A1422228F
:1003C000142A1408AA005500AAAA55AA55AA000082
:1003D00000FF00101010FF00141414FF001010FF95
:1003E00000FF1010F010F0141414FC001414F700A7
:1003F000FF0000FF00FF1414F404FC141417101F76
:1004000010101F101F1414141F00101010F0000003
:1004100000001F101010101F10101010F01000001E
:1004200000FF101010101010101010FF100000002E
:10043000FF140000FF00FF00001F10170000FC0465
:10044000F414141710171414F404F40000FF00F748
:1004500014141414141414F700F7141414171410AB
:10046000101F101F141414F4141010F010F00000DA
:100470001F101F0000001F14000000FC140000F0FB
:1004800010F01010FF10FF141414FF141010101FA0
:1004900000000000F010FFFFFFFFFFF0F0F0F0F0B1
:1004A000FFFFFF0000000000FFFF0F0F0F0F0F38CE
:1004B00044443844FC4A4A4A347E02020606027E1C
:1004C000027E0263554941633844443C04407E2027
:1004D0001E2006027E020299A5E7A5991C2A492A38
:1004E0001C4C7201724C304A4D4D303048784830C7
:1004F000BC625A463D3E494949007E0101017E2ABF
:100500002A2A2A2A44445F444440514A44404044F1
:100510004A51400000FF0103E080FF000008086B23
:100520006B083612362436060F090F06000018181D
:100530000000001010003040FF0101001F01011EEB
:1005400000191D1712003C3C3C3C0000000000005C
:10055000000100FF0032000100000102000007035B
:100560000030100400000008000202090000000A28
:100570000000000C0000000D0000000F0000001043
:10058000000000110007001200000013000000FF2F
:1005900000C8001000901611002702FF0032001260
:1005A000001A00FF0032001300001829002A00FF83
:1005B0000032003000000031000000320000003541
:1005C000000602360008083700070038000102392B
:1005D0000000003C0000003D000000200000002161
:1005E000000000500000005100EF005200000053D6
:1005F000003F01600000A7610003006A0000009056
:100600000010009200000093000300950000119775
:1006100000000098000000070033010100B903FF4B
:100620008357FFFAB30400000606B60125B001683F
:10063000CC0105B10600151C1C83AAC00650500150
:100640003C1E08B4070240002A2A0D783A015536AC
:1006500001C0350100440200021100FF962900FF8D
:10066000322E89298F2B02E200E401E510E601E732
:1006700010E870F200EA00EB20EC3CEDC8E938F13C
:10068000011B1A1A022461255C183619011F88FF04
:10069000051F80FF051F90FF051FD4FF05170536B6
:1006A000092838FF28283C02000300040005EF0653
:1006B0000007000801093F00940311241FBECFE585
:1006C000D8E0DEBFCDBF11E0A0E6B0E0E0EDFFE195
:1006D00002C005900D92AE30B107D9F711E0AEE03F
:1006E000B1E001C01D92A634B107E1F716E0CAEBF4
:1006F000D6E004C02297FE010E944A0EC83BD107F3
:10070000C9F720D00C94E60F7BCC80E090E00895F0
:10071000CF93C82F8A3011F48DE0FADF8C2F42D1AD
:1007200081E090E0CF91089585E191E051D443E0DC
:1007300065E171E082E191E022D06CE271E08EE04F
:1007400091E061C059D026D160E070E088E893E084
:100750000E944E0E65E873E080E090E00E944E0E2D
:10076000D49ADC9A82E191E01FD060E070E085E1EC
:1007700091E0B9D785E191E0BFD0FFCFFFCFFC0179
:100780007183608342830895DC018D919C91DC012B
:10079000ED91FC910484F585E02D60E070E0099412
:1007A000C3980895C39A0895CF93DF93EC01BB9A41
:1007B000F7DF8881998120D42FEF81EE94E02150DA
:1007C00080409040E1F700C0000061E473E9888157
:1007D00099810E94EA0CCE01D7DF6A8188819981D4
:1007E0000E94560C8FE39CE90197F1F700C00000CE
:1007F000CE01DF91CF91D6CF8AB31ABA3E9A86B195
:10080000876886B90895FC01738362832AE030E02B
:100810003183208308954F925F926F927F928F92DF
:100820009F92AF92BF92CF92EF92FF920F931F933E
:10083000CF93DF935C014B013A01412C512CC22F25
:10084000D0E04C165D0644F582E0C82EE12CF12C78
:1008500000EF1FE02FE5A301B401C50143D22FEF44
:100860008DE292E2215080409040E1F700C000000C
:1008700000E010E02FE5A301B401C50133D22FEF52
:100880008DE292E2215080409040E1F700C00000EC
:100890002FEF421A520AD5CFDF91CF911F910F91BE
:1008A000FF90EF90CF90BF90AF909F908F907F90F0
:1008B0006F905F904F9008950F931F93CF93DF93A6
:1008C0008C01EB016991662391F0D801ED91FC91C7
:1008D0000088F189E02DC8010995BFEF2DEE82E077
:1008E000B15020408040E1F700C00000EBCFDF9125
:1008F000CF911F910F910895CF92DF92EF92FF92C7
:100900000F931F93CF93DF93EC0160EF7FE023D32E
:1009100062E0CE011AD344E150E064E170E0CE0120
:100920000ED306E610E084E1F82E9CE0E92E680183
:10093000F801608171816115710519F1CE01BCDF8B
:100940000E5F1F4FF601A081B181FD0101900020D3
:10095000E9F73197EA1BFB0B4F2D50E0EE9EB001FB
:10096000EF9E700D11246A5E7F4F22E0CE0153DFAF
:10097000F4E1FF0E4F2D50E064E170E0CE01DFD2D4
:10098000D6CFDF91CF911F910F91FF90EF90DF9025
:10099000CF90089559988AB188618AB988E089B959
:1009A00010BC08955D9BFECF8CB908952F923F92A5
:1009B0004F925F926F927F928F929F92AF92BF926F
:1009C000CF92DF92EF92FF920F931F93CF93DF931B
:1009D00000D01F92CDB7DEB74C017B836A836A01DA
:1009E000590117019801241B350B37FF03C03195BE
:1009F00021953109C5014A815B81841B950B97FFC5
:100A000003C091958195910951E05983821793070D
:100A100014F019820BC09A2D8B2D5801092F182F15
:100A20009A818B81DB82CA82C92ED82E8A819B81D2
:100A3000A816B9065CF49C2D8D2D6801092F182F7E
:100A40009A818B81BB82AA82A92EB82E2501AA8108
:100A5000BB814A1A5B0A38016C187D0877FE03C017
:100A6000719461947108720157FE03C0BFEFEB1AD5
:100A7000FB0AF594E794C016D1061CF00FEF1FEFA8
:100A80001FC001E010E01CC0E981D401EE23F1F0A9
:100A9000ED91FC910190F081E02D91014A815B8103
:100AA000B601C4010995E618F708F7FE04C0C00EA8
:100AB000D11EE40CF51CEA81FB813196FB83EA83AD
:100AC0004A815B81A416B506FCF60AC0ED91FC9143
:100AD0000190F081E02D9101A6016A817B81E1CF37
:100AE0000F900F900F90DF91CF911F910F91FF907A
:100AF000EF90DF90CF90BF90AF909F908F907F90BE
:100B00006F905F904F903F902F9008956F927F92DB
:100B10008F929F92AF92BF92CF92DF92EF92FF920D
:100B20000F931F93CF93DF93EC014B015A0169019F
:100B30003801E881F9810680F781E02D8701099568
:100B4000E881F981A501460D571D415051090680E4
:100B5000F781E02D9601B401CE010995E881F98174
:100B60000480F581E02D9301A501B401CE01099522
:100B7000E881F981C80CD91CB60161507109048063
:100B8000F581E02D9301A501CE010995DF91CF916B
:100B90001F910F91FF90EF90DF90CF90BF90AF909B
:100BA0009F908F907F906F900895EF92FF920F9398
:100BB0001F937801DC01ED91FC91240F351F890111
:100BC000015011090280F381E02D9B0109951F91CD
:100BD0000F91FF90EF900895EF92FF920F931F9364
:100BE000DC01ED91FC91260F371F21503109028065
:100BF000F381E02D78018A0109951F910F91FF90F3
:100C0000EF9008956F927F928F929F92AF92BF92D2
:100C1000CF92DF92EF92FF920F931F93CF93DF93C8
:100C20006C015A014801EB013B01620E731EC615AF
:100C3000D70574F4D601ED91FC910480F581E02D87
:100C400087019401A501BE01C60109952196EFCF48
:100C5000DF91CF911F910F91FF90EF90DF90CF9098
:100C6000BF90AF909F908F907F906F900895EF927C
:100C7000FF920F931F93DC01ED91FC911197189651
:100C80000D911C91199716962D913C9117970284FE
:100C9000F385E02D7B0140E050E060E070E00995D5
:100CA0001F910F91FF90EF9008950895FC0181ED41
:100CB00090E0918380837383628355834483778339
:100CC000668351874087138A138612861586148699
:100CD00081E0828B2FEF3FEF318B208B3787268788
:100CE000848B08952F923F924F925F926F927F92E2
:100CF0008F929F92AF92BF92CF92DF92EF92FF922C
:100D00000F931F93CF93DF93CDB7DEB72D970FB619
:100D1000F894DEBF0FBECDBFDC011696ED91FC91BD
:100D200017976E177F070CF09EC01896ED91FC91F7
:100D300019974E175F070CF096C08C2C912CFB0175
:100D4000B6E0CB9EE00DF11D11241E161F060CF01F
:100D50008AC0F40133E0EE0FFF1F3A95E1F7E40F8C
:100D6000F51F1E161F060CF07EC0CF82FE82ED829C
:100D70001C830B831A015C01E5E02E9F9001112476
:100D80007D876C873B011A82A901461B570B598747
:100D90004887C10108969B878A879A81953049F0D8
:100DA000E885F985E60DF71DEC5AFF4FA491A9835C
:100DB00001C0198221016101B981B0FF14C0EF8126
:100DC000D501E13041F4ED91FC910190F081E02DED
:100DD0002B813C811AC0ED91FC910284F385E02DBA
:100DE000EB80FC801CC0ED81FE812B813C81E217F1
:100DF000F307E1F03F81D501ED91FC91313051F4E1
:100E00000190F081E02D2D813E81A201B301C50149
:100E100009950CC00284F385E02DED80FE808401ED
:100E20009401A6016C857D85C5010995B981B695AA
:100E3000B983EFEF4E1A5E0AC80CD91C2A853B8590
:100E40004216530609F0B8CF3A813F5F3A834FEF1D
:100E5000641A740A8C859D85880D991D9D878C87E1
:100E6000363009F09ACF2D960FB6F894DEBF0FBE3C
:100E7000CDBFDF91CF911F910F91FF90EF90DF9049
:100E8000CF90BF90AF909F908F907F906F905F902A
:100E90004F903F902F900895CF92EF92FF920F9333
:100EA0001F93CF93DF93EC016A3059F42A898C8524
:100EB0009D8538E0239F800D911D11249D878C878F
:100EC00034C06D30A1F1262FE888F9880E851F8582
:100ED0004C855D856A857B85CA8804DF4A89242F15
:100EE00030E08A859B8556E0459F800D911D112439
:100EF0009B878A874C894423D1F04AEF4203B00193
:100F0000439F700D11244E815F81460F571F481774
:100F100059076CF483E0220F331F8A95E1F78C8523
:100F20009D85280F391F3D872C871B861A86DF91E8
:100F3000CF911F910F91FF90EF90CF900895FC01FA
:100F400073876287558744870895611101C061E006
:100F5000FC01628B0895FC01718B608B778766873B
:100F60000895FC016370638B613049F0633039F0A0
:100F700082819381978386838481958106C0848151
:100F80009581978386838281938191878087089555
:100F9000FC01979A959A949A969A939A81B3886F3E
:100FA00081BB84B38FEF84BB138A138612861586A8
:100FB000148681E0828B8FEF9FEF9787868780EF83
:100FC00090E09783868380E491E0918780870895FD
:100FD000CF93DF93EC0140E451E060EF70E066DE18
:100FE0008CEF90E099838883CE01DF91CF91D0CFB1
:100FF00065BB9598959A0895979A959A949A93981F
:10100000EFE9FFE03197F1F700C00000EFE9FFE002
:101010003197F1F700C00000939A9798969860E096
:10102000E7DF83E09598959A8150E1F7979A0895C4
:101030006F927F928F929F92AF92BF92CF92DF92E8
:10104000EF92FF920F931F93CF93DF931F92CDB731
:10105000DEB73C01162F072F69017A019798969801
:10106000FC018589823011F46CE209C0811104C051
:1010700060E0C301BDDF02C08330B1F362E2C301AF
:10108000B7DF969A602FC301B3DF612FC301B0DFD2
:1010900046015701F1E08F1A9108A108B108D50166
:1010A000C40126E0B695A795979587952A95D1F71F
:1010B000BC010117A1F07C014FC09598959A9598B5
:1010C000959A9598959A9598959A9598959A9598B0
:1010D000959A9598959A9598959A815071F761503F
:1010E000710910F080E1E9CF282D2F73215028F0ED
:1010F0009598959A9598959AF9CF979A0F90DF9130
:10110000CF911F910F91FF90EF90DF90CF90BF9004
:10111000AF909F908F907F906F900895602FC30144
:1011200067DF612FC30164DF602FC30161DF612FBF
:10113000C3015EDF602FC3015BDF612FC30158DF96
:10114000602FC30155DF612FC30152DFDA94D11044
:10115000E5CFE1E0EE1AF108E114F10419F080E1C5
:10116000D82EDCCF282D2F73215008F4C6CF602F46
:10117000C30129833DDF612FC3013ADF2981F4CF09
:101180000F931F93CF93DF931F92CDB7DEB78C01E0
:10119000969849832DDF969A4981642FC8010F9054
:1011A000DF91CF911F910F9123CFEF92FF921F9369
:1011B000CF93DF9300D0CDB7DEB77C01162F672F1A
:1011C00096984A83598314DF612FC70111DF969ADD
:1011D0005981652FC7010CDF4A81642FC7010F9029
:1011E0000F90DF91CF911F91FF90EF9001CF0F9360
:1011F0001F93CF93DF9300D01F92CDB7DEB78C0142
:1012000096982B8339834A83F3DE969A3981632F2C
:10121000C801EEDE96984A81642FC801E9DE969AED
:101220002B81622FC8010F900F900F90DF91CF910B
:101230001F910F91DDCECF93DF93EC0197982E8114
:101240003F812150310945E064E0D1DF28853985AF
:101250002150310949E068E0CE01C9DF979ADF915A
:10126000CF910895CF92DF92EF92FF92CF93DF93C9
:10127000EC0169017A0197989698BADE969A85E30F
:101280008A95F1F700006F2D772788279927CE01DF
:10129000AFDE85E38A95F1F70000B701882799272B
:1012A000CE01A6DE85E38A95F1F7000099278F2D00
:1012B0007E2D6D2DCE019CDE85E38A95F1F7000031
:1012C0006C2DCE0195DE979ADF91CF91FF90EF9034
:1012D000DF90CF9008958F929F92AF92BF92CF925E
:1012E000DF92EF92FF920F931F93CF93DF93EC0166
:1012F0007A01690197982D89211158C02B892230D4
:1013000089F0233021F1213081F52FEE30E0A90161
:10131000401B510B5B0149018E189F088601640137
:101320007B0113C02FEE30E0A9014C195D09690162
:10133000C61AD70A8FE391E09C01201B310B8C0168
:101340000E191F09580146017901BA0110C02FE397
:1013500031E0A9014C195D095901A61AB70A4701E4
:1013600068018501B7017A0102C05A014B01AB0146
:1013700060E570E0CE0119DFA60161E570E0CE0105
:1013800014DFA70162E570E0CE010FDFA80163E57D
:1013900070E0CE010ADFA40160E270E0CE0105DF5B
:1013A000A50161E270E0CE0100DF45C02130A1F46B
:1013B0009B0143E062E01BDF970147E066E0CE015E
:1013C00016DF960145E064E0CE0111DF980149E0A7
:1013D00068E0CE010CDF2FC02250223060F5CB0137
:1013E000AA2797FDA095BA2FDC0199278827A60187
:1013F000662757FD6095762F9A01AB01282B392B74
:101400004A2B5B2B6AE2CE012DDFC701AA2797FD8D
:10141000A095BA2FDC0199278827A801662757FDD8
:101420006095762F9A01AB01282B392B4A2B5B2B29
:101430006BE2CE0117DF979ADF91CF911F910F9149
:10144000FF90EF90DF90CF90BF90AF909F908F90E4
:101450000895CF92DF92EF92FF920F931F93CF9355
:10146000DF93EC016801121613060CF04BC057FD18
:1014700049C088859985481759070CF043C0EE810B
:10148000FF816E177F070CF03DC07B01E20EF31E5B
:10149000C701019797FD36C077FF32C060E070E06A
:1014A0008E179F072CF0CF0101977F01E61AF70AEC
:1014B0008A019C01CE010FDF9701442737FD40953B
:1014C000542FB601CE01B4DD8D8981110FC008857E
:1014D0001985015011092E813F812150310940E0C9
:1014E00050E060E070E0CE01F6DE0CC0CE01DF918E
:1014F000CF911F910F91FF90EF90DF90CF909BCEF7
:101500007901CECFDF91CF911F910F91FF90EF9096
:10151000DF90CF900895CF92DF92EF92FF920F93DA
:101520001F93CF93DF93EC016801121613060CF0A2
:101530004CC077FD4AC08E819F81681779070CF0F7
:1015400044C0E885F9854E175F070CF03EC07A016C
:10155000E20EF31E87010150110917FD36C057FF37
:1015600032C040E050E00E171F0734F08F010150E9
:1015700011097F01E41AF50A9B01CE01ACDE970147
:10158000442737FD4095542FB601CE0151DD8D899A
:1015900081110FC008851985015011092E813F81E5
:1015A0002150310940E050E060E070E0CE0193DE70
:1015B0000CC0CE01DF91CF911F910F91FF90EF9062
:1015C000DF90CF9038CE7901CECFDF91CF911F91B0
:1015D0000F91FF90EF90DF90CF9008958F929F92A0
:1015E000AF92BF92CF92DF92EF92FF920F931F9331
:1015F000CF93DF93EC014701121613060CF066C07F
:10160000101611060CF062C0AE81BF816A177B070D
:101610000CF05CC0C884D9844C155D050CF056C034
:101620005B01A20EB31EC501019797FD4FC07A0161
:10163000E00EF11EF7013197F7FD48C077FF44C077
:1016400060E070E057FD02C0780102C040E050E069
:101650008A179B072CF0CD0101975D01A61AB70AE6
:10166000EC15FD052CF0F60131977601E41AF50A28
:101670008F019C01CE012FDE9701D501EED29B0197
:10168000AC01B401CE01D4DC8D8981110FC0088575
:101690001985015011092E813F812150310940E007
:1016A00050E060E070E0CE0116DE10C0CE01DF91A8
:1016B000CF911F910F91FF90EF90DF90CF90BF904F
:1016C000AF909F908F90B7CD5901BCCFDF91CF9154
:1016D0001F910F91FF90EF90DF90CF90BF90AF9050
:1016E0009F908F900895EF92FF920F931F93CF9347
:1016F000DF937C01EB01FC018589811122C02389E4
:101700002150233078F430E0F901EB50FF4F808115
:10171000482F50E0220F331FF901E151FF4F0081A4
:10172000118104C000E010E040E050E0979860E2D2
:1017300070E0C7013ADDA80161E270E0C70135DD64
:1017400012C08150833078F4F70100851185015073
:101750001109268137812150310940E050E060E0D5
:1017600070E0C701B8DD20E03CE241E050E0BE019E
:10177000C701DF91CF911F910F91FF90EF9058CC4F
:10178000AF92BF92CF92DF92EF92FF920F931F938F
:10179000CF93DF93EC017B016A01B22EA32E77FD7C
:1017A0007AC057FD78C08E819F81681779070CF049
:1017B00072C088859985481759070CF06CC09798B6
:1017C0008D89811132C08B89823059F08330B1F01C
:1017D0008130D1F48FEE90E0841B950B6B017C017E
:1017E00013C08FEE90E09C01261B370B79018FE32D
:1017F00091E09C01241B350B690106C08FE391E049
:10180000861B970B7A016C01A70160E270E0CE01A4
:10181000CCDCA60161E270E0CE01C7DC4B2D5A2D75
:1018200062E270E0CE01C1DC35C08130D1F4EB89D9
:10183000E150E33028F4F0E0E451FF4F408101C073
:1018400040E066E1CE019CDC970143E062E0CE011E
:10185000CEDC960147E066E0CE01C9DC969862E2F4
:1018600010C082508230B0F40885198501501109EA
:101870002E813F8121503109CE012DDD9798969818
:101880006CE2CE01B5DB969A6A2DCE01B1DB6B2DF1
:10189000CE01AEDB979ADF91CF911F910F91FF9010
:1018A000EF90DF90CF90BF90AF900895EF92FF92AE
:1018B0000F931F93CF93DF93EC0153DB97988D89A0
:1018C000811120C0EB89E150E33040F4F0E0EE0FED
:1018D000FF1FEA51FF4F4081518102C040E350E1B8
:1018E00063E070E0CE0161DC0885198501501109C3
:1018F0002E813F812150310940E050E060E070E0EE
:10190000CE01E9DC8D89813079F4EB89E150E33057
:1019100028F4F0E0ED51FF4F408101C040E066E166
:10192000CE012EDCCE0187DC8D89823029F58B89B2
:10193000813071F050F0823029F0833059F458E250
:10194000E52E08C068E4E62E05C048E8E42E02C093
:1019500038EEE32E4E2D66E3CE0112DC08851985A4
:10196000015011092E813F812150310940E050E0A2
:1019700060E070E0CE01AFDC8D89833021F58B898A
:10198000813069F048F0823029F0833051F420E64C
:10199000F22E07C0F12C05C090ECF92E02C080EAAF
:1019A000F82E4F2D66E3CE01EBDB0885198501503B
:1019B00011092E813F812150310940E050E060E063
:1019C00070E0CE0188DCDF91CF911F910F91FF90E5
:1019D000EF900895EF92FF920F931F93CF93DF93B1
:1019E000EC018B0109DB80E090E0EFE9FFE031974B
:1019F000F1F700C000000196883C9105B1F705326F
:101A0000F3E91F0721F0083223E9120771F51D8A57
:101A100097980FE415E0F80165917491F8013296FA
:101A2000459154916F3F7105A1F480E090E0DC0195
:101A300060E070E084179507A607B70760F4EFE948
:101A4000FFE03197F1F700C000000196A11DB11D24
:101A5000F1CFCE01AADB0C5F1F4FF6E00B311F0761
:101A6000D1F66B89CE0122DF61C0013423E9120770
:101A700009F067C082E08D8B979840E061E0CE016D
:101A80007FDB80E090E0EFE9FFE03197F1F700C005
:101A90000000019682339105B1F740E068E2CE0183
:101AA0006FDB43E260ECCE016BDB40E161ECCE0129
:101AB00067DB4BE25BE265EC70E0CE0176DB40EC8D
:101AC00067ECCE015DDB48E866E3CE0159DB45E516
:101AD0006AE3CE0155DB4BE150E061EB70E0CE01F3
:101AE00064DB47E067EBCE014BDB40E061E1CE0118
:101AF00047DB80E090E0EFE9FFE03197F1F700C0CD
:101B00000000019686399105B1F740E069E2CE0107
:101B100037DB80E090E0EFE9FFE03197F1F700C0BC
:101B200000000196843FF1E09F07A9F70FE311E061
:101B30002FEE30E040E050E060E070E0CE01CBDB23
:101B400085C0073523E8120709F048C083E08D8B74
:101B5000979800E0E02FF0E0E55EF94F649182E0B5
:101B6000F82EF00EE1E0E00FF0E0E55EF94F1491A1
:101B70006F3FB9F440E050E0BA01812F90E0A0E05F
:101B8000B0E0481759076A077B0710F5EFE9FFE057
:101B90003197F1F700C000004F5F5F4F6F4F7F4FED
:101BA000F0CF97989698CE0123DA969A010F0E5FA0
:101BB000EF2DE01759F0EE24E394EE0EF0E0E55E31
:101BC000F94F6491CE0114DAEE2DF3CFF10E979A0E
:101BD000F5E4FF1508F43AC00F2DBCCF05371547C3
:101BE00099F581E08D8B979801E616E0F8016491F4
:101BF000319644916F3FA9F480E090E0DC0150E021
:101C000060E070E084179507A607B70760F4EFE976
:101C1000FFE03197F1F700C000000196A11DB11D52
:101C2000F1CFCE01ADDA0E5F1F4FF6E0073B1F0785
:101C3000E9F66B89CE013ADECE01DF91CF911F919B
:101C40000F91FF90EF90F7CA8FEF8D8BDF91CF91BF
:101C50001F910F91FF90EF90089505D0332312F458
:101C60008A1B9B0B10C0A29FB001B39FC001A39F12
:101C7000700D811D1124911DB29F700D811D1124C5
:101C8000911D0895F0DFB7FF0895821B930B08950F
:101C9000EE0FFF1F0590F491E02D09940F931F9311
:101CA000CF93DF93009731F46115710519F480E04B
:101CB00090E039C08B01EC016EE070E081E090E0D3
:101CC00037D0FC01009799F380E883830115110553
:101CD00071F01387028781E8838380913C019091A2
:101CE0003D01892B21F4F0933D01E0933C012097C5
:101CF000C9F0D187C08783818260838380913E0150
:101D000090913F01892B71F4F0933F01E0933E01E4
:101D10008091400190914101892B21F4F093410180
:101D2000E0934001CF01DF91CF911F910F91089572
:101D30000F931F93CF93DF93869F8001879F100D92
:101D4000969F100D1124C8010DD0EC01009721F0D1
:101D5000A80160E070E033D1CE01DF91CF911F91F7
:101D60000F910895CF93DF938230910510F482E0B4
:101D700090E0E0914401F091450120E030E0C0E0C6
:101D8000D0E0309711F14081518148175907C0F0D8
:101D90004817590761F482819381209719F09B833A
:101DA0008A832BC0909345018093440126C021155E
:101DB000310519F04217530718F49A01BE01DF01EB
:101DC000EF010280F381E02DDCCF2115310509F10F
:101DD000281B390B2430310590F412968D919C917B
:101DE00013976115710521F0FB019383828304C071
:101DF0009093450180934401FD01329644C0FD015A
:101E0000E20FF31F81939193225031092D933C935C
:101E10003AC02091420130914301232B41F420919B
:101E2000620030916300309343012093420120917E
:101E30006000309161002115310541F42DB73EB7A6
:101E40004091640050916500241B350BE0914201E4
:101E5000F0914301E217F307A0F42E1B3F0B281764
:101E6000390778F0AC014E5F5F4F2417350748F013
:101E70004E0F5F1F50934301409342018193919312
:101E800002C0E0E0F0E0CF01DF91CF9108950F9321
:101E90001F93CF93DF93009709F48CC0FC01329716
:101EA0001382128200914401109145010115110520
:101EB00081F420813181820F931F20914201309162
:101EC00043012817390779F5F0934301E093420164
:101ED00071C0D80140E050E0AE17BF0750F4129631
:101EE0002D913C911397AD012115310509F1D901CF
:101EF000F3CF9D01DA013383228360817181860FE4
:101F0000971F8217930769F4EC0128813981260F06
:101F1000371F2E5F3F4F318320838A819B819383BC
:101F20008283452B29F4F0934501E093440142C09C
:101F30001396FC93EE931297ED01499159919E01EE
:101F4000240F351FE217F30771F480819181840F0C
:101F5000951F029611969C938E938281938113967E
:101F60009C938E931297E0E0F0E0D80112968D9149
:101F70009C911397009719F0F8018C01F6CF8D9181
:101F80009C9198012E5F3F4F820F931F2091420139
:101F9000309143012817390769F4309729F41092DA
:101FA00045011092440102C0138212821093430132
:101FB00000934201DF91CF911F910F910895DC01B1
:101FC00001C06D9341505040E0F70895F894FFCF61
:101FD00000004601200072007F009000A200B700C0
:101FE000000057484353206C6F6164696E67004975
:101FF0006E697469616C697A696E67204E52460039
:102000004272696E67696E672075702048432D3093
:10201000350053656564696E67204145532D32353F
:10202000362050524E47005374617274696E6720B7
:102030006D61696E206C6F6F702E2E2E0000000097
:1020400000BE03D604D505EC058605020637065505
:10205000064C0760C0A028100010181060C0A00037
:10206000003F013F01EFEF0000000000C00BD6046D
:0E2070008B0A290A8605EE0A730B55064C07EB
:00000001FF
