:1000000068C300008DC300008BC3000089C30000DB
:10001000EFC4000085C3000083C3000081C300005B
:100020007FC300007DC300007BC3000079C30000D4
:1000300077C3000075C3000073C3000071C30000E4
:100040006FC300006DC300006BC3000069C30000F4
:1000500067C3000057484353206D61696E206C6F81
:100060006F70207374617274696E670A000000001B
:1000700000003E5B4F5B3E3E6B4F6B3E1C3E7C3E4A
:100080001C183C7E3C181C577D571C1C5E7F5E1C58
:1000900000183C1800FFE7C3E7FF0018241800FF12
:1000A000E7DBE7FF30483A060E2629792926407F0C
:1000B000050507407F05253F5A3CE73C5A7F3E1C1B
:1000C0001C08081C1C3E7F14227F22145F5F005F07
:1000D0005F06097F017F006689956A6060606060E5
:1000E00094A2FFA29408047E040810207E20100829
:1000F000082A1C08081C2A08081E101010100C1EC4
:100100000C1E0C30383E3830060E3E0E0600000045
:10011000000000005F00000007000700147F147F4C
:1001200014242A7F2A122313086462364956205069
:100130000008070300001C2241000041221C002A85
:100140001C7F1C2A08083E08080080703000080840
:10015000080808000060600020100804023E5149B1
:10016000453E00427F400072494949462141494D80
:10017000331814127F1027454545393C4A49493107
:1001800041211109073649494936464949291E0086
:100190000014000000403400000008142241141430
:1001A000141414004122140802015909063E415D4D
:1001B000594E7C1211127C7F494949363E414141DA
:1001C000227F4141413E7F494949417F0909090157
:1001D0003E414151737F0808087F00417F41002064
:1001E00040413F017F081422417F404040407F0250
:1001F0001C027F7F0408107F3E4141413E7F090978
:1002000009063E4151215E7F09192946264949497F
:100210003203017F01033F4040403F1F2040201F29
:100220003F4038403F6314081463030478040361BB
:1002300059494D43007F41414102040810200041CB
:1002400041417F0402010204404040404000030756
:10025000080020545478407F2844443838444444AB
:1002600028384444287F385454541800087E090222
:1002700018A4A49C787F0804047800447D400020E2
:1002800040403D007F1028440000417F40007C0436
:100290007804787C080404783844444438FC1824F2
:1002A000241818242418FC7C0804040848545454C6
:1002B0002404043F44243C4040207C1C2040201C5B
:1002C0003C4030403C44281028444C9090907C4462
:1002D00064544C440008364100000077000000419F
:1002E00036080002010204023C2623263C1EA1A17E
:1002F00061123A4040207A38545455592155557965
:100300004122545478422155547840205455794024
:100310000C1E527212395555555939545454593985
:10032000555454580000457C410002457D4200016F
:10033000457C407D1211127DF0282528F07C545513
:1003400045002054547C547C0A097F49324949496C
:10035000323A4444443A324A4848303A4141217A98
:100360003A42402078009DA0A07D3D4242423D3D62
:100370004040403D3C24FF2424487E4943662B2FC7
:10038000FC2F2BFF0929F620C0887E090320545436
:1003900079410000447D413048484A32384040228B
:1003A0007A007A0A0A727D0D19317D2629292F28B3
:1003B000262929292630484D4020380808080808F1
:1003C000080808382F10C8ACBA2F102834FA0000DB
:1003D0007B000008142A142222142A1408AA0055AB
:1003E00000AAAA55AA55AA000000FF00101010FF8D
:1003F00000141414FF001010FF00FF1010F010F094
:10040000141414FC001414F700FF0000FF00FF1484
:1004100014F404FC141417101F10101F101F1414D0
:10042000141F00101010F0000000001F101010101A
:100430001F10101010F010000000FF10101010100E
:1004400010101010FF10000000FF140000FF00FF4C
:1004500000001F10170000FC04F4141417101714E8
:1004600014F404F40000FF00F7141414141414140A
:10047000F700F7141414171410101F101F1414147D
:10048000F4141010F010F000001F101F0000001FE7
:1004900014000000FC140000F010F01010FF10FF1A
:1004A000141414FF141010101F00000000F010FFAF
:1004B000FFFFFFFFF0F0F0F0F0FFFFFF0000000093
:1004C00000FFFF0F0F0F0F0F3844443844FC4A4A17
:1004D0004A347E02020606027E027E0263554941CC
:1004E000633844443C04407E201E2006027E020203
:1004F00099A5E7A5991C2A492A1C4C7201724C3017
:100500004A4D4D303048784830BC625A463D3E49ED
:100510004949007E0101017E2A2A2A2A2A44445F91
:10052000444440514A444040444A51400000FF0185
:1005300003E080FF000008086B6B08361236243693
:10054000060F090F060000181800000010100030F8
:1005500040FF0101001F01011E00191D1712003C80
:100560003C3C3C000000000000000100FF003200A5
:100570000100000102000007030030100400000029
:1005800008000202090000000A0000000C00000040
:100590000D0000000F000000100000001100070017
:1005A0001200000013000000FF00C80010009016A9
:1005B00011002702FF00320012001A00FF00320073
:1005C0001300001829002A00FF003200300000004C
:1005D0003100000032000000350006023600080835
:1005E0003700070038000102390000003C0000001D
:1005F0003D0000002000000021000000500000002D
:100600005100EF005200000053003F01600000A7BE
:10061000610003006A0000009000100092000000DA
:10062000930003009500001197000000980000005F
:10063000070033010100B903FF8357FFFAB3040039
:10064000000606B60125B00168CC0105B10600150B
:100650001C1C83AAC0065050013C1E08B40702406F
:10066000002A2A0D783A01553601C03501004402AE
:1006700000021100FF962900FF322E89298F2B02DC
:10068000E200E401E510E601E710E870F200EA009C
:10069000EB20EC3CEDC8E938F1011B1A1A02246189
:1006A000255C183619011F88FF051F80FF051F9064
:1006B000FF051FD4FF05170536092838FF28283CF9
:1006C00002000300040005EF060007000801093FCF
:1006D000A00311241FBECFE5D8E0DEBFCDBF11E0DF
:1006E000A0E6B0E0E4E3F9E202C005900D92A43682
:1006F000B107D9F711E0A4E6B1E001C01D92A73D12
:10070000B107E1F716E0C2EDD6E004C02297FE0182
:100710000E945D11C03DD107C9F726D00C949814F2
:100720006FCCCF93C82F8A3011F48DE0FADF8C2F75
:1007300094D181E090E0CF91089593D190E0089515
:1007400044E060E08DEB91E00E944C0F86E991E07F
:1007500097D443E066E971E084E891E098D06CE2D8
:1007600071E080E891E00CC1CF93DF931F92CDB789
:10077000DEB763D1FED069D181E993E090937B012C
:1007800080937A0110927D0110927C0182E0809327
:10079000750110927F0110927E0110926D011092EE
:1007A0006C018DE993E090936F0180936E0181E07D
:1007B00080936701109271011092700182E791E0BD
:1007C0009093D4018093D30184E691E09093D20179
:1007D0008093D10180E690E00E94C211D49ADC9A05
:1007E0008DEB91E00E94B81084E891E09BD060EF1F
:1007F0007FE086E991E062D7BA9AC29A84E590E0F8
:100800009F938F930E949F11789460E070E086E937
:1008100091E054D784E891E064D08DEB91E00E94A0
:10082000680F05EE10EF20EF38EE48EE50E060E084
:1008300070E08DEB91E00E9416100F900F90A12CAC
:10084000B12C8091D1019091D2010E9461118983D4
:1008500041E0BE016F5F7F4F8DEB91E00E94E00FA2
:1008600082E0C82EE12CF12C00EF1FE0298144E644
:1008700050E0B50186E991E09FD28CE0A80EB11C52
:100880008DE2A81681E0B806E4F2D9CFFFCFEF924F
:10089000FF920F931F93CF93DF931F92CDB7DEB7D5
:1008A0007C018B010296498385D0F7011183008377
:1008B000498146870F90DF91CF911F910F91FF9053
:1008C000EF900895DC018D919C91DC01ED91FC91FC
:1008D0000484F585E02D60E070E0099413BEC398B0
:1008E000089513BEC39A0895FC0187858CBF89E6DD
:1008F00083BF0895CF93DF93FC0127852F3F79F0C5
:10090000EC0181E0818B108A4AE050E060E070E009
:10091000CF0102965DD0CE01DF91CF91E5CFDF917F
:10092000CF910895CF93DF93EC01BB9AD7DF8881F5
:100930009981B6D32FEF81EE94E021508040904012
:10094000E1F700C0000061E473E9888199810E94A9
:10095000D60CCE01B7DF6E858881998193D78FE35E
:100960009CE90197F1F700C00000CE01DF91CF9123
:10097000C1CF8AB31ABA3E9A86B1876886B90895FC
:10098000FC01738362832AE030E031832083089581
:1009900021E0FC012083F8944091CD015091CE01DB
:1009A0006091CF017091D001789442835383648326
:1009B00075830895FC0110821182128213821482C1
:1009C0001582168217821086118613861286089564
:1009D000FC01108282E081831282138214821582CC
:1009E000468357836087718713861286CF01D0CFE5
:1009F0001F920F920FB60F9211248F939F93AF9374
:100A0000BF938091CD019091CE01A091CF01B09183
:100A1000D0010196A11DB11D8093CD019093CE010F
:100A2000A093CF01B093D001BF91AF919F918F91CF
:100A30000F900FBE0F901F9018958AEF83BD89B756
:100A4000806889BF8CE085BD089559988AB1886116
:100A50008AB987E689B910BC08955D9BFECF8CB931
:100A600008955F9BFECF8CB10895CF93DF93EC0187
:100A70008991882311F0F1DFFBCFDF91CF910895A9
:100A80002F923F924F925F926F927F928F929F929E
:100A9000AF92BF92CF92DF92EF92FF920F931F938C
:100AA000CF93DF9300D01F92CDB7DEB74C017B838D
:100AB0006A836A01590117019801241B350B37FF1E
:100AC00003C0319521953109C5014A815B81841BA1
:100AD000950B97FF03C091958195910951E059833A
:100AE0008217930714F019820BC09A2D8B2D580191
:100AF000092F182F9A818B81DB82CA82C92ED82EAA
:100B00008A819B81A816B9065CF49C2D8D2D680105
:100B1000092F182F9A818B81BB82AA82A92EB82E09
:100B20002501AA81BB814A1A5B0A38016C187D082D
:100B300077FE03C0719461947108720157FE03C07F
:100B4000BFEFEB1AFB0AF594E794C016D1061CF030
:100B50000FEF1FEF1FC001E010E01CC0E981D401BE
:100B6000EE23F1F0ED91FC910190F081E02D9101E7
:100B70004A815B81B601C4010995E618F708F7FEC2
:100B800004C0C00ED11EE40CF51CEA81FB81319635
:100B9000FB83EA834A815B81A416B506FCF60AC092
:100BA000ED91FC910190F081E02D9101A6016A8107
:100BB0007B81E1CF0F900F900F90DF91CF911F912C
:100BC0000F91FF90EF90DF90CF90BF90AF909F90EC
:100BD0008F907F906F905F904F903F902F900895EF
:100BE0006F927F928F929F92AF92BF92CF92DF923D
:100BF000EF92FF920F931F93CF93DF93EC014B0182
:100C00005A0169013801E881F9810680F781E02DF8
:100C100087010995E881F981A501460D571D4150CD
:100C200051090680F781E02D9601B401CE010995A6
:100C3000E881F9810480F581E02D9301A501B401DB
:100C4000CE010995E881F981C80CD91CB601615023
:100C500071090480F581E02D9301A501CE0109956C
:100C6000DF91CF911F910F91FF90EF90DF90CF9088
:100C7000BF90AF909F908F907F906F900895EF926C
:100C8000FF920F931F937801DC01ED91FC91240FEB
:100C9000351F8901015011090280F381E02D9B016C
:100CA00009951F910F91FF90EF900895EF92FF9299
:100CB0000F931F93DC01ED91FC91260F371F2150FC
:100CC00031090280F381E02D78018A0109951F9195
:100CD0000F91FF90EF9008956F927F928F929F9265
:100CE000AF92BF92CF92DF92EF92FF920F931F933A
:100CF000CF93DF936C015A014801EB013B01620E77
:100D0000731EC615D70574F4D601ED91FC910480CD
:100D1000F581E02D87019401A501BE01C601099569
:100D20002196EFCFDF91CF911F910F91FF90EF9020
:100D3000DF90CF90BF90AF909F908F907F906F90FB
:100D40000895EF92FF920F931F93DC01ED91FC91B8
:100D5000119718960D911C91199716962D913C910B
:100D600017970284F385E02D7B0140E050E060E0BE
:100D700070E009951F910F91FF90EF9008950895ED
:100D8000FC0186E990E091838083738362835583BD
:100D900044837783668351874087138A138612863C
:100DA0001586148681E0828B2FEF3FEF318B208BED
:100DB00037872687848B08952F923F924F925F92B8
:100DC0006F927F928F929F92AF92BF92CF92DF925B
:100DD000EF92FF920F931F93CF93DF93CDB7DEB7C0
:100DE0002D970FB6F894DEBF0FBECDBFDC0116966F
:100DF000ED91FC9117976E177F070CF09EC0189627
:100E0000ED91FC9119974E175F070CF096C08C2C52
:100E1000912CFB01B6E0CB9EE00DF11D11241E16B6
:100E20001F060CF08AC0F40133E0EE0FFF1F3A9565
:100E3000E1F7E40FF51F1E161F060CF07EC0CF82EF
:100E4000FE82ED821C830B831A015C01E5E02E9F7C
:100E5000900111247D876C873B011A82A901461BF2
:100E6000570B59874887C10108969B878A879A81C3
:100E7000953049F0E885F985E60DF71DE359FF4FF8
:100E8000A491A98301C0198221016101B981B0FF38
:100E900014C0EF81D501E13041F4ED91FC91019056
:100EA000F081E02D2B813C811AC0ED91FC910284F0
:100EB000F385E02DEB80FC801CC0ED81FE812B8151
:100EC0003C81E217F307E1F03F81D501ED91FC9100
:100ED000313051F40190F081E02D2D813E81A2014D
:100EE000B301C50109950CC00284F385E02DED80A6
:100EF000FE8084019401A6016C857D85C50109955C
:100F0000B981B695B983EFEF4E1A5E0AC80CD91CA9
:100F10002A853B854216530609F0B8CF3A813F5FD8
:100F20003A834FEF641A740A8C859D85880D991D4C
:100F30009D878C87363009F09ACF2D960FB6F8949E
:100F4000DEBF0FBECDBFDF91CF911F910F91FF90FC
:100F5000EF90DF90CF90BF90AF909F908F907F9059
:100F60006F905F904F903F902F900895CF92EF92A7
:100F7000FF920F931F93CF93DF93EC016A3059F4E4
:100F80002A898C859D8538E0239F800D911D112431
:100F90009D878C8734C06D30A1F1262FE888F988B1
:100FA0000E851F854C855D856A857B85CA8804DF33
:100FB0004A89242F30E08A859B8556E0459F800D25
:100FC000911D11249B878A874C894423D1F04AEFD5
:100FD0004203B001439F700D11244E815F81460F83
:100FE000571F481759076CF483E0220F331F8A9567
:100FF000E1F78C859D85280F391F3D872C871B863F
:101000001A86DF91CF911F910F91FF90EF90CF90B3
:101010000895FC016370638B613049F0633039F0EF
:1010200082819381978386838481958106C08481A0
:1010300095819783868382819381918780870895A4
:10104000FC01979A959A949A969A939A81B3886F8D
:1010500081BB84B38FEF84BB138A138612861586F7
:10106000148681E0828B8FEF9FEF9787868780EFD2
:1010700090E09783868380E491E09187808708954C
:10108000CF93DF93EC0140E451E060EF70E078DE55
:1010900081EC90E099838883CE01DF91CF91D0CF0E
:1010A000979A959A949A93988FE99FE00197F1F710
:1010B00000C000008FE99FE00197F1F700C0000039
:1010C000939A9798969815BA9598959A83E09598DB
:1010D000959A8150E1F7979A08950F931F939798E7
:1010E0009698FC018589823041F0811104C015BABF
:1010F0009598959A04C0833011F48CE201C082E285
:1011000085BB9598959A969A75BB9598959A65BB67
:101110009598959A89019A0101501109210931097F
:10112000D901C80126E0B695A795979587952A9588
:10113000D1F776133DC00197A0F060E19598959A9C
:101140009598959A9598959A9598959A9598959A2F
:101150009598959A9598959A9598959A615071F762
:10116000EACF202F2F73215028F09598959A9598C3
:10117000959AF9CF979A1F910F91089575BB9598FD
:10118000959A65BB9598959A75BB9598959A65BB08
:101190009598959A75BB9598959A65BB9598959AEB
:1011A00075BB9598959A65BB9598959AE15031F7DE
:1011B000019710F0E0E1E2CF202F2F732150D0F201
:1011C00075BB9598959A65BB9598959AF7CF969823
:1011D00065BB9598959A969A45BB9598959A08956A
:1011E000969875BB9598959A65BB9598959A969A99
:1011F00055BB9598959A45BB9598959A089596985C
:1012000065BB9598959A969A35BB9598959A9698B8
:1012100045BB9598959A969A25BB9598959A089569
:10122000CF93DF93EC0197982E813F8121503109B4
:1012300045E064E0E4DF288539852150310949E043
:1012400068E0CE01DCDF979ADF91CF9108959798FF
:10125000969865BB9598959A969A85E38A95F1F745
:101260000000852F9927AA27BB2785BB9598959ABB
:1012700085E38A95F1F70000CA01AA27BB2785BB41
:101280009598959A85E38A95F1F70000BB27A52FDD
:10129000942F832F85BB9598959A85E38A95F1F7CE
:1012A000000025BB9598959A979A08958F929F92E2
:1012B000AF92BF92CF92DF92EF92FF920F931F9364
:1012C000CF93DF93EC017A01690197982D89211161
:1012D00058C02B89223089F0233021F1213081F54B
:1012E0002FEE30E0A901401B510B5B0149018E1824
:1012F0009F08860164017B0113C02FEE30E0A90135
:101300004C195D096901C61AD70A8FE391E09C0167
:10131000201B310B8C010E191F0958014601790160
:10132000BA0110C02FE331E0A9014C195D09590140
:10133000A61AB70A470168018501B7017A0102C000
:101340005A014B01AB0160E570E0CE0149DFA60117
:1013500061E570E0CE0144DFA70162E570E0CE01F7
:101360003FDFA80163E570E0CE013ADFA40160E24F
:1013700070E0CE0135DFA50161E270E0CE0130DF23
:1013800045C02130A1F49B0143E062E038DF9701C2
:1013900047E066E0CE0133DF960145E064E0CE0130
:1013A0002EDF980149E068E0CE0129DF2FC02250EE
:1013B000223060F5CB01AA2797FDA095BA2FDC015A
:1013C00099278827A601662757FD6095762F9A01F1
:1013D000AB01282B392B4A2B5B2B6AE2CE0137DF7E
:1013E000C701AA2797FDA095BA2FDC019927882766
:1013F000A801662757FD6095762F9A01AB01282B2F
:10140000392B4A2B5B2B6BE2CE0121DF979ADF91C0
:10141000CF911F910F91FF90EF90DF90CF90BF90F1
:10142000AF909F908F900895CF92DF92EF92FF92AE
:101430000F931F93CF93DF93EC01680112161306ED
:101440000CF04BC057FD49C088859985481759074E
:101450000CF043C0EE81FF816E177F070CF03DC09A
:101460007B01E20EF31EC701019797FD36C077FF9F
:1014700032C060E070E08E179F072CF0CF0101971B
:101480007F01E61AF70A8A019C01CE010FDF97015E
:10149000442737FD4095542FB601CE011EDE8D89BD
:1014A00081110FC008851985015011092E813F81D6
:1014B0002150310940E050E060E070E0CE01F6DEFE
:1014C0000CC0CE01DF91CF911F910F91FF90EF9053
:1014D000DF90CF90A5CE7901CECFDF91CF911F9134
:1014E0000F91FF90EF90DF90CF900895CF92DF9211
:1014F000EF92FF920F931F93CF93DF93EC0168015C
:10150000121613060CF04CC077FD4AC08E819F81E5
:10151000681779070CF044C0E885F9854E175F0716
:101520000CF03EC07A01E20EF31E87010150110952
:1015300017FD36C057FF32C040E050E00E171F07BE
:1015400034F08F01015011097F01E41AF50A9B0163
:10155000CE01ACDE9701442737FD4095542FB601EC
:10156000CE01BBDD8D8981110FC008851985015021
:1015700011092E813F812150310940E050E060E0A7
:1015800070E0CE0193DE0CC0CE01DF91CF911F91B0
:101590000F91FF90EF90DF90CF9042CE7901CECFA8
:1015A000DF91CF911F910F91FF90EF90DF90CF903F
:1015B00008958F929F92AF92BF92CF92DF92EF9257
:1015C000FF920F931F93CF93DF93EC014701121605
:1015D00013060CF066C0101611060CF062C0AE8146
:1015E000BF816A177B070CF05CC0C884D9844C1596
:1015F0005D050CF056C05B01A20EB31EC50101973C
:1016000097FD4FC07A01E00EF11EF7013197F7FD0B
:1016100048C077FF44C060E070E057FD02C0780129
:1016200002C040E050E08A179B072CF0CD010197E3
:101630005D01A61AB70AEC15FD052CF0F6013197ED
:101640007601E41AF50A8F019C01CE012FDE970185
:10165000D50116D69B01AC01B401CE013EDD8D89CA
:1016600081110FC008851985015011092E813F8114
:101670002150310940E050E060E070E0CE0116DE1C
:1016800010C0CE01DF91CF911F910F91FF90EF908D
:10169000DF90CF90BF90AF909F908F90C1CD5901B8
:1016A000BCCFDF91CF911F910F91FF90EF90DF9012
:1016B000CF90BF90AF909F908F900895EF92FF9240
:1016C0000F931F93CF93DF937C01EB01FC0185897E
:1016D000811122C023892150233078F430E0F901B0
:1016E000E654FF4F8081482F50E0220F331FF9014D
:1016F000EC54FF4F0081118104C000E010E040E095
:1017000050E0979860E270E0C7016ADDA80161E2ED
:1017100070E0C70165DD12C08150833078F4F701B5
:101720000085118501501109268137812150310929
:1017300040E050E060E070E0C701B8DD20E03CE24E
:1017400041E050E0BE01C701DF91CF911F910F91A1
:10175000FF90EF90C2CCAF92BF92CF92DF92EF9208
:10176000FF920F931F93CF93DF93EC017B016A01EC
:10177000B22EA32E77FD7BC057FD79C08E819F814D
:10178000681779070CF073C0888599854817590741
:101790000CF06DC097988D89811132C08B89823091
:1017A00059F08330B1F08130D1F48FEE90E0841B9A
:1017B000950B6B017C0113C08FEE90E09C01261B02
:1017C000370B79018FE391E09C01241B350B6901F4
:1017D00006C08FE391E0861B970B7A016C01A7018D
:1017E00060E270E0CE01FCDCA60161E270E0CE01B7
:1017F000F7DC4B2D5A2D62E270E0CE01F1DC36C0F1
:101800008130D1F4EB89E150E33028F4F0E0EF547B
:10181000FF4F408101C040E066E1CE01D8DC970176
:1018200043E062E0CE01EBDC960147E066E0CE01EA
:10183000E6DC969882E210C082508230B8F40885C7
:101840001985015011092E813F8121503109CE01A6
:101850002DDD979896988CE285BB9598959A969AE7
:10186000A5BA9598959AB5BA9598959A979ADF9151
:10187000CF911F910F91FF90EF90DF90CF90BF908D
:10188000AF900895EF92FF920F931F93CF93DF9342
:10189000EC01BFDB97988D89811120C0EB89E15065
:1018A000E33040F4F0E0EE0FFF1FE555FF4F4081BD
:1018B000518102C040E350E163E070E0CE0190DC72
:1018C00008851985015011092E813F812150310968
:1018D00040E050E060E070E0CE01E8DC8D898130CE
:1018E00079F4EB89E150E33028F4F0E0E855FF4F5C
:1018F000408101C040E066E1CE0169DCCE0190DCB0
:101900008D89823029F58B89813071F050F08230D9
:1019100029F0833059F458E2E52E08C068E4E62E39
:1019200005C048E8E42E02C038EEE32E4E2D66E3F3
:10193000CE014DDC08851985015011092E813F81AA
:101940002150310940E050E060E070E0CE01AEDCB3
:101950008D89833021F58B89813069F048F08230A0
:1019600029F0833051F420E6F22E07C0F12C05C097
:1019700090ECF92E02C080EAF82E4F2D66E3CE01DE
:1019800026DC08851985015011092E813F812150DF
:10199000310940E050E060E070E0CE0187DCDF918B
:1019A000CF911F910F91FF90EF9008950F931F9388
:1019B000CF93DF93EC018B0173DB80E090E0EFE9E4
:1019C000FFE03197F1F700C000000196883C9105D7
:1019D000B1F70532F3E91F0721F0083223E91207B6
:1019E00071F51D8A979808E615E0F80165917491E4
:1019F000F8013296459154916F3F7105A1F480E052
:101A000090E0DC0160E070E084179507A607B70757
:101A100060F4EFE9FFE03197F1F700C000000196B4
:101A2000A11DB11DF1CFCE01DBDB0C5F1F4FF6E036
:101A300004331F07D1F66B89CE0124DF61C0013466
:101A400023E9120709F067C082E08D8B979840E088
:101A500061E0CE01BCDB80E090E0EFE9FFE0319790
:101A6000F1F700C00000019682339105B1F740E024
:101A700068E2CE01ACDB43E260ECCE01A8DB40E1E2
:101A800061ECCE01A4DB4BE25BE265EC70E0CE01E1
:101A9000A7DB40EC67ECCE019ADB48E866E3CE01B9
:101AA00096DB45E56AE3CE0192DB4BE150E061EB6A
:101AB00070E0CE0195DB47E067EBCE0188DB40E0CC
:101AC00061E1CE0184DB80E090E0EFE9FFE0319757
:101AD000F1F700C00000019686399105B1F740E0AA
:101AE00069E2CE0174DB80E090E0EFE9FFE031973E
:101AF000F1F700C000000196843FF1E09F07A9F7CD
:101B00000FE311E02FEE30E040E050E060E070E0E5
:101B1000CE01CCDB80C0073523E8120709F045C0B1
:101B200083E08D8B979890E0E92FF0E0EC5CF94F23
:101B3000249132E0390FE1E0E90FF0E0EC5CF94F7D
:101B400084912F3FB1F440E050E0BA0190E0A0E072
:101B5000B0E0481759076A077B0710F5EFE9FFE087
:101B60003197F1F700C000004F5F5F4F6F4F7F4F1D
:101B7000F0CF9798969825BB9598959A969A980F36
:101B80009E5F232F291751F0E22FF0E0EC5CF94F14
:101B9000E491E5BB9598959A2F5FF4CF380F979A0B
:101BA000363408F038C0932FBFCF0537154789F575
:101BB00081E08D8B97980AE716E0F80164913196E1
:101BC00044916F3FA9F480E090E0DC0150E060E0D8
:101BD00070E084179507A607B70760F4EFE9FFE008
:101BE0003197F1F700C000000196A11DB11DF1CFA2
:101BF000CE01EDDA0E5F1F4FF6E0003D1F07E9F65C
:101C00006B89CE013FDECE01DF91CF911F910F9105
:101C100007CB8FEF8D8BDF91CF911F910F9108959F
:101C200048B321E030E0662349F0B90102C0660FF5
:101C3000771F8A95E2F7CB01842B09C0B90102C056
:101C4000660F771F8A95E2F7CB018095842388BBC6
:101C50000895FC018181E4CFFC018081E1CFCF9226
:101C6000DF92EF92FF920F931F93CF93DF9300D0F9
:101C7000CDB7DEB77C01062F142F60E070E029831A
:101C80005A83E7DF802F8F71F6D2082FC12E5A8139
:101C9000D52E2981120F1C1531F08FEFECD2F601F1
:101CA00081936F01F8CF61E070E0C701D2DF802F30
:101CB0000F900F90DF91CF911F910F91FF90EF90B8
:101CC000DF90CF9008951F93CF93DF93EC01162FF1
:101CD00060E070E0BEDF812F8F71CDD28FEFCBD26D
:101CE000182F61E070E0CE01B4DF812FDF91CF913A
:101CF0001F910895CF92DF92EF92FF920F931F935F
:101D0000CF93DF9300D0CDB7DEB77C01062F142F21
:101D100060E070E029835A839CDF802F8F7180629E
:101D2000AAD2082FC12E5A81D52E2981120F1C1537
:101D300029F0F60181916F019ED2F9CF61E070E048
:101D4000C70187DF802F0F900F90DF91CF911F91F8
:101D50000F91FF90EF90DF90CF900895FF920F9337
:101D60001F93CF93DF931F92CDB7DEB78C01F62E72
:101D700060E070E049836DDF8F2D8F7180627BD2D0
:101D8000F82E4981842F77D261E070E0C80161DFCD
:101D90008F2D0F90DF91CF911F910F91FF9008959C
:101DA000BF92CF92DF92EF92FF920F931F93CF9348
:101DB000DF936C01D62FB72EFC01C4818C2F90E0ED
:101DC000042F10E0801791070CF48C01F601868136
:101DD000811102C0C01B01C0C0E060E070E0C6011C
:101DE00038DF80EA48D2182FED2EFB2C0D0F0E1590
:101DF00029F0F70181917F013ED2F9CFCC2321F068
:101E000080E039D2C150FACF61E070E0C60121DF35
:101E1000812FDF91CF911F910F91FF90EF90DF9075
:101E2000CF90BF9008951F93CF93DF93EC0160E0B4
:101E300070E00FDF82EE1FD2182F61E070E0CE015C
:101E400008DF812FDF91CF911F9108951F93CF93CA
:101E5000DF93EC0160E070E0FCDE81EE0CD2182F25
:101E600061E070E0CE01F5DE812FDF91CF911F910F
:101E700008951F93CF93DF93EC0160E070E0E9DEFB
:101E80008FEFF9D1182F61E070E0CE01E2DE812FF3
:101E9000DF91CF911F910895FC016083418381E020
:101EA0008283138280E284831582168210861186D3
:101EB0001286138614861586168617860895462F71
:101EC00050E04038510514F04FE750E065E046CF50
:101ED000CF93DF93EC0160E070E0BEDECE01B6DFB1
:101EE000CE01DF91CF919FCFCF93DF93EC0160E0E4
:101EF000EADE482F4D7F60E0CE01DF91CF912ECFFB
:101F0000FF920F931F93CF93DF93EC018B01F42E7D
:101F100060E0D9DE8C7F482F426060E0CE011EDF9A
:101F200087E592E00197F1F700C000004F2DB8015E
:101F3000CE0136DF61E070E0CE018EDE90E59A954D
:101F4000F1F760E070E0CE01DF91CF911F910F912A
:101F5000FF9082CE1F93CF93DF93EC0160E070E09F
:101F600078DE80E688D18FEF86D1182F61E070E0AF
:101F7000CE016FDE812FDF91CF911F910895EF92F7
:101F8000FF920F931F93CF93DF937B018A01E901A7
:101F900040E767E0E3DE85FB992790F9F70190833E
:101FA00084FB992790F9F801908386FB882780F9B4
:101FB0008883DF91CF911F910F91FF90EF9008954B
:101FC000FF920F931F93CF93DF9300D01F92CDB753
:101FD000DEB78C0195DF21E0AE014D5F5F4F68E019
:101FE000C8013DDE8073B9F398012B5F3F4FAE010E
:101FF0004F5F5F4FBE016E5F7F4FC801C0DFFA8049
:10200000F8018581882321F0C801A4DFF8018783C6
:10201000C8016ADFC8011ADF8F2D0F900F900F9053
:10202000DF91CF911F910F91FF900895EF92FF9252
:102030000F931F93CF93DF93CDB7DEB728970FB6DB
:10204000F894DEBF0FBECDBF7C0109831A832B83BA
:102050003C834D835E836F83788725E0AE014F5FBD
:102060005F4F6AE047DE25E0AE014F5F5F4F60E102
:10207000C70140DEF701448150E04132510514F0C0
:1020800040E250E061E1C70169DE28960FB6F8949E
:10209000DEBF0FBECDBFDF91CF911F910F91FF909B
:1020A000EF9008950F931F93CF93DF938C01EB0173
:1020B00066E009DE482F497FC330D10561F0C230A8
:1020C000D10511F4446008C0C130D10511F442605B
:1020D00003C0249709F4466066E0C801DF91CF9100
:1020E0001F910F913BCEEF92FF921F93CF93DF93FF
:1020F000EC017B0166E0E7DD1A82182F177D82E094
:10210000E816F10411F4106206C0EA94EF2819F4FD
:1021100081E08A831860412F66E0CE011FDE66E011
:10212000CE01D1DD811719F01A8280E001C081E073
:10213000DF91CF911F91FF90EF9008950F931F9320
:10214000CF93DF93EC018B0160E0BDDD482F437F2F
:102150000115110531F00130110511F4486001C07D
:102160004C6060E0CE01DF91CF911F910F91F6CDD1
:10217000CF93DF93EC0183ED90E00E94350547B3E8
:1021800081E090E09C01088002C0220F331F0A9476
:10219000E2F7242B27BB27B3098002C0880F991FC1
:1021A0000A94E2F7822B87BB85EE90E00E9435050A
:1021B00059D082EF90E00E94350560E070E0CE01DA
:1021C0004BDD61E070E0CE0144DD80E091E00E94F3
:1021D00035058FE19EE40197F1F700C000008FE024
:1021E00091E00E943505CE0144DE8EE191E00E942F
:1021F00035054FE464E0CE01B1DD8BE291E00E9451
:10220000350563E070E0CE014DDF86E391E00E948A
:10221000350562E070E0CE0166DF882311F081E0D1
:102220008B8360E070E0CE015EDF62E070E0CE01A3
:1022300085DF40E06CE1CE0191DD40E767E0CE0153
:102240008DDD6CE4CE013BDE83E491E00E94350538
:10225000CE01E9DDCE01FADD81E591E0DF91CF919C
:102260000C943505BE9887B3806B87BB82E58DB92A
:102270008EB18EB908958FB9779BFECF8FB1089537
:1022800005D0332312F48A1B9B0B10C0A29FB00110
:10229000B39FC001A39F700D811D1124911DB29F9A
:1022A000700D811D1124911D0895F0DFB7FF089571
:1022B000821B930B0895EE0FFF1F0590F491E02D04
:1022C0000994CF93DF93EC012B8120FF33C026FFCD
:1022D0000AC02F7B2B838E819F8101969F838E83E3
:1022E0008A8190E029C022FF0FC0E881F9818081B6
:1022F000992787FD9095009719F420622B831AC0C7
:102300003196F983E8830EC0EA85FB85099597FF2E
:1023100009C02B81019611F080E201C080E1822B7F
:102320008B8308C02E813F812F5F3F4F3F832E83D9
:10233000992702C08FEF9FEFDF91CF910895A0E022
:10234000B0E0E4EAF1E1CBC2AE01495F5F4FDA01F0
:102350006D917D91AD0101ED11E0F80182819381D4
:10236000DC0113962C911397286013962C933AD086
:10237000D8011296ED91FC9113972381277F238337
:10238000E4E0C9C20F931F93CF93DF93E091D30191
:10239000F091D401238121FF1BC08C01D0E0C0E06B
:1023A000F80181918F016091D3017091D401DB011B
:1023B0001896ED91FC911997882331F00995892B96
:1023C00079F3DFEFCFEFECCF8AE00995892B19F095
:1023D0008FEF9FEF02C08D2F9C2FDF91CF911F9128
:1023E0000F910895ACE0B0E0E7EFF1E16AC27C0143
:1023F0006B018A01FC0117821682838181FFB0C1C3
:10240000CE0101964C01F7019381F60193FD859170
:1024100093FF81916F01882309F49EC1853239F4BD
:1024200093FD859193FF81916F01853221F4B7016E
:1024300090E0B1D1E8CF512C312C20E02032A0F433
:102440008B3269F030F4803259F0833269F42061C4
:102450002CC08D3239F0803339F4216026C02260DF
:10246000246023C0286021C027FD27C030ED380F2D
:102470003A3078F426FF06C0FAE05F9E300D112452
:10248000532E13C08AE0389E300D1124332E206263
:102490000CC08E3221F426FD5FC1206406C08C364C
:1024A00011F4206802C0883641F4F60193FD85914D
:1024B00093FF81916F018111C1CF982F9F7D95541A
:1024C000933028F40C5F1F4FFFE3F9830DC0833670
:1024D00031F0833771F0833509F057C021C0F8011E
:1024E000808189830E5F1F4F44244394512C5401F3
:1024F00014C03801F2E06F0E711CF801A080B180A9
:1025000026FF03C0652D70E002C06FEF7FEFC501AD
:102510002C8736D12C0183012C852F77222E16C0D3
:102520003801F2E06F0E711CF801A080B18026FF27
:1025300003C0652D70E002C06FEF7FEFC5012C87EF
:1025400014D12C012C852068222E830123FC19C074
:10255000832D90E048165906A0F4B70180E290E080
:102560001AD13A94F5CFF50127FC859127FE819188
:102570005F01B70190E00FD131103A94F1E04F1AAA
:1025800051084114510479F7DEC0843611F08936C0
:1025900031F5F80127FF07C0608171818281938145
:1025A0000C5F1F4F08C060817181882777FD80957F
:1025B000982F0E5F1F4F2F76722E97FF09C09095B0
:1025C0008095709561957F4F8F4F9F4F2068722E39
:1025D0002AE030E0A40117D1A82EA81843C08537FF
:1025E00029F42F7EB22E2AE030E025C0F22FF97FA9
:1025F000BF2E8F36C1F018F4883579F0ADC0803722
:1026000019F0883721F0A8C02F2F2061B22EB4FE18
:102610000DC08B2D8460B82E09C024FF0AC09F2FE7
:102620009660B92E06C028E030E005C020E130E019
:1026300002C020E132E0F801B7FE07C0608171817D
:10264000828193810C5F1F4F06C06081718180E0A1
:1026500090E00E5F1F4FA401D6D0A82EA818FB2D26
:10266000FF777F2E76FE0BC0372D3E7FA51450F4EA
:1026700074FE0AC072FC08C0372D3E7E05C0BA2C1D
:10268000372D03C0BA2C01C0B52C34FF0DC0FE019C
:10269000EA0DF11D8081803311F4397E09C032FFCB
:1026A00006C0B394B39404C0832F867809F0B39422
:1026B00033FD12C030FF06C05A2CB31418F4530C6B
:1026C0005B18B32CB31460F4B70180E290E03C8750
:1026D00062D0B3943C85F6CFB31410F43B1801C01C
:1026E000312C34FF11C0B70180E390E03C8753D018
:1026F0003C8532FF16C031FD03C088E790E002C080
:1027000088E590E0B7010CC0832F867851F031FF47
:1027100002C08BE201C080E237FD8DE2B70190E09C
:102720003AD0A51430F4B70180E390E034D05A9445
:10273000F8CFAA94F401EA0DF11D8081B70190E071
:102740002AD0A110F6CF332009F45DCEB70180E284
:1027500090E021D03A94F7CFF7018681978102C0AB
:102760008FEF9FEF2C96E2E1C8C0FC01059061500D
:1027700070400110D8F7809590958E0F9F1F089597
:10278000FC016150704001900110D8F78095909540
:102790008E0F9F1F08950F931F93CF93DF93FB011D
:1027A000238121FD03C08FEF9FEF28C022FF16C0B9
:1027B00046815781248135814217530744F4A08113
:1027C000B1819D012F5F3F4F318320838C93268100
:1027D00037812F5F3F4F3783268310C0EB01092FCE
:1027E000182F0084F185E02D0995892BE1F68E8163
:1027F0009F8101969F838E83812F902FDF91CF91B0
:102800001F910F910895FA01AA27283051F1203124
:1028100081F1E8946F936E7F6E5F7F4F8F4F9F4F74
:10282000AF4FB1E03ED0B4E03CD0670F781F891FB6
:102830009A1FA11D680F791F8A1F911DA11D6A0F84
:10284000711D811D911DA11D20D009F468943F9137
:102850002AE0269F11243019305D3193DEF6CF0136
:102860000895462F4770405D4193B3E00FD0C9F7FC
:10287000F6CF462F4F70405D4A3318F0495D31FD69
:102880004052419302D0A9F7EACFB4E0A6959795BC
:10289000879577956795BA95C9F700976105710592
:1028A00008959B01AC010A2E0694579547953795DC
:1028B0002795BA95C9F7620F731F841F951FA01D36
:1028C00008952F923F924F925F926F927F928F92D4
:1028D0009F92AF92BF92CF92DF92EF92FF920F93AF
:1028E0001F93CF93DF93CDB7DEB7CA1BDB0B0FB6B9
:1028F000F894DEBF0FBECDBF09942A883988488876
:102900005F846E847D848C849B84AA84B984C8840B
:10291000DF80EE80FD800C811B81AA81B981CE0F02
:10292000D11D0FB6F894DEBF0FBECDBFED010895E7
:04293000F894FFCF49
:102934005B575D6972656C657373205B485D6F6D91
:1029440065205B435D6F6E74726F6C205B535D79C1
:102954007374656D20426173652053746174696F8B
:102964006E0000000000460440053F065606F005D0
:102974006C06A106BF06B60760C0A0281000101898
:102984001060C0A000003F013F01EFEF0000000015
:1029940000AB0B4005760A140AF005D90A5E0BBF9A
:1029A40006B607656E746572696E6720626567694D
:1029B4006E2E0A0D00536574204F75747075740A79
:1029C4000D00496E6974746564205350490A0D0002
:1029D400536574204C4F5726484947480A0D004414
:1029E400656C617965642035206D730A0D00476F4D
:1029F40074207374617475730A0D00476F742073C7
:102A040074617475730053657450414C6576656CDC
:102A14000A0D00736574206368616E6E656C0A0D3F
:102A240000666C75736865642062756666657273AA
:042A34002E0A0D0059
:00000001FF
