:10000000F7C300001CC400001AC4000018C400009C
:100010000C94581114C4000012C40000A6C70000BC
:100020000EC400000CC400000AC4000008C4000094
:1000300006C4000005C400002BC4000028C4000052
:100040000C948511FCC30000FAC30000F8C3000043
:10005000F6C300004D61696E206C6F6F70206D619A
:10006000783A20256C756D730A005741524E494EFF
:1000700047204C494D49543A200057484353206D7E
:1000800061696E206C6F6F70207374617274696E39
:10009000670A005B575D6972656C657373205B4826
:1000A0005D6F6D65205B435D6F6E74726F6C205B7E
:1000B000535D797374656D2042617365205374617B
:1000C00074696F6E0A00546F75636843616C69628E
:1000D000726174653A3A726573657428290A00552D
:1000E000494D616E616765723A2063616C6C696E3F
:1000F00067206F6E43726561746528290A0055494F
:100100004D616E616765723A2063616C6C696E6700
:10011000206F6E44657374726F7928290A005549FF
:100120004D616E616765723A205741524E2073638C
:10013000656E65207472616E736974696F6E207785
:100140006974686F757420656E640A0055494D6165
:100150006E616765723A205741524E206C6F73741E
:1001600020746F756368206576656E740A00554962
:100170004D616E6765723A20726561647920746FB3
:1001800020646973706C61790A0000000000003E11
:100190005B4F5B3E3E6B4F6B3E1C3E7C3E1C183CF7
:1001A0007E3C181C577D571C1C5E7F5E1C00183C53
:1001B0001800FFE7C3E7FF0018241800FFE7DBE79C
:1001C000FF30483A060E2629792926407F05050783
:1001D000407F05253F5A3CE73C5A7F3E1C1C0808DF
:1001E0001C1C3E7F14227F22145F5F005F5F0609A4
:1001F0007F017F006689956A606060606094A2FFFD
:10020000A29408047E040810207E201008082A1CEE
:1002100008081C2A08081E101010100C1E0C1E0CBA
:1002200030383E3830060E3E0E060000000000005A
:10023000005F00000007000700147F147F14242AC9
:100240007F2A12231308646236495620500008079B
:100250000300001C2241000041221C002A1C7F1CBC
:100260002A08083E080800807030000808080808BE
:10027000000060600020100804023E5149453E0025
:10028000427F400072494949462141494D33181483
:10029000127F1027454545393C4A494931412111D2
:1002A00009073649494936464949291E00001400C4
:1002B00000004034000000081422411414141414E7
:1002C000004122140802015909063E415D594E7C45
:1002D0001211127C7F494949363E414141227F41FA
:1002E00041413E7F494949417F090909013E414158
:1002F00051737F0808087F00417F41002040413F43
:10030000017F081422417F404040407F021C027F51
:100310007F0408107F3E4141413E7F090909063EA6
:100320004151215E7F091929462649494932030175
:100330007F01033F4040403F1F2040201F3F403887
:10034000403F631408146303047804036159494D62
:1003500043007F4141410204081020004141417F98
:10036000040201020440404040400003070800200E
:10037000545478407F28444438384444442838440E
:1003800044287F385454541800087E090218A4A445
:100390009C787F0804047800447D40002040403D64
:1003A000007F1028440000417F40007C04780478DE
:1003B0007C080404783844444438FC182424181871
:1003C000242418FC7C0804040848545454240404CD
:1003D0003F44243C4040207C1C2040201C3C4030BA
:1003E000403C44281028444C9090907C4464544CE9
:1003F0004400083641000000770000004136080044
:1004000002010204023C2623263C1EA1A161123AED
:100410004040207A38545455592155557941225439
:10042000547842215554784020545579400C1E523E
:1004300072123955555559395454545939555454E3
:10044000580000457C410002457D420001457C404A
:100450007D1211127DF0282528F07C54554500208E
:1004600054547C547C0A097F4932494949323A4400
:1004700044443A324A4848303A4141217A3A42406B
:100480002078009DA0A07D3D4242423D3D4040403D
:100490003D3C24FF2424487E4943662B2FFC2F2B10
:1004A000FF0929F620C0887E0903205454794100B1
:1004B00000447D413048484A32384040227A007A30
:1004C0000A0A727D0D19317D2629292F282629290E
:1004D000292630484D402038080808080808080830
:1004E000382F10C8ACBA2F102834FA00007B000057
:1004F00008142A142222142A1408AA005500AAAAB1
:1005000055AA55AA000000FF00101010FF00141497
:1005100014FF001010FF00FF1010F010F01414145E
:10052000FC001414F700FF0000FF00FF1414F40493
:10053000FC141417101F10101F101F1414141F0088
:10054000101010F0000000001F101010101F1010ED
:100550001010F010000000FF1010101010101010FC
:1005600010FF10000000FF140000FF00FF00001F3C
:1005700010170000FC04F414141710171414F404DA
:10058000F40000FF00F714141414141414F700F707
:10059000141414171410101F101F141414F4141032
:1005A00010F010F000001F101F0000001F140000CA
:1005B00000FC140000F010F01010FF10FF141414D1
:1005C000FF141010101F00000000F010FFFFFFFFCD
:1005D000FFF0F0F0F0F0FFFFFF0000000000FFFF71
:1005E0000F0F0F0F0F3844443844FC4A4A4A347EF8
:1005F00002020606027E027E0263554941633844C8
:10060000443C04407E201E2006027E020299A5E79B
:10061000A5991C2A492A1C4C7201724C304A4D4D36
:10062000303048784830BC625A463D3E494949001E
:100630007E0101017E2A2A2A2A2A44445F4444403A
:10064000514A444040444A51400000FF0103E080C9
:10065000FF000008086B6B083612362436060F09B7
:100660000F06000018180000001010003040FF01B5
:1006700001001F01011E00191D1712003C3C3C3CEB
:10068000000000000000000100FF00320001000037
:1006900001020000070300301004000000080002FF
:1006A00002090000000A0000000C0000000D00001C
:1006B000000F0000001000000011000700120000F1
:1006C0000013000000FF00C8001000901611002762
:1006D00002FF00320012001A00FF00320013000077
:1006E0001829002A00FF003200300000003100000D
:1006F0000032000000350006023600080837000707
:100700000038000102390000003C0000003D0000FC
:10071000002000000021000000500000005100EF08
:10072000005200000053003F01600000A761000379
:10073000006A000000900010009200000093000387
:10074000009500001197000000980000000700339A
:10075000010100B903FF8357FFFAB3040000060646
:10076000B60125B00168CC0105B10600151C1C833B
:10077000AAC0065050013C1E08B4070240002A2AB5
:100780000D783A01553601C03501004402000211CE
:1007900000FF962900FF322E89298F2B02E200E408
:1007A00001E510E601E710E870F200EA00EB20EC4A
:1007B0003CEDC8E938F1011B1A1A022461255C18C6
:1007C0003619011F88FF051F80FF051F90FF051FB9
:1007D000D4FF05170536092838FF28283C020003F6
:1007E00000040005EF060007000801093F00590753
:1007F00011241FBECFE5D8E0DEBFCDBF12E0A0E6DA
:10080000B0E0EEEBF6E402C005900D92A83DB10712
:10081000D9F713E0A8EDB2E001C01D92AE3CB107DC
:10082000E1F717E0C0EFD7E004C02297FE010E9475
:10083000591ECE3ED107C9F776D00C945D2358C01F
:100840001F920F920FB60F9211242F933F934F9345
:100850005F936F937F938F939F93AF93BF93EF9328
:10086000FF936CB18EE993E00E94F60EFF91EF9139
:10087000BF91AF919F918F917F916F915F914F91B8
:100880003F912F910F900FBE0F901F9018951895C4
:100890001F920F920FB60F9211242F933F934F93F5
:1008A0005F936F937F938F939F93AF93BF93EF93D8
:1008B000FF938BE793E00E94D20E882331F08BE701
:1008C00093E00E94E20E8CB902C00E94A411FF9135
:1008D000EF91BF91AF919F918F917F916F915F91B8
:1008E0004F913F912F910F900FBE0F901F90189531
:1008F0001F920F920FB60F921124D49ADC9A2FEF09
:1009000089E698E1215080409040E1F700C0000066
:10091000DC982FEF89E698E1215080409040E1F784
:1009200000C00000EBCFCF93DF93CDB7DEB7C55744
:10093000D1090FB6F894DEBF0FBECDBF0E947D1166
:100940000E9486110E9498110E94A0110E94A2117B
:1009500047D378948CEF97E09093E5028093E4027C
:100960001092E7021092E60282E08093DF0210927A
:10097000E9021092E8022DEA37E030935B032093FE
:100980005A0310925D0310925C03809355031092FA
:100990005F0310925E038CED92E09093CB03809303
:1009A000CA0383E990E09F938F930E945F20D49ABB
:1009B000DC9ABA9AC29AD5988FE393E00E949C1071
:1009C00088ED92E00E946E0E8AEE92E00E94120F75
:1009D00080916000909161000E944C1080916200B3
:1009E000909163000E944C1080916400909165008A
:1009F0000E944C1041EF52E066E173E0CE01019697
:100A000069D5BE016F5F7F4F8AEE92E00E94DE0FD4
:100A10008AE790E09F938F930E945F20CE018A59CE
:100A20009F4FA6D30F900F900F900F90E0961FAEA0
:100A3000E097F12CE12C11E0412C512C32019E0168
:100A4000285B3F4FAF963FAF2EAFAF976E0137E2B7
:100A5000C30ED11CF8948091C4039091C503A0915A
:100A6000C603B091C703E6968CAF9DAFAEAFBFAFE4
:100A7000E697789488ED92E00E94700E882359F0F2
:100A8000EE2011F0112381F088E690E00E9487208B
:100A9000EE24E39409C0E11002C0112329F084E898
:100AA00090E00E948720E12C8BE793E00E94D20E19
:100AB000882349F05D9B07C08BE793E00E94E20E1C
:100AC0008CB90E94A21188ED92E00E94750E892BCC
:100AD00009F4A4C143E050E0BE01685B7F4F88ED9C
:100AE00092E00E947B0EE2969FAF8EAFE2979F93BB
:100AF0008F9383EA90E09F938F930E944C200F90F6
:100B00000F900F900F90DE01A85BBF4F1D01C10138
:100B1000AF962EAD3FADAF97821B930BE2962EADF5
:100B20003FADE2978217930708F074C18101F1018C
:100B300081901F011F928F92A5EBB0E0BF93AF93FE
:100B40000E944C200F900F900F900F90D8018C9125
:100B50008B3151F489EB90E00E94872021E0E096F0
:100B60002FAFE097F12CD3CFE0963FADE097332342
:100B700009F443C1ECE5F0E0EC0FFD1FEF0DF11DB2
:100B8000808282E0F81237C16D969FAC6D976E96A9
:100B9000BFAC6E976F968FAC6F97082D10E01F92C9
:100BA0008F921F92BF921F929F92A9ECB0E0BF93C9
:100BB000AF930E944C200FB6F894DEBF0FBECDBF9E
:100BC00032E0381560F41F928F9281EE90E09F938F
:100BD0008F930E944C200F900F900F900F90000F5A
:100BE000111FF801E05AFF4F008111818BE16396DC
:100BF0008FAF639782E0B81609F454C08B1520F0CC
:100C000091E0B916B9F0E8C0A3E0BA1609F4A4C09F
:100C1000BAE0BB12E1C088EF90E00E9487206496A2
:100C20009FAE64976596BFAE659784E066968FAF7A
:100C30006697D0C01F928F9286E091E09F938F932A
:100C40000E944C20C8010E944C1064969FAE64978D
:100C500081E565968FAF659766968FAE6697C801FA
:100C60000E9483100F900F900F900F90029721F425
:100C7000C8010E94871012C0C8010E94831001970A
:100C800021F4C8010E948A1009C0C8010E94831083
:100C9000049709F005C1C8010E948D1067968FAFB7
:100CA0006797FEC01F928F92A8E1B1E0BF93AF9308
:100CB0000E944C2064969FAE649780E565968FAF46
:100CC000659766968FAE66978FE489A781E08FA3BC
:100CD000A601682D8FE393E00E94A9100F900F905A
:100CE0000F900F908823C9F082E291E00E94872044
:100CF000C8010E948310029729F460E0C8010E9495
:100D0000911009C0C8010E948310019721F460E08E
:100D1000C8010E949410860105C088E391E00E94FA
:100D20008720F9CF98012C193D090F5F1F4F8FA124
:100D300090E0821793070CF44DC0D8018C911F925C
:100D40008F93AAE4B1E0BF93AF930E944C200F9021
:100D50000F900F900F90E6CF1F928F9280E591E059
:100D60009F938F930E944C2064969FAE649780E57A
:100D700065968FAF659766968FAE669781E489A773
:100D800081E08FA3A601682D8FE393E00E94A91054
:100D90000F900F900F900F908823C1F08BE591E09A
:100DA0000E948720C8010E948310029729F461E005
:100DB000C8010E9491100EC0C8010E9483100197C3
:100DC00049F461E0C8010E94941004C082E791E0F8
:100DD0000E94872044E065C01F92BF92A5E8B1E061
:100DE000BF93AF930E944C200F900F900F900F90E5
:100DF000E0961FAEE097F3948ACE1F928F92AFE9F0
:100E0000B1E0BF93AF930E944C200F900F900F90D2
:100E10000F907DCE8AE090E00E9482208AEE92E0E0
:100E20000E947E0FF8944091C4035091C5036091D5
:100E3000C6037091C70378944A015B01E6968CADB6
:100E40009DADAEADBFADE697881A990AAA0ABB0A56
:100E5000481459046A047B0408F59DE2891691E060
:100E60009906A104B10440F08AE690E09F938F9325
:100E70000E945F200F900F90BF92AF929F928F922F
:100E800084E590E09F938F930E945F200F900F90D6
:100E90000F900F900F900F902401350110E0DACDE4
:100EA00045E050E0BE016E5A7F4F88ED92E04ED78C
:100EB0009FCF8EE993E071D78BE793E06ED721E067
:100EC00030E040E069EA71E082E793E00E94401080
:100ED00022E030E041E06EEA71E089E693E00E94B2
:100EE000401024E030E042E064EB71E080E693E003
:100EF0000E94401044E060E082E493E00E94221CE3
:100F000041E462E473E08FE393E00E94971062E5AE
:100F100073E086E193E00E940F1543E066E173E021
:100F200084E093E082D066E173E082E093E01CD13C
:100F300044E150E06CE271E081EF92E022D144E0C4
:100F400053E061EF72E08AEE92E064D74BE753E042
:100F50006EE973E088ED92E0BBC6682F86E193E00E
:100F60000E943C1481E090E008951F920F920FB60A
:100F70000F9211248F939F938091C3038130E9F4E2
:100F80008091C103883029F482E08093C303DE9806
:100F900020C08091C20380FF02C0DE9A01C0DE98AB
:100FA0008091C20390E0959587958093C2038091CC
:100FB000C1038F5F8093C1030CC08091C303823053
:100FC00029F483E08093C303DE9A03C01092C30325
:100FD0001EBC9F918F910F900FBE0F901F90189580
:100FE000D69ADE9A8AE890E09BBD8ABD89B7806177
:100FF00089BF1FBC1EBC0895CF93C82F8A3011F43F
:101000008DE0FADF8091C3038111FCCFC093C2034E
:101010001092C1031DBC1CBCDE9889E08EBD81E02E
:101020008093C303CF910895FFCFEF92FF920F9368
:101030001F93CF93DF931F92CDB7DEB77C018B0157
:10104000029649830E94E510F701118300834981CC
:1010500046870F90DF91CF911F910F91FF90EF90F6
:101060000895DC018D919C91DC01ED91FC9104844B
:10107000F585E02D60E070E0099413BEC3980895F3
:1010800013BEC39A0895CF93DF93FC0121892223D5
:1010900001F1EC0102960E942B118823D1F088897E
:1010A00081110AC08F858F3F29F4198ACE01DF9103
:1010B000CF91E6CF8F5F0BC0813059F48F858111BE
:1010C00005C0198ACE01DF91CF91D7CF81508F878C
:1010D0008CBFDF91CF910895FC0187858CBF89E695
:1010E00083BF0895CF93DF93FC0127852F3F81F0C5
:1010F000EC0181E0818B108A4AE050E060E070E012
:10110000CF0102960E94F310CE01DF91CF91E4CF80
:10111000DF91CF910895CF93DF93EC01BB9AADDFC0
:10112000888199810E9426152FEF81EE94E021504D
:1011300080409040E1F700C0000061E473E98881DD
:1011400099810E94AC19CE018CDF6E8588819981CE
:101150000E9418198FE39CE90197F1F700C0000085
:10116000CE01DF91CF91BECFFC01718360830895E2
:10117000FC0115821482138212821182108216825F
:101180000895FC0176876587508B478781E08487C7
:1011900013821282118210821386128611861086A3
:1011A00017821682158214820895CF92DF92EF92F1
:1011B000FF920F931F93FC017183608353834283DB
:1011C00035832483F186E08617830683D386C2861F
:1011D0001F910F91FF90EF90DF90CF900895FC0149
:1011E0001486089521E0FC01248708954F925F92B0
:1011F0006F927F928F929F92AF92BF92CF92DF9227
:10120000EF92FF920F931F93CF93DF93CDB7DEB78B
:1012100027970FB6F894DEBF0FBECDBF8C017B01C0
:101220006901FC018485882329F07A8369835C83C2
:101230004B834DC0F80184809580AA2497FCA0942C
:10124000BA2C40845184662457FC6094762CCA01E1
:10125000AA2797FDA095BA2F9C01AD012419350945
:1012600046095709A281B3810E94131E2285338546
:10127000442737FD4095542F24193509460957094D
:101280000E943B1E29013A01C701AA2797FDA0959C
:10129000BA2F9C01AD01281939094A095B09F801E7
:1012A000A081B1810E94131E2681378189012227E6
:1012B00017FD2095322FA9019801281939094A09EB
:1012C0005B090E943B1E3A8329835C824B82DE824B
:1012D000CD8281E08F8329813A814B815C816D8150
:1012E0007E818F8190E027960FB6F894DEBF0FBE07
:1012F000CDBFDF91CF911F910F91FF90EF90DF90C5
:10130000CF90BF90AF909F908F907F906F905F90A5
:101310004F9008954F925F926F927F928F929F921B
:10132000AF92BF92CF92DF92EF92FF920F931F93F3
:10133000CF93DF93CDB7DEB727970FB6F894DEBF14
:101340000FBECDBF7C01D098D298DA98D898D39AA6
:10135000D19ADB9AD99882E0E0D78C0182E0DDD780
:101360005C019801281B390B37FF03C0319521958B
:1013700031092630310544F01A8219821C821B8201
:101380001E821D821F8286C0D398D198DB98D29A84
:10139000D09ADA9A81E0C1D78C0181E0BED76C0186
:1013A0009801281B390B37FF03C03195219531096E
:1013B000263031050CF70FEF13E00A191B09D39AF9
:1013C000DB98D89AD29881E0A8D75C0182E0A5D7B3
:1013D000BC01F70187859089A816B9061CF420E0A6
:1013E00030E04DC0F701858496848114910409F49E
:1013F00041C0882777FD8095982F0E945D1F2B01A3
:101400003C01B501882777FD8095982F0E945D1FCC
:101410009B01AC01C301B2010E94C21E20E030E07A
:1014200040E85FE30E945D1E2B013C01B801882764
:1014300077FD8095982F0E945D1F9B01AC01C30131
:10144000B2010E94E91F2B013C01B40180E090E051
:101450000E945B1F9B01AC01C301B2010E94E91F06
:1014600020E030E040E85AE30E94E91F0E942A1F72
:101470009B0105C0A61AB70A950121503C4FA60151
:10148000B801C701B3DE29833A834B835C836D8344
:101490007E838F8329813A814B815C816D817E813E
:1014A0008F8190E027960FB6F894DEBF0FBECDBFB8
:1014B000DF91CF911F910F91FF90EF90DF90CF9030
:1014C000BF90AF909F908F907F906F905F904F9064
:1014D000089508950F931F93CF93DF93EC018A0132
:1014E000B6D58BE492E0998388831F830E83CE0167
:1014F00008966BD61D8ADF91CF911F910F910895A9
:10150000CF93DF93EC01B2D51D8A8E819F816ADE75
:101510008A819B81DC01ED91FC910484F585E02DAD
:1015200060E070E0099586EC90E09F938F930E94B5
:101530005F200F900F90DF91CF910895EF92FF926F
:101540000F931F93CF93DF93DB012C912111A2C046
:10155000EB018C01FC01828193810E94BB1480FF0E
:1015600008C089819A812B813C813A8329839C839D
:101570008B83D80155968C91559781110DC0298187
:101580003A8157963C932E9356972B813C815F96D8
:101590003C932E935E9727C0813051F429813A8184
:1015A000F801338F228F2B813C8131A320A31BC0F4
:1015B000823071F429813A81D8015D963C932E9353
:1015C0005C972B813C8193963C932E9392970BC012
:1015D0008330A9F429813A81F801318F208F2B8142
:1015E0003C8135A324A38F5FD80155968C93C80105
:1015F000DF91CF911F910F91FF90EF9037C5EB8056
:10160000FC80F801828193810E94D914CC97E8165E
:10161000F9066CF0D80112968D919C9113970E9457
:10162000D91482972B813C8128173907B4F0F8012F
:1016300082819381DC01ED91FC914B815C81698118
:101640007A810190F081E02D2FEF3FEFDF91CF9174
:101650001F910F91FF90EF90099489819A819C01CD
:10166000225331092536310540F4C801DF91CF916D
:101670001F910F91FF90EF90F5C4805A9109853624
:101680009105A8F6C801DF91CF911F910F91FF90AE
:10169000EF9036CFDF91CF911F910F91FF90EF9098
:1016A00008952ECFFC0186899789208D318D821B6C
:1016B000930B97FF03C09195819591090B974CF57A
:1016C000828D938D248D358D821B930B97FF03C0E4
:1016D0009195819591090B97E4F4868D978D20A1C2
:1016E00031A1821B930B97FF03C0919581959109BE
:1016F0000B977CF422A133A184A195A1281B390B5F
:1017000037FF03C031952195310981E02B30310538
:101710000CF080E008958F929F92AF92BF92CF928B
:10172000DF92EF92FF920F931F93CF93DF9300D03E
:1017300000D0CDB7DEB74C01A0D48111B3C0F40105
:101740008589843009F08DC0C401ACDF882309F499
:1017500097C0F401A688B788808D918DA80EB91E18
:10176000B7FE03C0FFEFAF1ABF0AB594A794F40108
:10177000028D138D848D958D080F191F17FF02C0E0
:101780000F5F1F4F15950795F401E68CF78C80A12C
:1017900091A1E80EF91EF7FE03C0FFEFEF1AFF0A52
:1017A000F594E794F401C2A0D3A084A195A1C80E3A
:1017B000D91ED7FE03C0FFEFCF1ADF0AD594C79416
:1017C000F401828193810E94D514BC01F4018281CD
:1017D00093816B837C830E94D914AC01F4018281D4
:1017E000938149835A830E94BB1449815A816B813A
:1017F0007C8180FF0FC0962F872FBA01492F582F69
:10180000902F812F8601C92ED82E9A2D8B2D57010E
:10181000E92EF82E9501F40186819781C6DCF4014A
:1018200086819781DCDC48EE53E060E070E0C40123
:101830000896D9D485E0F401858B80E1848BC401BE
:101840000F900F900F900F90DF91CF911F910F91FC
:10185000FF90EF90DF90CF90BF90AF909F908F90D0
:1018600005C48530F9F4C4010896F5D48823D1F075
:10187000C401FCD3F40184898150848B811112C08E
:10188000C4010F900F900F900F90DF91CF911F9197
:101890000F91FF90EF90DF90CF90BF90AF909F900F
:1018A0008F902ECE0F900F900F900F90DF91CF91D1
:1018B0001F910F91FF90EF90DF90CF90BF90AF906E
:1018C0009F908F9008956F927F928F929F92AF9288
:1018D000BF92CF92DF92EF92FF920F931F93CF931D
:1018E000DF93CDB7DEB760970FB6F894DEBF0FBEBB
:1018F000CDBF6C0118E03E0189E0680E711CD30178
:10190000E12F1D92EA95E9F7D60112968D919C91EF
:1019100013970E94D5140A979C878B87F6018281C2
:1019200093810E94D5140A979E878D87CE010196D8
:101930004C01DC011D921A95E9F7F6018281938131
:101940000E94D9140A979E838D83D60112968D9199
:101950009C9113970E94D9140A9798878F83A12C82
:10196000B12CF601858990E0A816B90634F08A15E5
:101970009B0534F020E038EF05C020EE37E002C0D0
:101980002FEF3FEFD60112968D919C911397F401A2
:10199000419151914F01D3016D917D913D01DC0148
:1019A000ED91FC910284F385E02D79010AE010E0CD
:1019B0002AE030E00995BFEFAB1ABB0AE4E0AE16AF
:1019C000B10479F662E0D60112968D919C9113973D
:1019D000C6D7F6018589843008F07FC08281938163
:1019E000E8D797FD019695958795AC01445151092B
:1019F00064E170E0D60112968D919C911397A9D75E
:101A00006FEF7FEFF60182819381AFD760EC71E0D9
:101A1000D60112968D919C91139734D6F60182814E
:101A20009381DC01ED91FC91A284B384BED74C017B
:101A3000F60182819381BDD7D6011296ED91FC917A
:101A4000139797FD0196AC0155954795E12CF12C24
:101A50000EE110E0940160E070E0CF01F50109951E
:101A6000D60112968D919C911397A3D797FD01965D
:101A7000AC015595479563E270E0F6018281938150
:101A800068D769ED71E0D60112968D919C911397FC
:101A9000F9D560E078EFF6018281938166D7D601AF
:101AA00055968C915597811103C064EE71E00AC080
:101AB000813019F46DEE71E0B7C0823041F467EF08
:101AC00071E0D60112968D919C911397B0C083302E
:101AD00009F0AEC064E072E0A7C08281938169D74B
:101AE00097FD019695958795AC014451510963E2A4
:101AF00070E0F601828193812CD760EE77E0D60109
:101B000012968D919C91139730D7F6018281938123
:101B1000DC01ED91FC91A284B38447D74C01F6011E
:101B20008281938146D7D6011296ED91FC9113974D
:101B300097FD0196AC015595479544515109E12C0B
:101B4000F12C06E410E0940164E170E0CF01F501AE
:101B5000099560E172E0D60112968D919C911397E0
:101B600091D5F60182819381DC01ED91FC91A084F5
:101B7000B1841FD7AC014C53510990EEE92E97E088
:101B8000F92E09E110E024E630E062E370E0F601AE
:101B900082819381F5010995D60112968D919C91D0
:101BA000139707D7AC014753510961E470E0F60180
:101BB00082819381CED665E272E0D60112968D9134
:101BC0009C9113975FD5F60182819381DC01ED91A1
:101BD000FC91A084B184EDD6AC014C535109E12CA9
:101BE00028EFF22E24E630E060EA70E0F601828110
:101BF0009381F5010995D60112968D919C911397C9
:101C0000D8D6AC014753510964EB70E0F6018281EC
:101C100093819FD660E078EFD60112968D919C91CA
:101C20001397A3D66CE272E0F601828193812AD5E4
:101C3000D60155968C9155978530A1F512968D91C8
:101C40009C911397B6D6AC014A55510967E370E0F1
:101C5000F601828193817DD66FEF7FEFD6011296D8
:101C60008D919C91139781D662E372E0F601828197
:101C7000938108D5D60154968C9154971F928F93D7
:101C80008FE392E09F938F9313968C9113978F938A
:101C900012968C918F9391D60F900F900F900F907A
:101CA0000F900F90C60160960FB6F894DEBF0FBE7E
:101CB000CDBFDF91CF911F910F91FF90EF90DF90FB
:101CC000CF90BF90AF909F908F907F906F90BCC14E
:101CD000FC0171836083538342830895D5980895EE
:101CE00089B385FB882780F90895FC018081918163
:101CF00059D090E00895CF92DF92EF92FF920F9328
:101D00001F93CF93DF936C017A018B01C0E0D0E089
:101D1000CE15DF0589F0F6018081918143D08111D4
:101D200002C07E0109C0F601808191814BD0F8018B
:101D300081938F012196ECCFC701DF91CF911F9145
:101D40000F91FF90EF90DF90CF900895CF92DF92A8
:101D5000EF92FF920F931F93CF93DF937C018A0141
:101D6000EB016B01C40ED51ECC15DD0561F0F7014A
:101D7000828193811FD08111FACF6991F70182810D
:101D8000938134D0F1CFC801DF91CF911F910F9192
:101D9000FF90EF90DF90CF900895FC0110A211A268
:101DA00012A2089521E0FC0182A1811101C020E06E
:101DB000822F089521E0FC0182A1803209F020E009
:101DC000822F0895FC0182A1882379F020A130E0C0
:101DD000DF01A20FB31F4C912F5F3F4F2F713327AD
:101DE00020A39FEF980F92A3842F0895FC0121A1B7
:101DF00030E0DC01A20FB31F6C932F5F3F4F2F71B8
:101E0000332721A322A130E02F5F3F4F2F713327CB
:101E100022A30895FC01718360835383428381E090
:101E200086830895CF93DF93EC018A819B8173D9D8
:101E30008A819B8116D98A819B8154D98EE691E053
:101E40009F938F930E945F200F900F90DF91CF910F
:101E50000895EF92FF920F931F93CF93DF93CDB727
:101E6000DEB727970FB6F894DEBF0FBECDBF611562
:101E7000710511F480E035C07B018C01FC0180818B
:101E8000918148DA29833A834B835C836D837E8317
:101E90008F832D813E81882369F3F8019681232B5E
:101EA00081F0913039F797E0FE013196D701119614
:101EB00001900D929A95E1F7F7011082F8011682D0
:101EC00010C09111D7CF97E0FE013196D70111963E
:101ED00001900D929A95E1F791E0F7019083F80156
:101EE000968327960FB6F894DEBF0FBECDBFDF9165
:101EF000CF911F910F91FF90EF9008950F931F9333
:101F0000CF93DF93CDB7DEB728970FB6F894DEBF37
:101F10000FBECDBF8C01CE0102962AD9BE016F5FE4
:101F20007F4FC80196DF8823D1F0D80114968D9198
:101F30009C911597009759F0DC01ED91FC9101906F
:101F4000F081E02DBE016F5F7F4F099508C08CE4E2
:101F500091E09F938F930E945F200F900F90F80164
:101F60008281938190D8D80114968D919C91159778
:101F70000097C9F0DC01ED91FC910680F781E02D1E
:101F80000995F8018481958175D0882361F0D80185
:101F900014968D919C911597DC01ED91FC91008434
:101FA000F185E02D099528960FB6F894DEBF0FBE97
:101FB000CDBFDF91CF911F910F9108950F931F9384
:101FC000CF93DF9361157105C1F1EB018C01DC0149
:101FD00014968D919C9115970097E9F04ED0811140
:101FE00008C08EE191E09F938F930E945F200F9035
:101FF0000F908EEF90E09F938F930E945F20F801E7
:1020000084819581DC01ED91FC910480F581E02DC6
:1020100009950F900F908FED90E09F938F930E9402
:102020005F20E881F9810280F381E02DCE010995DE
:10203000F801D583C4830F900F90DF91CF911F914A
:102040000F91089508950895FC0114820895FC01EC
:1020500089E592E0918380837383628381E0848346
:102060001582089521E0FC012583089521E0FC01FB
:1020700024830895FC0184810895FC0185810895DD
:10208000FC017183608342833483238381E08583F1
:102090008683108617820895CF93DF93EC018A819F
:1020A0001F928F9389818F9388818F9383E692E02B
:1020B0009F938F930E944C208B819C810F900F9057
:1020C0000F900F900F900F908230910519F487E8D0
:1020D00092E00DC08130910519F48AE892E007C0C2
:1020E000049719F48DE892E002C082E992E09F9390
:1020F0008F930E944C200F900F908AE090E0DF9128
:10210000CF910C948220FC01838194810895FC017D
:1021100085810895FC0186810895FC018781908561
:102120000895FC0165830895FC0166830895FC0110
:102130007183608342830895CF93DF93EC0188819C
:1021400099810E948E1D88819981DF91CF910C9495
:102150004A1CEF92FF920F931F93CF93DF937C0162
:10216000062FEA016983FC01808191810E943E1C57
:1021700010EF20EF38EE48EE50E060E070E0F7013D
:10218000808191810E94EC1CFE014191BF014F5F53
:10219000F70180819181DF91CF911F910F91FF9085
:1021A000EF900C94B61C21E0FC012083F894409140
:1021B000C4035091C5036091C6037091C70378941E
:1021C00042835383648375830895FC0110821182D6
:1021D000128213821482158216821782108611864B
:1021E000138612860895FC01108282E08183128298
:1021F0001382148215824683578360877187138602
:102200001286CF01D0CFCF93DF93FC01218122230F
:10221000F9F0EC010284F385E02D309709F009957F
:102220008981813039F41A821B821C821D8283E0ED
:1022300088830EC0F8948091C4039091C503A09147
:10224000C603B091C70378948A839B83AC83BD8314
:10225000DF91CF910895FC01F8948091C40390918F
:10226000C503A091C603B091C703789421812223AE
:10227000E9F020812130D1F442815381648175815C
:1022800084179507A607B70788F0841B950BA60B44
:10229000B70B468157816085718584179507A6071E
:1022A000B70720F0CF01AFDF81E0089580E0089507
:1022B0001F920F920FB60F9211248F939F93AF939B
:1022C000BF938091C4039091C503A091C603B091C0
:1022D000C7030196A11DB11D8093C4039093C5034C
:1022E000A093C603B093C703BF91AF919F918F9105
:1022F0000F900FBE0F901F9018958AEF83BD89B77E
:10230000806889BF8CE085BD089518958AB31ABA94
:102310003E9A86B1876886B9089597B18F70907F8D
:10232000892B87B9369A3699FECF84B195B1089535
:1023300059988AB188618AB987E689B910BC08952D
:10234000579A0895559A0895559808952F923F9257
:102350004F925F926F927F928F929F92AF92BF92B5
:10236000CF92DF92EF92FF920F931F93CF93DF9361
:1023700000D01F92CDB7DEB74C017B836A836A0120
:10238000590117019801241B350B37FF03C0319504
:1023900021953109C5014A815B81841B950B97FF0B
:1023A00003C091958195910951E059838217930754
:1023B00014F019820BC09A2D8B2D5801092F182F5C
:1023C0009A818B81DB82CA82C92ED82E8A819B8119
:1023D000A816B9065CF49C2D8D2D6801092F182FC5
:1023E0009A818B81BB82AA82A92EB82E2501AA814F
:1023F000BB814A1A5B0A38016C187D0877FE03C05E
:10240000719461947108720157FE03C0BFEFEB1A1B
:10241000FB0AF594E794C016D1061CF00FEF1FEFEE
:102420001FC001E010E01CC0E981D401EE23F1F0EF
:10243000ED91FC910190F081E02D91014A815B8149
:10244000B601C4010995E618F708F7FE04C0C00EEE
:10245000D11EE40CF51CEA81FB813196FB83EA83F3
:102460004A815B81A416B506FCF60AC0ED91FC9189
:102470000190F081E02D9101A6016A817B81E1CF7D
:102480000F900F900F90DF91CF911F910F91FF90C0
:10249000EF90DF90CF90BF90AF909F908F907F9004
:1024A0006F905F904F903F902F9008956F927F9222
:1024B0008F929F92AF92BF92CF92DF92EF92FF9254
:1024C0000F931F93CF93DF93EC014B015A016901E6
:1024D0003801E881F9810680F781E02D87010995AF
:1024E000E881F981A501460D571D4150510906802B
:1024F000F781E02D9601B401CE010995E881F981BB
:102500000480F581E02D9301A501B401CE01099568
:10251000E881F981C80CD91CB601615071090480A9
:10252000F581E02D9301A501CE010995DF91CF91B1
:102530001F910F91FF90EF90DF90CF90BF90AF90E1
:102540009F908F907F906F900895EF92FF920F93DE
:102550001F937801DC01ED91FC91240F351F890157
:10256000015011090280F381E02D9B0109951F9113
:102570000F91FF90EF900895EF92FF920F931F93AA
:10258000DC01ED91FC91260F371F215031090280AB
:10259000F381E02D78018A0109951F910F91FF9039
:1025A000EF9008956F927F928F929F92AF92BF9219
:1025B000CF92DF92EF92FF920F931F93CF93DF930F
:1025C0006C015A014801EB013B01620E731EC615F6
:1025D000D70574F4D601ED91FC910480F581E02DCE
:1025E00087019401A501BE01C60109952196EFCF8F
:1025F000DF91CF911F910F91FF90EF90DF90CF90DF
:10260000BF90AF909F908F907F906F900895EF92C2
:10261000FF920F931F93DC01ED91FC911197189697
:102620000D911C91199716962D913C911797028444
:10263000F385E02D7B0140E050E060E070E009951B
:102640001F910F91FF90EF9008950895FC018BE981
:1026500092E091838083738362835583448377837D
:10266000668351874087138A1386128615861486DF
:1026700081E0828B2FEF3FEF318B208B37872687CE
:10268000848B0895EF92FF920F931F93CF93DF9364
:102690007C018B01EB019E01201B310B69916623AC
:1026A00049F0D701ED91FC910088F189E02DC70137
:1026B0000995F1CFC901DF91CF911F910F91FF9043
:1026C000EF9008952F923F924F925F926F927F9278
:1026D0008F929F92AF92BF92CF92DF92EF92FF9232
:1026E0000F931F93CF93DF93CDB7DEB72D970FB620
:1026F000F894DEBF0FBECDBFDC011696ED91FC91C4
:1027000017976E177F070CF09EC01896ED91FC91FD
:1027100019974E175F070CF096C08C2C912CFB017B
:10272000B6E0CB9EE00DF11D11241E161F060CF025
:102730008AC0F40133E0EE0FFF1F3A95E1F7E40F92
:10274000F51F1E161F060CF07EC0CF82FE82ED82A2
:102750001C830B831A015C01E5E02E9F900111247C
:102760007D876C873B011A82A901461B570B59874D
:102770004887C10108969B878A879A81953049F0DE
:10278000E885F985E60DF71DE657FE4FA491A9836C
:1027900001C0198221016101B981B0FF14C0EF812C
:1027A000D501E13041F4ED91FC910190F081E02DF3
:1027B0002B813C811AC0ED91FC910284F385E02DC0
:1027C000EB80FC801CC0ED81FE812B813C81E217F7
:1027D000F307E1F03F81D501ED91FC91313051F4E7
:1027E0000190F081E02D2D813E81A201B301C50150
:1027F00009950CC00284F385E02DED80FE808401F4
:102800009401A6016C857D85C5010995B981B695B0
:10281000B983EFEF4E1A5E0AC80CD91C2A853B8596
:102820004216530609F0B8CF3A813F5F3A834FEF23
:10283000641A740A8C859D85880D991D9D878C87E7
:10284000363009F09ACF2D960FB6F894DEBF0FBE42
:10285000CDBFDF91CF911F910F91FF90EF90DF904F
:10286000CF90BF90AF909F908F907F906F905F9030
:102870004F903F902F900895CF92EF92FF920F9339
:102880001F93CF93DF93EC016A3059F42A898C852A
:102890009D8538E0239F800D911D11249D878C8795
:1028A0004EC06D3009F44DC06830B9F42A853B85BF
:1028B0008A89482F50E066E0869FC0011124821764
:1028C0009307ECF56AEF6403C001659F900D112436
:1028D000820F931F9B878A8734C0262FE888F98848
:1028E0000E851F854C855D856A857B85CA88EADEF5
:1028F0004A89242F30E08A859B8556E0459F800DCC
:10290000911D11249B878A874C894423D1F04AEF7B
:102910004203B001439F700D11244E815F81460F29
:10292000571F481759076CF483E0220F331F8A950D
:10293000E1F78C859D85280F391F3D872C871B86E5
:102940001A86DF91CF911F910F91FF90EF90CF905A
:102950000895FC0173876287558744870895611144
:1029600001C061E0FC01628B0895FC01718B608BFA
:10297000778766870895FC0183890895FC01637059
:10298000638B613049F0633039F0828193819783A2
:1029900086838481958106C084819581978386830F
:1029A00082819381918780870895FC018681978138
:1029B0000895FC01808591850895CF93DF93CDB76D
:1029C000DEB7AE01475F5F4F6F817885ED81FE8195
:1029D00087A190A50E94B720DF91CF910895FC01B7
:1029E000979A959A949A969A939A81B3886F81BB95
:1029F00084B38FEF84BB138A1386128615861486E0
:102A000081E0828B8FEF9FEF9787868780EF90E042
:102A10009783868380E491E09187808708950F9360
:102A20001F93CF93DF93EC018B0140E451E060EF03
:102A300070E00CDE86EC92E09983888318A70FA3E0
:102A4000CE01DF91CF911F910F91C9CF979A959A9F
:102A5000949A93988FE99FE00197F1F700C00000E6
:102A60008FE99FE00197F1F700C00000939A9798D3
:102A7000969815BA9598959A83E09598959A81506D
:102A8000E1F7979A08950F931F9397989698FC01F2
:102A90008589823041F0811104C015BA9598959AC4
:102AA00004C0833011F48CE201C082E285BB9598AA
:102AB000959A969A75BB9598959A65BB9598959AAF
:102AC00089019A010150110921093109D901C8016F
:102AD00026E0B695A795979587952A95D1F7761311
:102AE0003DC00197A0F060E19598959A9598959AC8
:102AF0009598959A9598959A9598959A9598959A66
:102B00009598959A9598959A615071F7EACF202FEC
:102B10002F73215028F09598959A9598959AF9CF0A
:102B2000979A1F910F91089575BB9598959A65BBDB
:102B30009598959A75BB9598959A65BB9598959A31
:102B400075BB9598959A65BB9598959A75BB959820
:102B5000959A65BB9598959AE15031F7019710F0D9
:102B6000E0E1E2CF202F2F732150D0F275BB959872
:102B7000959A65BB9598959AF7CF969865BB959869
:102B8000959A969A45BB9598959A0895969875BB8F
:102B90009598959A65BB9598959A969A55BB9598F0
:102BA000959A45BB9598959A0895969865BB959882
:102BB000959A969A35BB9598959A969845BB95980F
:102BC000959A969A25BB9598959A0895CF93DF93F9
:102BD000EC0197982E813F812150310945E064E056
:102BE000E4DF288539852150310949E068E0CE01CC
:102BF000DCDF979ADF91CF9108959798969865BBFF
:102C00009598959A969A85E38A95F1F70000852F15
:102C10009927AA27BB2785BB9598959A85E38A951E
:102C2000F1F70000CA01AA27BB2785BB9598959AA2
:102C300085E38A95F1F70000BB27A52F942F832FFA
:102C400085BB9598959A85E38A95F1F7000025BB99
:102C50009598959A979A08958F929F92AF92BF9266
:102C6000CF92DF92EF92FF920F931F93CF93DF9358
:102C7000EC017A01690197982D89211158C02B899F
:102C8000223089F0233021F1213081F52FEE30E020
:102C9000A901401B510B5B0149018E189F08860159
:102CA00064017B0113C02FEE30E0A9014C195D09CE
:102CB0006901C61AD70A8FE391E09C01201B310BF2
:102CC0008C010E191F09580146017901BA0110C083
:102CD0002FE331E0A9014C195D095901A61AB70A81
:102CE000470168018501B7017A0102C05A014B0111
:102CF000AB0160E570E0CE0149DFA60161E570E05F
:102D0000CE0144DFA70162E570E0CE013FDFA801FC
:102D100063E570E0CE013ADFA40160E270E0CE012D
:102D200035DFA50161E270E0CE0130DF45C0213022
:102D3000A1F49B0143E062E038DF970147E066E0E1
:102D4000CE0133DF960145E064E0CE012EDF98012D
:102D500049E068E0CE0129DF2FC02250223060F523
:102D6000CB01AA2797FDA095BA2FDC0199278827C8
:102D7000A601662757FD6095762F9A01AB01282B97
:102D8000392B4A2B5B2B6AE2CE0137DFC701AA271A
:102D900097FDA095BA2FDC0199278827A8016627FF
:102DA00057FD6095762F9A01AB01282B392B4A2BC2
:102DB0005B2B6BE2CE0121DF979ADF91CF911F91C0
:102DC0000F91FF90EF90DF90CF90BF90AF909F90CA
:102DD0008F900895CF92DF92EF92FF920F931F93FF
:102DE000CF93DF93EC016801121613060CF04BC071
:102DF00057FD49C088859985481759070CF043C08D
:102E0000EE81FF816E177F070CF03DC07B01E20E63
:102E1000F31EC701019797FD36C077FF32C060E00F
:102E200070E08E179F072CF0CF0101977F01E61A03
:102E3000F70A8A019C01CE010FDF9701442737FD75
:102E40004095542FB601CE011EDE8D8981110FC031
:102E500008851985015011092E813F8121503109C2
:102E600040E050E060E070E0CE01F6DE0CC0CE0144
:102E7000DF91CF911F910F91FF90EF90DF90CF9056
:102E8000A5CE7901CECFDF91CF911F910F91FF9009
:102E9000EF90DF90CF900895CF92DF92EF92FF9264
:102EA0000F931F93CF93DF93EC0168011216130663
:102EB0000CF04CC077FD4AC08E819F81681779075E
:102EC0000CF044C0E885F9854E175F070CF03EC052
:102ED0007A01E20EF31E87010150110917FD36C079
:102EE00057FF32C040E050E00E171F0734F08F014B
:102EF000015011097F01E41AF50A9B01CE01ACDEF5
:102F00009701442737FD4095542FB601CE01BBDD14
:102F10008D8981110FC008851985015011092E81F5
:102F20003F812150310940E050E060E070E0CE0187
:102F300093DE0CC0CE01DF91CF911F910F91FF90D6
:102F4000EF90DF90CF9042CE7901CECFDF91CF913D
:102F50001F910F91FF90EF90DF90CF9008958F9287
:102F60009F92AF92BF92CF92DF92EF92FF920F9318
:102F70001F93CF93DF93EC014701121613060CF059
:102F800066C0101611060CF062C0AE81BF816A17D0
:102F90007B070CF05CC0C884D9844C155D050CF02F
:102FA00056C05B01A20EB31EC501019797FD4FC02D
:102FB0007A01E00EF11EF7013197F7FD48C077FF67
:102FC00044C060E070E057FD02C0780102C040E0FC
:102FD00050E08A179B072CF0CD0101975D01A61ADE
:102FE000B70AEC15FD052CF0F60131977601E41ACD
:102FF000F50A8F019C01CE012FDE9701D501EED598
:103000009B01AC01B401CE013EDD8D8981110FC061
:1030100008851985015011092E813F812150310900
:1030200040E050E060E070E0CE0116DE10C0CE015E
:10303000DF91CF911F910F91FF90EF90DF90CF9094
:10304000BF90AF909F908F90C1CD5901BCCFDF91C1
:10305000CF911F910F91FF90EF90DF90CF90BF9095
:10306000AF909F908F900895EF92FF920F931F93D0
:10307000CF93DF937C01EB01FC018589811122C094
:1030800023892150233078F430E0F901E154FD4FD9
:103090008081482F50E0220F331FF901E754FD4F84
:1030A0000081118104C000E010E040E050E09798FA
:1030B00060E270E0C7016ADDA80161E270E0C7016B
:1030C00065DD12C08150833078F4F70100851185E9
:1030D00001501109268137812150310940E050E02B
:1030E00060E070E0C701B8DD20E03CE241E050E084
:1030F000BE01C701DF91CF911F910F91FF90EF901B
:10310000C2CCAF92BF92CF92DF92EF92FF920F9319
:103110001F93CF93DF93EC017B016A01B22EA32EA4
:1031200077FD7BC057FD79C08E819F816817790735
:103130000CF073C088859985481759070CF06DC04D
:1031400097988D89811132C08B89823059F08330F4
:10315000B1F08130D1F48FEE90E0841B950B6B01C0
:103160007C0113C08FEE90E09C01261B370B790188
:103170008FE391E09C01241B350B690106C08FE3AE
:1031800091E0861B970B7A016C01A70160E270E069
:10319000CE01FCDCA60161E270E0CE01F7DC4B2D34
:1031A0005A2D62E270E0CE01F1DC36C08130D1F4FC
:1031B000EB89E150E33028F4F0E0EA54FD4F408120
:1031C00001C040E066E1CE01D8DC970143E062E057
:1031D000CE01EBDC960147E066E0CE01E6DC969896
:1031E00082E210C082508230B8F4088519850150FF
:1031F00011092E813F8121503109CE012DDD979893
:1032000096988CE285BB9598959A969AA5BA9598CA
:10321000959AB5BA9598959A979ADF91CF911F9103
:103220000F91FF90EF90DF90CF90BF90AF900895F7
:10323000EF92FF920F931F93CF93DF93EC019EDBEE
:1032400097988D89811120C0EB89E150E33040F4DB
:10325000F0E0EE0FFF1FE055FD4F4081518102C0AD
:1032600040E350E163E070E0CE0190DC0885198511
:10327000015011092E813F812150310940E050E079
:1032800060E070E0CE01E8DC8D89813079F4EB8973
:10329000E150E33028F4F0E0E355FD4F408101C0F8
:1032A00040E066E1CE0169DCCE0190DC8D898230A0
:1032B00029F58B89813071F050F0823029F083300C
:1032C00059F458E2E52E08C068E4E62E05C048E847
:1032D000E42E02C038EEE32E4E2D66E3CE014DDC27
:1032E00008851985015011092E813F81215031092E
:1032F00040E050E060E070E0CE01AEDC8D898330CC
:1033000021F58B89813069F048F0823029F08330D3
:1033100051F420E6F22E07C0F12C05C090ECF92EF6
:1033200002C080EAF82E4F2D66E3CE0126DC088528
:103330001985015011092E813F812150310940E04A
:1033400050E060E070E0CE0187DCDF91CF911F910B
:103350000F91FF90EF9008950F931F93CF93DF93FA
:10336000EC018B0173DB80E090E0EFE9FFE0319747
:10337000F1F700C000000196883C9105B1F70532D5
:10338000F3E91F0721F0083223E9120771F51D8ABE
:10339000979805E816E0F80165917491F801329666
:1033A000459154916F3F7105A1F480E090E0DC01FC
:1033B00060E070E084179507A607B70760F4EFE9AF
:1033C000FFE03197F1F700C000000196A11DB11D8B
:1033D000F1CFCE01DBDB0C5F1F4FF7E001351F079C
:1033E000D1F66B89CE0124DF61C0013423E91207D5
:1033F00009F067C082E08D8B979840E061E0CE01D4
:10340000BCDB80E090E0EFE9FFE03197F1F700C02E
:103410000000019682339105B1F740E068E2CE01E9
:10342000ACDB43E260ECCE01A8DB40E161ECCE0115
:10343000A4DB4BE25BE265EC70E0CE01A7DB40EC85
:1034400067ECCE019ADB48E866E3CE0196DB45E502
:103450006AE3CE0192DB4BE150E061EB70E0CE011C
:1034600095DB47E067EBCE0188DB40E061E1CE0110
:1034700084DB80E090E0EFE9FFE03197F1F700C0F6
:103480000000019686399105B1F740E069E2CE016E
:1034900074DB80E090E0EFE9FFE03197F1F700C0E6
:1034A00000000196843FF1E09F07A9F70FE311E0C8
:1034B0002FEE30E040E050E060E070E0CE01CCDB89
:1034C00080C0073523E8120709F045C083E08D8BE3
:1034D000979890E0E92FF0E0EF5AF84F249132E00E
:1034E000390FE1E0E90FF0E0EF5AF84F84912F3FF8
:1034F000B1F440E050E0BA0190E0A0E0B0E048173D
:1035000059076A077B0710F5EFE9FFE03197F1F7FC
:1035100000C000004F5F5F4F6F4F7F4FF0CF979815
:10352000969825BB9598959A969A980F9E5F232F0B
:10353000291751F0E22FF0E0EF5AF84FE491E5BB84
:103540009598959A2F5FF4CF380F979A363408F0F4
:1035500038C0932FBFCF0537154789F581E08D8B94
:10356000979807E917E0F8016491319644916F3F0D
:10357000A9F480E090E0DC0150E060E070E08417A6
:103580009507A607B70760F4EFE9FFE03197F1F779
:1035900000C000000196A11DB11DF1CFCE01EDDAF2
:1035A0000E5F1F4FF7E00D3E1F07E9F66B89CE0156
:1035B0003FDECE01DF91CF911F910F9107CB8FEFAF
:1035C0008D8BDF91CF911F910F91089548B321E02A
:1035D00030E0662349F0B90102C0660F771F8A9573
:1035E000E2F7CB01842B09C0B90102C0660F771F37
:1035F0008A95E2F7CB018095842388BB0895FC016E
:103600008181E4CFFC018081E1CFCF92DF92EF9204
:10361000FF920F931F93CF93DF9300D0CDB7DEB708
:103620007C01062F142F60E070E029835A83E7DFC6
:10363000802F8F71CED2082FC12E5A81D52E29818D
:10364000120F1C1531F08FEFC4D2F60181936F0178
:10365000F8CF61E070E0C701D2DF802F0F900F90AC
:10366000DF91CF911F910F91FF90EF90DF90CF905E
:1036700008951F93CF93DF93EC01162F60E070E065
:10368000BEDF812F8F71A5D28FEFA3D2182F61E0FB
:1036900070E0CE01B4DF812FDF91CF911F910895AB
:1036A000CF92DF92EF92FF920F931F93CF93DF930E
:1036B00000D0CDB7DEB77C01062F142F60E070E09C
:1036C00029835A839CDF802F8F71806282D2082FDA
:1036D000C12E5A81D52E2981120F1C1529F0F60111
:1036E00081916F0176D2F9CF61E070E0C70187DF89
:1036F000802F0F900F90DF91CF911F910F91FF902E
:10370000EF90DF90CF900895FF920F931F93CF9388
:10371000DF931F92CDB7DEB78C01F62E60E070E02C
:1037200049836DDF8F2D8F71806253D2F82E4981CE
:10373000842F4FD261E070E0C80161DF8F2D0F90C0
:10374000DF91CF911F910F91FF900895BF92CF927B
:10375000DF92EF92FF920F931F93CF93DF936C0151
:10376000D62FB72EFC01C4818C2F90E0042F10E0DF
:10377000801791070CF48C01F6018681811102C03B
:10378000C01B01C0C0E060E070E0C60138DF80EA25
:1037900020D2182FED2EFB2C0D0F0E1529F0F7015E
:1037A00081917F0116D2F9CFCC2321F080E011D294
:1037B000C150FACF61E070E0C60121DF812FDF91B7
:1037C000CF911F910F91FF90EF90DF90CF90BF901E
:1037D00008951F93CF93DF93EC0160E070E00FDF5B
:1037E00082EEF7D1182F61E070E0CE0108DF812F63
:1037F000DF91CF911F9108951F93CF93DF93EC0139
:1038000060E070E0FCDE81EEE4D1182F61E070E052
:10381000CE01F5DE812FDF91CF911F9108951F9387
:10382000CF93DF93EC0160E070E0E9DE8FEFD1D160
:10383000182F61E070E0CE01E2DE812FDF91CF91A1
:103840001F910895FC016083418381E0828313828C
:1038500080E2848315821682108611861286138672
:1038600014861586168617860895462F50E0403830
:10387000510514F04FE750E065E046CFCF93DF935A
:10388000EC0160E070E0BEDECE01B6DFCE01DF917C
:10389000CF919FCFCF93DF93EC0160E0EADE482F1A
:1038A0004D7F60E0CE01DF91CF912ECFFF920F933D
:1038B0001F93CF93DF93EC018B01F42E60E0D9DEF0
:1038C0008C7F482F426060E0CE011EDF87E592E0EA
:1038D0000197F1F700C000004F2DB801CE0136DF8F
:1038E00061E070E0CE018EDE90E59A95F1F760E040
:1038F00070E0CE01DF91CF911F910F91FF9082CEAA
:103900001F93CF93DF93EC0160E070E078DE80E6F8
:1039100060D18FEF5ED1182F61E070E0CE016FDED5
:10392000812FDF91CF911F910895EF92FF920F9316
:103930001F93CF93DF937B018A01E90140E767E0A2
:10394000E3DE85FB992790F9F701908384FB9927A3
:1039500090F9F801908386FB882780F98883DF91AE
:10396000CF911F910F91FF90EF900895FF920F93C9
:103970001F93CF93DF9300D01F92CDB7DEB78C019A
:1039800095DF21E0AE014D5F5F4F68E0C8013DDE8D
:103990008073B9F398012B5F3F4FAE014F5F5F4FCC
:1039A000BE016E5F7F4FC801C0DFFA80F8018581DC
:1039B000882321F0C801A4DFF8018783C8016ADFEA
:1039C000C8011ADF8F2D0F900F900F90DF91CF91CC
:1039D0001F910F91FF900895EF92FF920F931F9305
:1039E000CF93DF93CDB7DEB728970FB6F894DEBF3D
:1039F0000FBECDBF7C0109831A832B833C834D838B
:103A00005E836F83788725E0AE014F5F5F4F6AE08A
:103A100047DE25E0AE014F5F5F4F60E1C70140DE4A
:103A2000F701448150E04132510514F040E250E08A
:103A300061E1C70169DE28960FB6F894DEBF0FBEBC
:103A4000CDBFDF91CF911F910F91FF90EF9008951F
:103A50000F931F93CF93DF938C01EB0166E009DE98
:103A6000482F497FC330D10561F0C230D10511F430
:103A7000446008C0C130D10511F4426003C02497EE
:103A800009F4466066E0C801DF91CF911F910F9164
:103A90003BCEEF92FF921F93CF93DF93EC017B011C
:103AA00066E0E7DD1A82182F177D82E0E816F10440
:103AB00011F4106206C0EA94EF2819F481E08A83B9
:103AC0001860412F66E0CE011FDE66E0CE01D1DD39
:103AD000811719F01A8280E001C081E0DF91CF9157
:103AE0001F91FF90EF9008950F931F93CF93DF9353
:103AF000EC018B0160E0BDDD482F437F011511050E
:103B000031F00130110511F4486001C04C6060E0F3
:103B1000CE01DF91CF911F910F91F6CDCF93DF931F
:103B2000EC0147B381E090E09C01088002C0220FC5
:103B3000331F0A94E2F7242B27BB27B3098002C066
:103B4000880F991F0A94E2F7822B87BB39D060E077
:103B500070E0CE0157DD61E070E0CE0150DD8FE115
:103B60009EE40197F1F700C00000CE0158DE4FE45B
:103B700064E0CE01C9DD63E070E0CE0169DF62E0A0
:103B800070E0CE0186DF882311F081E08B8360E056
:103B900070E0CE017EDF62E070E0CE01A5DF40E0A4
:103BA0006CE1CE01B1DD40E767E0CE01ADDD6CE454
:103BB000CE015BDECE010DDECE01DF91CF911CCEBA
:103BC000BE9887B3806B87BB82E58DB98EB18EB905
:103BD00008958FB9779BFECF8FB1089505D0332319
:103BE00012F48A1B9B0B10C0A29FB001B39FC001AF
:103BF000A39F700D811D1124911DB29F700D811D19
:103C00001124911D0895F0DFB7FF0895821B930BD7
:103C10000895EADFA59F900DB49F900DA49F800D9D
:103C2000911D11240895B7FFF4CFF3DF821B930B8E
:103C30000895A1E21A2EAA1BBB1BFD010DC0AA1FED
:103C4000BB1FEE1FFF1FA217B307E407F50720F005
:103C5000A21BB30BE40BF50B661F771F881F991F80
:103C60001A9469F760957095809590959B01AC01C9
:103C7000BD01CF010895052E97FB16F400940FD0D7
:103C800057FD05D0D6DF07FC02D046F408C050959A
:103C90004095309521953F4F4F4F5F4F0895909538
:103CA0008095709561957F4F8F4F9F4F0895EE0FD0
:103CB000FF1F0590F491E02D09945058BB27AA27C7
:103CC0000ED04DC13ED130F043D120F031F49F3FB2
:103CD00011F41EF433C10EF4E095E7FB29C1E92F7E
:103CE0004FD180F3BA17620773078407950718F05E
:103CF00071F49EF567C10EF4E0950B2EBA2FA02D3E
:103D00000B01B90190010C01CA01A0011124FF2788
:103D1000591B99F0593F50F4503E68F11A16F04083
:103D2000A22F232F342F4427585FF3CF4695379582
:103D30002795A795F0405395C9F77EF41F16BA0B47
:103D4000620B730B840BBAF09150A1F0FF0FBB1FF5
:103D5000661F771F881FC2F70EC0BA0F621F731F3E
:103D6000841F48F4879577956795B795F7959E3F9B
:103D700008F0B3CF9395880F08F09927EE0F979529
:103D8000879508950CD0EBC0E3D040F0DAD030F046
:103D900021F45F3F19F0CCC0511115C1CFC0F0D054
:103DA00098F39923C9F35523B1F3951B550BBB2702
:103DB000AA2762177307840738F09F5F5F4F220FAF
:103DC000331F441FAA1FA9F333D00E2E3AF0E0E8A8
:103DD00030D091505040E695001CCAF729D0FE2FF4
:103DE00027D0660F771F881FBB1F26173707480786
:103DF000AB07B0E809F0BB0B802DBF01FF2793583C
:103E00005F4F2AF09E3F510568F092C0DCC05F3FD3
:103E1000ECF3983EDCF3869577956795B795F79523
:103E20009F5FC9F7880F911D9695879597F908951B
:103E3000E1E0660F771F881FBB1F621773078407B7
:103E4000BA0720F0621B730B840BBA0BEE1F88F7C6
:103E5000E095089504D06894B111B5C0089598D044
:103E600088F09F5790F0B92F9927B751A0F0D1F063
:103E7000660F771F881F991F1AF0BA95C9F712C0ED
:103E8000B13081F09FD0B1E008959CC0672F782FAA
:103E90008827B85F39F0B93FCCF386957795679559
:103EA000B395D9F73EF490958095709561957F4FC5
:103EB0008F4F9F4F0895E89409C097FB3EF490956B
:103EC0008095709561957F4F8F4F9F4F9923A9F0F3
:103ED000F92F96E9BB279395F69587957795679582
:103EE000B795F111F8CFFAF4BB0F11F460FF1BC0C6
:103EF0006F5F7F4F8F4F9F4F16C0882311F096E959
:103F000011C0772321F09EE8872F762F05C0662306
:103F100071F096E8862F70E060E02AF09A95660FBF
:103F2000771F881FDAF7880F9695879597F9089578
:103F300097F99F6780E870E060E008959FEF80EC5C
:103F4000089500240A9416161706180609060895FF
:103F500000240A9412161306140605060895092E65
:103F60000394000C11F4882352F0BB0F40F4BF2BD4
:103F700011F460FF04C06F5F7F4F8F4F9F4F089514
:103F800057FD9058440F551F59F05F3F71F047950A
:103F9000880F97FB991F61F09F3F79F087950895EF
:103FA000121613061406551FF2CF4695F1DF08C00E
:103FB000161617061806991FF1CF8695710561052B
:103FC00008940895E894BB2766277727CB0197F9D3
:103FD00008950BD0C4CFB5DF28F0BADF18F09523D1
:103FE00009F0A6CFABCF1124EECFCADFA0F3959F87
:103FF000D1F3950F50E0551F629FF001729FBB27D0
:10400000F00DB11D639FAA27F00DB11DAA1F649F7B
:104010006627B00DA11D661F829F2227B00DA11D2E
:10402000621F739FB00DA11D621F839FA00D611DB4
:10403000221F749F3327A00D611D231F849F600DD5
:10404000211D822F762F6A2F11249F5750408AF00E
:10405000E1F088234AF0EE0FFF1FBB1F661F771F9A
:10406000881F91505040A9F79E3F510570F060CFD6
:10407000AACF5F3FECF3983EDCF386957795679582
:10408000B795F795E7959F5FC1F7FE2B880F911DB8
:104090009695879597F90895A0E0B0E0E1E5F0E204
:1040A000E5C2AE014B5F5F4FFA0161917191AF01C3
:1040B0008091CA039091CB035AD0E2E0F3C2A0E012
:1040C000B0E0E4E6F0E2D0C2AE01495F5F4FDA0152
:1040D0006D917D91AD0108EC13E0F801828193812F
:1040E000DC0113962C911397286013962C933FD0E4
:1040F000D8011296ED91FC9113972381277F23839A
:10410000E4E0CEC26091CA037091CB0309C20F9361
:104110001F93CF93DF93E091CA03F091CB032381E8
:1041200021FF1BC08C01D0E0C0E0F80181918F011C
:104130006091CA037091CB03DB011896ED91FC915D
:104140001997882331F00995892B79F3DFEFCFEFA9
:10415000ECCF8AE00995892B19F08FEF9FEF02C011
:104160008D2F9C2FDF91CF911F910F910895ACE07F
:10417000B0E0ECEBF0E26AC27C016B018A01FC0169
:1041800017821682838181FFB0C1CE0101964C0156
:10419000F7019381F60193FD859193FF81916F0162
:1041A000882309F49EC1853239F493FD859193FFEC
:1041B00081916F01853221F4B70190E0B1D1E8CF50
:1041C000512C312C20E02032A0F48B3269F030F4F5
:1041D000803259F0833269F420612CC08D3239F07D
:1041E000803339F4216026C02260246023C0286017
:1041F00021C027FD27C030ED380F3A3078F426FF74
:1042000006C0FAE05F9E300D1124532E13C08AE0E1
:10421000389E300D1124332E20620CC08E3221F4D2
:1042200026FD5FC1206406C08C3611F4206802C0F0
:10423000883641F4F60193FD859193FF81916F01DA
:104240008111C1CF982F9F7D9554933028F40C5F36
:104250001F4FFFE3F9830DC0833631F0833771F0D0
:10426000833509F057C021C0F801808189830E5F32
:104270001F4F44244394512C540114C03801F2E0E0
:104280006F0E711CF801A080B18026FF03C0652D60
:1042900070E002C06FEF7FEFC5012C8736D12C0193
:1042A00083012C852F77222E16C03801F2E06F0E85
:1042B000711CF801A080B18026FF03C0652D70E05D
:1042C00002C06FEF7FEFC5012C8714D12C012C8524
:1042D0002068222E830123FC19C0832D90E048160C
:1042E0005906A0F4B70180E290E01AD13A94F5CFD4
:1042F000F50127FC859127FE81915F01B70190E0D0
:104300000FD131103A94F1E04F1A51084114510481
:1043100079F7DEC0843611F0893631F5F80127FFD0
:1043200007C060817181828193810C5F1F4F08C03B
:1043300060817181882777FD8095982F0E5F1F4FD0
:104340002F76722E97FF09C0909580957095619594
:104350007F4F8F4F9F4F2068722E2AE030E0A401DC
:1043600017D1A82EA81843C0853729F42F7EB22E66
:104370002AE030E025C0F22FF97FBF2E8F36C1F042
:1043800018F4883579F0ADC0803719F0883721F0FE
:10439000A8C02F2F2061B22EB4FE0DC08B2D8460DB
:1043A000B82E09C024FF0AC09F2F9660B92E06C000
:1043B00028E030E005C020E130E002C020E132E03A
:1043C000F801B7FE07C060817181828193810C5F23
:1043D0001F4F06C06081718180E090E00E5F1F4F2B
:1043E000A401D6D0A82EA818FB2DFF777F2E76FE2D
:1043F0000BC0372D3E7FA51450F474FE0AC072FC2A
:1044000008C0372D3E7E05C0BA2C372D03C0BA2C0C
:1044100001C0B52C34FF0DC0FE01EA0DF11D8081F5
:10442000803311F4397E09C032FF06C0B394B394CF
:1044300004C0832F867809F0B39433FD12C030FF97
:1044400006C05A2CB31418F4530C5B18B32CB314D5
:1044500060F4B70180E290E03C8762D0B3943C8581
:10446000F6CFB31410F43B1801C0312C34FF11C047
:10447000B70180E390E03C8753D03C8532FF16C003
:1044800031FD03C088E790E002C088E590E0B70105
:104490000CC0832F867851F031FF02C08BE201C03F
:1044A00080E237FD8DE2B70190E03AD0A51430F4F8
:1044B000B70180E390E034D05A94F8CFAA94F40185
:1044C000EA0DF11D8081B70190E02AD0A110F6CF4E
:1044D000332009F45DCEB70180E290E021D03A9418
:1044E000F7CFF7018681978102C08FEF9FEF2C965F
:1044F000E2E1C8C0FC010590615070400110D8F79E
:10450000809590958E0F9F1F0895FC01615070401B
:1045100001900110D8F7809590958E0F9F1F0895F8
:104520000F931F93CF93DF93FB01238121FD03C0E2
:104530008FEF9FEF28C022FF16C04681578124814C
:1045400035814217530744F4A081B1819D012F5F4B
:104550003F4F318320838C93268137812F5F3F4FDC
:104560003783268310C0EB01092F182F0084F185B3
:10457000E02D0995892BE1F68E819F8101969F831D
:104580008E83812F902FDF91CF911F910F910895EE
:10459000FA01AA27283051F1203181F1E8946F9374
:1045A0006E7F6E5F7F4F8F4F9F4FAF4FB1E03ED01A
:1045B000B4E03CD0670F781F891F9A1FA11D680FB8
:1045C000791F8A1F911DA11D6A0F711D811D911DEB
:1045D000A11D20D009F468943F912AE0269F112460
:1045E0003019305D3193DEF6CF010895462F4770C4
:1045F000405D4193B3E00FD0C9F7F6CF462F4F701F
:10460000405D4A3318F0495D31FD4052419302D07C
:10461000A9F7EACFB4E0A695979587957795679522
:10462000BA95C9F700976105710508959B01AC0122
:104630000A2E06945795479537952795BA95C9F749
:10464000620F731F841F951FA01D08952F923F9224
:104650004F925F926F927F928F929F92AF92BF9292
:10466000CF92DF92EF92FF920F931F93CF93DF933E
:10467000CDB7DEB7CA1BDB0B0FB6F894DEBF0FBE9B
:10468000CDBF09942A88398848885F846E847D84E8
:104690008C849B84AA84B984C884DF80EE80FD80EA
:1046A0000C811B81AA81B981CE0FD11D0FB6F89460
:0E46B000DEBF0FBECDBFED010895F894FFCF21
:1046BE007203690360030000426C7565546F6F747A
:1046CE006820636C69656E7420636F6E6E656374CB
:1046DE0065642100426C7565546F6F746820636C5D
:1046EE0069656E7420646973636F6E6E656374655D
:1046FE0064210052656376202575206279746528E1
:10470E0073293A200025782000456E746572696E13
:10471E0067207061636B6574000A5245465B2564C1
:10472E005D204F505B25645D20434D5B25645D0A23
:10473E000042616420636F6E74726F6C206D6F64E3
:10474E00756C652025640A00517565727920467274
:10475E006F6D204254004745545F53544154555396
:10476E002069642025640A004F4E20696420256468
:10477E000A0053656E64204F4E20636F6D6D616E3F
:10478E006420746F20434D004F4E20636F6D6D613A
:10479E006E64206661696C65640025303278200095
:1047AE004F46462069642025640A0053656E6420D6
:1047BE004F464620636F6D6D616E6420746F2043AB
:1047CE004D004F464620636F6D6D616E64206661CD
:1047DE00696C656400556E7265636F676E697A65A4
:1047EE0064206F70636F646520253032780A00494B
:1047FE00474E20253032780A00446F6F72004C69A4
:10480E006768740054656D706572617475726500C9
:10481E00546F75636873637265656E2043616C696E
:10482E0062726174696F6E0A00546F7563682074EA
:10483E0068652000746F702D6C65667400746F70FF
:10484E002D726967687400626F74746F6D2D726972
:10485E0067687400626F74746F6D2D6C656674009A
:10486E0043616C6962726174696F6E20436F6D7023
:10487E006C657465004163636570740052657365A1
:10488E007400526576657274696E6720696E0020D9
:10489E0020200808256400000000009E0A510B69C4
:1048AE000A8B0B630C00000000221014081408235E
:1048BE00102410436F6E74726F6C206D6F64756C84
:1048CE006520272573272028696420256875292CE3
:1048DE0020726F6C65200041430044430054454DE7
:1048EE0050004E4F4E4500000000001408A611A5C2
:1048FE0012BC125612D212071325133C1460C0A01C
:10490E0028100010181060C0A000003F013F01EFFA
:10491E00EF00000000008118A6114C17EA1656127F
:08492E00AF17341825133C14E7
:00000001FF
